{
  "_format": "hh-sol-artifact-1",
  "contractName": "FairSideConviction",
  "sourceName": "contracts/conviction/FairSideConviction.sol",
  "abi": [
    {
      "inputs": [
        {
          "internalType": "contract IERC20",
          "name": "_fsd",
          "type": "address"
        }
      ],
      "stateMutability": "nonpayable",
      "type": "constructor"
    },
    {
      "anonymous": false,
      "inputs": [
        {
          "indexed": true,
          "internalType": "address",
          "name": "owner",
          "type": "address"
        },
        {
          "indexed": true,
          "internalType": "address",
          "name": "approved",
          "type": "address"
        },
        {
          "indexed": true,
          "internalType": "uint256",
          "name": "tokenId",
          "type": "uint256"
        }
      ],
      "name": "Approval",
      "type": "event"
    },
    {
      "anonymous": false,
      "inputs": [
        {
          "indexed": true,
          "internalType": "address",
          "name": "owner",
          "type": "address"
        },
        {
          "indexed": true,
          "internalType": "address",
          "name": "operator",
          "type": "address"
        },
        {
          "indexed": false,
          "internalType": "bool",
          "name": "approved",
          "type": "bool"
        }
      ],
      "name": "ApprovalForAll",
      "type": "event"
    },
    {
      "anonymous": false,
      "inputs": [
        {
          "indexed": true,
          "internalType": "address",
          "name": "from",
          "type": "address"
        },
        {
          "indexed": true,
          "internalType": "address",
          "name": "to",
          "type": "address"
        },
        {
          "indexed": true,
          "internalType": "uint256",
          "name": "tokenId",
          "type": "uint256"
        }
      ],
      "name": "Transfer",
      "type": "event"
    },
    {
      "inputs": [],
      "name": "FSD",
      "outputs": [
        {
          "internalType": "contract IERC20",
          "name": "",
          "type": "address"
        }
      ],
      "stateMutability": "view",
      "type": "function"
    },
    {
      "inputs": [
        {
          "internalType": "address",
          "name": "to",
          "type": "address"
        },
        {
          "internalType": "uint256",
          "name": "tokenId",
          "type": "uint256"
        }
      ],
      "name": "approve",
      "outputs": [],
      "stateMutability": "nonpayable",
      "type": "function"
    },
    {
      "inputs": [
        {
          "internalType": "address",
          "name": "owner",
          "type": "address"
        }
      ],
      "name": "balanceOf",
      "outputs": [
        {
          "internalType": "uint256",
          "name": "",
          "type": "uint256"
        }
      ],
      "stateMutability": "view",
      "type": "function"
    },
    {
      "inputs": [],
      "name": "baseURI",
      "outputs": [
        {
          "internalType": "string",
          "name": "",
          "type": "string"
        }
      ],
      "stateMutability": "view",
      "type": "function"
    },
    {
      "inputs": [
        {
          "internalType": "address",
          "name": "from",
          "type": "address"
        },
        {
          "internalType": "uint256",
          "name": "id",
          "type": "uint256"
        }
      ],
      "name": "burn",
      "outputs": [
        {
          "internalType": "uint224",
          "name": "convictionScore",
          "type": "uint224"
        },
        {
          "internalType": "uint256",
          "name": "released",
          "type": "uint256"
        },
        {
          "internalType": "bool",
          "name": "wasGovernance",
          "type": "bool"
        }
      ],
      "stateMutability": "nonpayable",
      "type": "function"
    },
    {
      "inputs": [
        {
          "internalType": "uint256",
          "name": "",
          "type": "uint256"
        }
      ],
      "name": "conviction",
      "outputs": [
        {
          "internalType": "uint256",
          "name": "ts",
          "type": "uint256"
        },
        {
          "internalType": "uint256",
          "name": "score",
          "type": "uint256"
        },
        {
          "internalType": "uint256",
          "name": "locked",
          "type": "uint256"
        },
        {
          "internalType": "bool",
          "name": "isGovernance",
          "type": "bool"
        }
      ],
      "stateMutability": "view",
      "type": "function"
    },
    {
      "inputs": [
        {
          "internalType": "address",
          "name": "user",
          "type": "address"
        },
        {
          "internalType": "uint256",
          "name": "score",
          "type": "uint256"
        },
        {
          "internalType": "uint256",
          "name": "locked",
          "type": "uint256"
        },
        {
          "internalType": "bool",
          "name": "isGovernance",
          "type": "bool"
        }
      ],
      "name": "createConvictionNFT",
      "outputs": [
        {
          "internalType": "uint256",
          "name": "",
          "type": "uint256"
        }
      ],
      "stateMutability": "nonpayable",
      "type": "function"
    },
    {
      "inputs": [
        {
          "internalType": "uint256",
          "name": "tokenId",
          "type": "uint256"
        }
      ],
      "name": "getApproved",
      "outputs": [
        {
          "internalType": "address",
          "name": "",
          "type": "address"
        }
      ],
      "stateMutability": "view",
      "type": "function"
    },
    {
      "inputs": [
        {
          "internalType": "uint256",
          "name": "id",
          "type": "uint256"
        }
      ],
      "name": "getConvictionScore",
      "outputs": [
        {
          "internalType": "uint256",
          "name": "convictionScore",
          "type": "uint256"
        }
      ],
      "stateMutability": "view",
      "type": "function"
    },
    {
      "inputs": [
        {
          "internalType": "address",
          "name": "owner",
          "type": "address"
        },
        {
          "internalType": "address",
          "name": "operator",
          "type": "address"
        }
      ],
      "name": "isApprovedForAll",
      "outputs": [
        {
          "internalType": "bool",
          "name": "",
          "type": "bool"
        }
      ],
      "stateMutability": "view",
      "type": "function"
    },
    {
      "inputs": [],
      "name": "name",
      "outputs": [
        {
          "internalType": "string",
          "name": "",
          "type": "string"
        }
      ],
      "stateMutability": "view",
      "type": "function"
    },
    {
      "inputs": [
        {
          "internalType": "uint256",
          "name": "tokenId",
          "type": "uint256"
        }
      ],
      "name": "ownerOf",
      "outputs": [
        {
          "internalType": "address",
          "name": "",
          "type": "address"
        }
      ],
      "stateMutability": "view",
      "type": "function"
    },
    {
      "inputs": [
        {
          "internalType": "uint256",
          "name": "id",
          "type": "uint256"
        }
      ],
      "name": "release",
      "outputs": [
        {
          "internalType": "uint256",
          "name": "",
          "type": "uint256"
        },
        {
          "internalType": "uint256",
          "name": "",
          "type": "uint256"
        }
      ],
      "stateMutability": "nonpayable",
      "type": "function"
    },
    {
      "inputs": [
        {
          "internalType": "address",
          "name": "from",
          "type": "address"
        },
        {
          "internalType": "address",
          "name": "to",
          "type": "address"
        },
        {
          "internalType": "uint256",
          "name": "tokenId",
          "type": "uint256"
        }
      ],
      "name": "safeTransferFrom",
      "outputs": [],
      "stateMutability": "nonpayable",
      "type": "function"
    },
    {
      "inputs": [
        {
          "internalType": "address",
          "name": "from",
          "type": "address"
        },
        {
          "internalType": "address",
          "name": "to",
          "type": "address"
        },
        {
          "internalType": "uint256",
          "name": "tokenId",
          "type": "uint256"
        },
        {
          "internalType": "bytes",
          "name": "_data",
          "type": "bytes"
        }
      ],
      "name": "safeTransferFrom",
      "outputs": [],
      "stateMutability": "nonpayable",
      "type": "function"
    },
    {
      "inputs": [
        {
          "internalType": "address",
          "name": "operator",
          "type": "address"
        },
        {
          "internalType": "bool",
          "name": "approved",
          "type": "bool"
        }
      ],
      "name": "setApprovalForAll",
      "outputs": [],
      "stateMutability": "nonpayable",
      "type": "function"
    },
    {
      "inputs": [
        {
          "internalType": "bytes4",
          "name": "interfaceId",
          "type": "bytes4"
        }
      ],
      "name": "supportsInterface",
      "outputs": [
        {
          "internalType": "bool",
          "name": "",
          "type": "bool"
        }
      ],
      "stateMutability": "view",
      "type": "function"
    },
    {
      "inputs": [],
      "name": "symbol",
      "outputs": [
        {
          "internalType": "string",
          "name": "",
          "type": "string"
        }
      ],
      "stateMutability": "view",
      "type": "function"
    },
    {
      "inputs": [
        {
          "internalType": "uint256",
          "name": "index",
          "type": "uint256"
        }
      ],
      "name": "tokenByIndex",
      "outputs": [
        {
          "internalType": "uint256",
          "name": "",
          "type": "uint256"
        }
      ],
      "stateMutability": "view",
      "type": "function"
    },
    {
      "inputs": [
        {
          "internalType": "address",
          "name": "owner",
          "type": "address"
        },
        {
          "internalType": "uint256",
          "name": "index",
          "type": "uint256"
        }
      ],
      "name": "tokenOfOwnerByIndex",
      "outputs": [
        {
          "internalType": "uint256",
          "name": "",
          "type": "uint256"
        }
      ],
      "stateMutability": "view",
      "type": "function"
    },
    {
      "inputs": [
        {
          "internalType": "uint256",
          "name": "tokenId",
          "type": "uint256"
        }
      ],
      "name": "tokenURI",
      "outputs": [
        {
          "internalType": "string",
          "name": "",
          "type": "string"
        }
      ],
      "stateMutability": "view",
      "type": "function"
    },
    {
      "inputs": [],
      "name": "totalSupply",
      "outputs": [
        {
          "internalType": "uint256",
          "name": "",
          "type": "uint256"
        }
      ],
      "stateMutability": "view",
      "type": "function"
    },
    {
      "inputs": [
        {
          "internalType": "address",
          "name": "from",
          "type": "address"
        },
        {
          "internalType": "address",
          "name": "to",
          "type": "address"
        },
        {
          "internalType": "uint256",
          "name": "tokenId",
          "type": "uint256"
        }
      ],
      "name": "transferFrom",
      "outputs": [],
      "stateMutability": "nonpayable",
      "type": "function"
    }
  ],
  "bytecode": "0x60a06040526001600b553480156200001657600080fd5b506040516200296c3803806200296c833981810160405260208110156200003c57600080fd5b5051604080518082018252601381527f466169725369646520436f6e76696374696f6e000000000000000000000000006020828101919091528251808401909352600383526246534360e81b9083015290620000a86301ffc9a760e01b6001600160e01b036200013d16565b8151620000bd906006906020850190620001c2565b508051620000d3906007906020840190620001c2565b50620000ef6380ac58cd60e01b6001600160e01b036200013d16565b6200010a635b5e139f60e01b6001600160e01b036200013d16565b6200012563780e9d6360e01b6001600160e01b036200013d16565b505060601b6001600160601b03191660805262000267565b6001600160e01b031980821614156200019d576040805162461bcd60e51b815260206004820152601c60248201527f4552433136353a20696e76616c696420696e7465726661636520696400000000604482015290519081900360640190fd5b6001600160e01b0319166000908152602081905260409020805460ff19166001179055565b828054600181600116156101000203166002900490600052602060002090601f016020900481019282601f106200020557805160ff191683800117855562000235565b8280016001018555821562000235579182015b828111156200023557825182559160200191906001019062000218565b506200024392915062000247565b5090565b6200026491905b808211156200024357600081556001016200024e565b90565b60805160601c6126d362000299600039806108565280610a6f5280610c4c5280610cde52806115fd52506126d36000f3fe608060405234801561001057600080fd5b506004361061014d5760003560e01c806342842e0e116100c357806395d89b411161007c57806395d89b41146104655780639dc29fac1461046d578063a22cb465146104c3578063b88d4fde146104f1578063c87b56dd146105b7578063e985e9c5146105d45761014d565b806342842e0e146103bf5780634f6ccce7146103f55780636352211e146104125780636c0360eb1461042f57806370a082311461043757806393b156c21461045d5761014d565b806318160ddd1161011557806318160ddd146102a05780631ed723ed146102a857806323b872dd146102ed5780632f745c591461032357806337bdc99b1461034f57806339c14bae146103855761014d565b806301ffc9a71461015257806306fdde031461018d578063081812fc1461020a578063095ea7b31461024357806310d42f7014610271575b600080fd5b6101796004803603602081101561016857600080fd5b50356001600160e01b031916610602565b604080519115158252519081900360200190f35b610195610625565b6040805160208082528351818301528351919283929083019185019080838360005b838110156101cf5781810151838201526020016101b7565b50505050905090810190601f1680156101fc5780820380516001836020036101000a031916815260200191505b509250505060405180910390f35b6102276004803603602081101561022057600080fd5b50356106bc565b604080516001600160a01b039092168252519081900360200190f35b61026f6004803603604081101561025957600080fd5b506001600160a01b03813516906020013561071e565b005b61028e6004803603602081101561028757600080fd5b50356107f9565b60408051918252519081900360200190f35b61028e610926565b6102c5600480360360208110156102be57600080fd5b5035610937565b6040805194855260208501939093528383019190915215156060830152519081900360800190f35b61026f6004803603606081101561030357600080fd5b506001600160a01b03813581169160208101359091169060400135610961565b61028e6004803603604081101561033957600080fd5b506001600160a01b0381351690602001356109b8565b61036c6004803603602081101561036557600080fd5b50356109e9565b6040805192835260208301919091528051918290030190f35b61028e6004803603608081101561039b57600080fd5b506001600160a01b0381351690602081013590604081013590606001351515610a62565b61026f600480360360608110156103d557600080fd5b506001600160a01b03813581169160208101359091169060400135610b1c565b61028e6004803603602081101561040b57600080fd5b5035610b37565b6102276004803603602081101561042857600080fd5b5035610b53565b610195610b81565b61028e6004803603602081101561044d57600080fd5b50356001600160a01b0316610be2565b610227610c4a565b610195610c6e565b6104996004803603604081101561048357600080fd5b506001600160a01b038135169060200135610ccf565b604080516001600160e01b0390941684526020840192909252151582820152519081900360600190f35b61026f600480360360408110156104d957600080fd5b506001600160a01b0381351690602001351515610de6565b61026f6004803603608081101561050757600080fd5b6001600160a01b0382358116926020810135909116916040820135919081019060808101606082013564010000000081111561054257600080fd5b82018360208201111561055457600080fd5b8035906020019184600183028401116401000000008311171561057657600080fd5b91908080601f016020809104026020016040519081016040528093929190818152602001838380828437600092019190915250929550610eeb945050505050565b610195600480360360208110156105cd57600080fd5b5035610f49565b610179600480360360408110156105ea57600080fd5b506001600160a01b03813581169160200135166111cc565b6001600160e01b0319811660009081526020819052604090205460ff165b919050565b60068054604080516020601f60026000196101006001881615020190951694909404938401819004810282018101909252828152606093909290918301828280156106b15780601f10610686576101008083540402835291602001916106b1565b820191906000526020600020905b81548152906001019060200180831161069457829003601f168201915b505050505090505b90565b60006106c7826111fa565b6107025760405162461bcd60e51b815260040180806020018281038252602c815260200180612543602c913960400191505060405180910390fd5b506000908152600460205260409020546001600160a01b031690565b600061072982610b53565b9050806001600160a01b0316836001600160a01b0316141561077c5760405162461bcd60e51b81526004018080602001828103825260218152602001806125c76021913960400191505060405180910390fd5b806001600160a01b031661078e61120d565b6001600160a01b031614806107af57506107af816107aa61120d565b6111cc565b6107ea5760405162461bcd60e51b81526004018080602001828103825260388152602001806124756038913960400191505060405180910390fd5b6107f48383611211565b505050565b600061080361229f565b50506000818152600a60209081526040918290208251608081018452815481526001820154928101839052600282015493810184905260039091015460ff16151560608201529091158015906108e157507f00000000000000000000000000000000000000000000000000000000000000006001600160a01b031663b9d1d49b6040518163ffffffff1660e01b815260040160206040518083038186803b1580156108ad57600080fd5b505afa1580156108c1573d6000803e3d6000fd5b505050506040513d60208110156108d757600080fd5b5051602082015110155b15610920578051604082015161091d91620151809161090791420363ffffffff61127f16565b8161090e57fe5b8491900463ffffffff6112d816565b91505b50919050565b60006109326002611332565b905090565b600a6020526000908152604090208054600182015460028301546003909301549192909160ff1684565b61097261096c61120d565b8261133d565b6109ad5760405162461bcd60e51b81526004018080602001828103825260318152602001806125e86031913960400191505060405180910390fd5b6107f48383836113d9565b6001600160a01b03821660009081526001602052604081206109e0908363ffffffff61153716565b90505b92915050565b6000806109f583610b53565b6001600160a01b0316336001600160a01b031614610a445760405162461bcd60e51b81526004018080602001828103825260348152602001806126436034913960400191505060405180910390fd5b610a4d83611543565b6001600160e01b03909116925090505b915091565b6000336001600160a01b037f00000000000000000000000000000000000000000000000000000000000000001614610acb5760405162461bcd60e51b81526004018080602001828103825260408152602001806123516040913960400191505060405180910390fd5b600b805460018082019092556000818152600a6020526040902091820186905542825560038201805460ff19168515151790556002820185905590610b108783611630565b5090505b949350505050565b6107f483838360405180602001604052806000815250610eeb565b600080610b4b60028463ffffffff61176a16565b509392505050565b60006109e3826040518060600160405280602981526020016124d7602991396002919063ffffffff61178616565b60098054604080516020601f60026000196101006001881615020190951694909404938401819004810282018101909252828152606093909290918301828280156106b15780601f10610686576101008083540402835291602001916106b1565b60006001600160a01b038216610c295760405162461bcd60e51b815260040180806020018281038252602a8152602001806124ad602a913960400191505060405180910390fd5b6001600160a01b03821660009081526001602052604090206109e390611332565b7f000000000000000000000000000000000000000000000000000000000000000081565b60078054604080516020601f60026000196101006001881615020190951694909404938401819004810282018101909252828152606093909290918301828280156106b15780601f10610686576101008083540402835291602001916106b1565b60008080336001600160a01b037f00000000000000000000000000000000000000000000000000000000000000001614610d3a5760405162461bcd60e51b81526004018080602001828103825260318152602001806124446031913960400191505060405180910390fd5b610d4384610b53565b6001600160a01b0316856001600160a01b031614610d925760405162461bcd60e51b81526004018080602001828103825260278152602001806126776027913960400191505060405180910390fd5b610d9b84611543565b9093509150610da98461179d565b506000928352600a602052604083206003810180548583556001830186905560029092019490945560ff198116909355909390925060ff90911690565b610dee61120d565b6001600160a01b0316826001600160a01b03161415610e54576040805162461bcd60e51b815260206004820152601960248201527f4552433732313a20617070726f766520746f2063616c6c657200000000000000604482015290519081900360640190fd5b8060056000610e6161120d565b6001600160a01b03908116825260208083019390935260409182016000908120918716808252919093529120805460ff191692151592909217909155610ea561120d565b60408051841515815290516001600160a01b0392909216917f17307eab39ab6107e8899845ad3d59bd9653f200f220920489ca2b5937696c319181900360200190a35050565b610efc610ef661120d565b8361133d565b610f375760405162461bcd60e51b81526004018080602001828103825260318152602001806125e86031913960400191505060405180910390fd5b610f4384848484611876565b50505050565b6060610f54826111fa565b610f8f5760405162461bcd60e51b815260040180806020018281038252602f815260200180612598602f913960400191505060405180910390fd5b60008281526008602090815260409182902080548351601f60026000196101006001861615020190931692909204918201849004840281018401909452808452606093928301828280156110245780601f10610ff957610100808354040283529160200191611024565b820191906000526020600020905b81548152906001019060200180831161100757829003601f168201915b505050505090506060611035610b81565b905080516000141561104957509050610620565b81511561110a5780826040516020018083805190602001908083835b602083106110845780518252601f199092019160209182019101611065565b51815160209384036101000a600019018019909216911617905285519190930192850191508083835b602083106110cc5780518252601f1990920191602091820191016110ad565b6001836020036101000a0380198251168184511680821785525050505050509050019250505060405160208183030381529060405292505050610620565b80611114856118c8565b6040516020018083805190602001908083835b602083106111465780518252601f199092019160209182019101611127565b51815160209384036101000a600019018019909216911617905285519190930192850191508083835b6020831061118e5780518252601f19909201916020918201910161116f565b6001836020036101000a0380198251168184511680821785525050505050509050019250505060405160208183030381529060405292505050919050565b6001600160a01b03918216600090815260056020908152604080832093909416825291909152205460ff1690565b60006109e360028363ffffffff6119a316565b3390565b600081815260046020526040902080546001600160a01b0319166001600160a01b038416908117909155819061124682610b53565b6001600160a01b03167f8c5be1e5ebec7d5bd14f71427d1e84f3dd0314c0f7b2291e5b200ac8c7c3b92560405160405180910390a45050565b60008261128e575060006109e3565b8282028284828161129b57fe5b04146109e05760405162461bcd60e51b81526004018080602001828103825260218152602001806125226021913960400191505060405180910390fd5b6000828201838110156109e0576040805162461bcd60e51b815260206004820152601b60248201527f536166654d6174683a206164646974696f6e206f766572666c6f770000000000604482015290519081900360640190fd5b60006109e3826119af565b6000611348826111fa565b6113835760405162461bcd60e51b815260040180806020018281038252602c815260200180612418602c913960400191505060405180910390fd5b600061138e83610b53565b9050806001600160a01b0316846001600160a01b031614806113c95750836001600160a01b03166113be846106bc565b6001600160a01b0316145b80610b145750610b1481856111cc565b826001600160a01b03166113ec82610b53565b6001600160a01b0316146114315760405162461bcd60e51b815260040180806020018281038252602981526020018061256f6029913960400191505060405180910390fd5b6001600160a01b0382166114765760405162461bcd60e51b81526004018080602001828103825260248152602001806123f46024913960400191505060405180910390fd5b6114818383836107f4565b61148c600082611211565b6001600160a01b03831660009081526001602052604090206114b4908263ffffffff6119b316565b506001600160a01b03821660009081526001602052604090206114dd908263ffffffff6119bf16565b506114f06002828463ffffffff6119cb16565b5080826001600160a01b0316846001600160a01b03167fddf252ad1be2c89b69c2b068fc378daa952ba7f163c4a11628f55a4df523b3ef60405160405180910390a4505050565b60006109e083836119e1565b6000818152600a6020526040812060028101548291906115975761158a6040518060600160405280603181526020016123c36031913960018301549063ffffffff611a4516565b925060009150610a5d9050565b6115c86040518060600160405280603181526020016123c3603191396115bc866107f9565b9063ffffffff611a4516565b6001600160e01b03811660018301556002820180546000909155909350915061162a6115f385610b53565b6001600160a01b037f000000000000000000000000000000000000000000000000000000000000000016908463ffffffff611ae316565b50915091565b6001600160a01b03821661168b576040805162461bcd60e51b815260206004820181905260248201527f4552433732313a206d696e7420746f20746865207a65726f2061646472657373604482015290519081900360640190fd5b611694816111fa565b156116e6576040805162461bcd60e51b815260206004820152601c60248201527f4552433732313a20746f6b656e20616c7265616479206d696e74656400000000604482015290519081900360640190fd5b6116f2600083836107f4565b6001600160a01b038216600090815260016020526040902061171a908263ffffffff6119bf16565b5061172d6002828463ffffffff6119cb16565b5060405181906001600160a01b038416906000907fddf252ad1be2c89b69c2b068fc378daa952ba7f163c4a11628f55a4df523b3ef908290a45050565b60008080806117798686611b35565b9097909650945050505050565b6000611793848484611bb0565b90505b9392505050565b60006117a882610b53565b90506117b6816000846107f4565b6117c1600083611211565b60008281526008602052604090205460026000196101006001841615020190911604156117ff5760008281526008602052604081206117ff916122c9565b6001600160a01b0381166000908152600160205260409020611827908363ffffffff6119b316565b5061183960028363ffffffff611c3d16565b5060405182906000906001600160a01b038416907fddf252ad1be2c89b69c2b068fc378daa952ba7f163c4a11628f55a4df523b3ef908390a45050565b6118818484846113d9565b61188d84848484611c49565b610f435760405162461bcd60e51b81526004018080602001828103825260328152602001806123916032913960400191505060405180910390fd5b6060816118ed57506040805180820190915260018152600360fc1b6020820152610620565b8160005b811561190557600101600a820491506118f1565b60608167ffffffffffffffff8111801561191e57600080fd5b506040519080825280601f01601f191660200182016040528015611949576020820181803683370190505b50859350905060001982015b831561199a57600a840660300160f81b8282806001900393508151811061197857fe5b60200101906001600160f81b031916908160001a905350600a84049350611955565b50949350505050565b60006109e08383611dc9565b5490565b60006109e08383611de1565b60006109e08383611ea7565b600061179384846001600160a01b038516611ef1565b81546000908210611a235760405162461bcd60e51b815260040180806020018281038252602281526020018061232f6022913960400191505060405180910390fd5b826000018281548110611a3257fe5b9060005260206000200154905092915050565b6000816001600160e01b03841115611adb5760405162461bcd60e51b81526004018080602001828103825283818151815260200191508051906020019080838360005b83811015611aa0578181015183820152602001611a88565b50505050905090810190601f168015611acd5780820380516001836020036101000a031916815260200191505b509250505060405180910390fd5b509192915050565b604080516001600160a01b038416602482015260448082018490528251808303909101815260649091019091526020810180516001600160e01b031663a9059cbb60e01b1790526107f4908490611f88565b815460009081908310611b795760405162461bcd60e51b81526004018080602001828103825260228152602001806125006022913960400191505060405180910390fd5b6000846000018481548110611b8a57fe5b906000526020600020906002020190508060000154816001015492509250509250929050565b60008281526001840160205260408120548281611c0e5760405162461bcd60e51b8152602060048201818152835160248401528351909283926044909101919085019080838360008315611aa0578181015183820152602001611a88565b50846000016001820381548110611c2157fe5b9060005260206000209060020201600101549150509392505050565b60006109e08383612039565b6000611c5d846001600160a01b031661210d565b611c6957506001610b14565b6060611d8f630a85bd0160e11b611c7e61120d565b88878760405160240180856001600160a01b03166001600160a01b03168152602001846001600160a01b03166001600160a01b0316815260200183815260200180602001828103825283818151815260200191508051906020019080838360005b83811015611cf7578181015183820152602001611cdf565b50505050905090810190601f168015611d245780820380516001836020036101000a031916815260200191505b5095505050505050604051602081830303815290604052906001600160e01b0319166020820180516001600160e01b038381831617835250505050604051806060016040528060328152602001612391603291396001600160a01b038816919063ffffffff61211316565b90506000818060200190516020811015611da857600080fd5b50516001600160e01b031916630a85bd0160e11b1492505050949350505050565b60009081526001919091016020526040902054151590565b60008181526001830160205260408120548015611e9d5783546000198083019190810190600090879083908110611e1457fe5b9060005260206000200154905080876000018481548110611e3157fe5b600091825260208083209091019290925582815260018981019092526040902090840190558654879080611e6157fe5b600190038181906000526020600020016000905590558660010160008781526020019081526020016000206000905560019450505050506109e3565b60009150506109e3565b6000611eb38383611dc9565b611ee9575081546001818101845560008481526020808220909301849055845484825282860190935260409020919091556109e3565b5060006109e3565b600082815260018401602052604081205480611f56575050604080518082018252838152602080820184815286546001818101895560008981528481209551600290930290950191825591519082015586548684528188019092529290912055611796565b82856000016001830381548110611f6957fe5b9060005260206000209060020201600101819055506000915050611796565b6060611fdd826040518060400160405280602081526020017f5361666545524332303a206c6f772d6c6576656c2063616c6c206661696c6564815250856001600160a01b03166121139092919063ffffffff16565b8051909150156107f457808060200190516020811015611ffc57600080fd5b50516107f45760405162461bcd60e51b815260040180806020018281038252602a815260200180612619602a913960400191505060405180910390fd5b60008181526001830160205260408120548015611e9d578354600019808301919081019060009087908390811061206c57fe5b906000526020600020906002020190508087600001848154811061208c57fe5b6000918252602080832084546002909302019182556001938401549184019190915583548252898301905260409020908401905586548790806120cb57fe5b60008281526020808220600260001990940193840201828155600190810183905592909355888152898201909252604082209190915594506109e39350505050565b3b151590565b60606117938484600085856121278561210d565b612178576040805162461bcd60e51b815260206004820152601d60248201527f416464726573733a2063616c6c20746f206e6f6e2d636f6e7472616374000000604482015290519081900360640190fd5b60006060866001600160a01b031685876040518082805190602001908083835b602083106121b75780518252601f199092019160209182019101612198565b6001836020036101000a03801982511681845116808217855250505050505090500191505060006040518083038185875af1925050503d8060008114612219576040519150601f19603f3d011682016040523d82523d6000602084013e61221e565b606091505b509150915061222e828286612239565b979650505050505050565b60608315612248575081611796565b8251156122585782518084602001fd5b60405162461bcd60e51b8152602060048201818152845160248401528451859391928392604401919085019080838360008315611aa0578181015183820152602001611a88565b60405180608001604052806000815260200160008152602001600081526020016000151581525090565b50805460018160011615610100020316600290046000825580601f106122ef575061230d565b601f01602090049060005260206000209081019061230d9190612310565b50565b6106b991905b8082111561232a5760008155600101612316565b509056fe456e756d657261626c655365743a20696e646578206f7574206f6620626f756e64734661697253696465436f6e76696374696f6e3a3a637265617465436f6e76696374696f6e4e46543a20496e73756666696369656e742050726976696c656765734552433732313a207472616e7366657220746f206e6f6e20455243373231526563656976657220696d706c656d656e7465724661697253696465436f6e76696374696f6e3a3a5f72656c656173653a20436f6e76696374696f6e204f766572666c6f774552433732313a207472616e7366657220746f20746865207a65726f20616464726573734552433732313a206f70657261746f7220717565727920666f72206e6f6e6578697374656e7420746f6b656e4661697253696465436f6e76696374696f6e3a3a6275726e3a20496e73756666696369656e742050726976696c656765734552433732313a20617070726f76652063616c6c6572206973206e6f74206f776e6572206e6f7220617070726f76656420666f7220616c6c4552433732313a2062616c616e636520717565727920666f7220746865207a65726f20616464726573734552433732313a206f776e657220717565727920666f72206e6f6e6578697374656e7420746f6b656e456e756d657261626c654d61703a20696e646578206f7574206f6620626f756e6473536166654d6174683a206d756c7469706c69636174696f6e206f766572666c6f774552433732313a20617070726f76656420717565727920666f72206e6f6e6578697374656e7420746f6b656e4552433732313a207472616e73666572206f6620746f6b656e2074686174206973206e6f74206f776e4552433732314d657461646174613a2055524920717565727920666f72206e6f6e6578697374656e7420746f6b656e4552433732313a20617070726f76616c20746f2063757272656e74206f776e65724552433732313a207472616e736665722063616c6c6572206973206e6f74206f776e6572206e6f7220617070726f7665645361666545524332303a204552433230206f7065726174696f6e20646964206e6f7420737563636565644661697253696465436f6e76696374696f6e3a3a72656c656173653a20496e73756666696369656e742050726976696c656765734661697253696465436f6e76696374696f6e3a3a6275726e3a204e4654206e6f74206f776e6564a2646970667358221220e91ab65362ba93394851ce0b5d29e36899419e418175b1a75ddd4a74d51457d264736f6c63430006080033",
  "linkReferences": {},
  "deployedLinkReferences": {}
}