{
  "_format": "hh-sol-artifact-1",
  "contractName": "FSDNetwork",
  "sourceName": "contracts/network/FSDNetwork.sol",
  "abi": [
    {
      "inputs": [
        {
          "internalType": "contract FSD",
          "name": "_fsd",
          "type": "address"
        },
        {
          "internalType": "address",
          "name": "fundingPool",
          "type": "address"
        },
        {
          "internalType": "address",
          "name": "premiumsPool",
          "type": "address"
        },
        {
          "internalType": "address",
          "name": "governance",
          "type": "address"
        },
        {
          "internalType": "address",
          "name": "timelock",
          "type": "address"
        }
      ],
      "stateMutability": "nonpayable",
      "type": "constructor"
    },
    {
      "anonymous": false,
      "inputs": [
        {
          "indexed": false,
          "internalType": "uint256",
          "name": "id",
          "type": "uint256"
        },
        {
          "indexed": false,
          "internalType": "address",
          "name": "assessor",
          "type": "address"
        },
        {
          "indexed": false,
          "internalType": "address",
          "name": "beneficiary",
          "type": "address"
        },
        {
          "indexed": false,
          "internalType": "uint256",
          "name": "payoutAmount",
          "type": "uint256"
        },
        {
          "indexed": false,
          "internalType": "uint256",
          "name": "timestamp",
          "type": "uint256"
        }
      ],
      "name": "AcceptCSR",
      "type": "event"
    },
    {
      "anonymous": false,
      "inputs": [
        {
          "indexed": false,
          "internalType": "uint256",
          "name": "id",
          "type": "uint256"
        },
        {
          "indexed": false,
          "internalType": "address",
          "name": "beneficiary",
          "type": "address"
        },
        {
          "indexed": false,
          "internalType": "uint256",
          "name": "payoutAmount",
          "type": "uint256"
        },
        {
          "indexed": false,
          "internalType": "bool",
          "name": "inStable",
          "type": "bool"
        },
        {
          "indexed": false,
          "internalType": "uint256",
          "name": "csrType",
          "type": "uint256"
        },
        {
          "indexed": false,
          "internalType": "uint256",
          "name": "timestamp",
          "type": "uint256"
        }
      ],
      "name": "CreateCSR",
      "type": "event"
    },
    {
      "anonymous": false,
      "inputs": [
        {
          "indexed": false,
          "internalType": "uint256",
          "name": "id",
          "type": "uint256"
        },
        {
          "indexed": false,
          "internalType": "address",
          "name": "beneficiary",
          "type": "address"
        },
        {
          "indexed": false,
          "internalType": "uint256",
          "name": "timestamp",
          "type": "uint256"
        }
      ],
      "name": "ExpireCSR",
      "type": "event"
    },
    {
      "anonymous": false,
      "inputs": [
        {
          "indexed": false,
          "internalType": "uint256",
          "name": "id",
          "type": "uint256"
        },
        {
          "indexed": false,
          "internalType": "address",
          "name": "assessor",
          "type": "address"
        },
        {
          "indexed": false,
          "internalType": "uint256",
          "name": "timestamp",
          "type": "uint256"
        }
      ],
      "name": "ExtendCSR",
      "type": "event"
    },
    {
      "anonymous": false,
      "inputs": [
        {
          "indexed": false,
          "internalType": "address",
          "name": "member",
          "type": "address"
        },
        {
          "indexed": false,
          "internalType": "uint256",
          "name": "benefits",
          "type": "uint256"
        },
        {
          "indexed": false,
          "internalType": "uint256",
          "name": "fee",
          "type": "uint256"
        }
      ],
      "name": "NewMembership",
      "type": "event"
    },
    {
      "anonymous": false,
      "inputs": [
        {
          "indexed": false,
          "internalType": "uint256",
          "name": "id",
          "type": "uint256"
        },
        {
          "indexed": false,
          "internalType": "address",
          "name": "assessor",
          "type": "address"
        },
        {
          "indexed": false,
          "internalType": "address",
          "name": "beneficiary",
          "type": "address"
        },
        {
          "indexed": false,
          "internalType": "uint256",
          "name": "timestamp",
          "type": "uint256"
        }
      ],
      "name": "RejectCSR",
      "type": "event"
    },
    {
      "anonymous": false,
      "inputs": [
        {
          "indexed": false,
          "internalType": "uint256",
          "name": "id",
          "type": "uint256"
        },
        {
          "indexed": false,
          "internalType": "address",
          "name": "assessor",
          "type": "address"
        },
        {
          "indexed": false,
          "internalType": "bytes32",
          "name": "evidence",
          "type": "bytes32"
        },
        {
          "indexed": false,
          "internalType": "uint256",
          "name": "timestamp",
          "type": "uint256"
        }
      ],
      "name": "SubmitEvidenceCSR",
      "type": "event"
    },
    {
      "inputs": [],
      "name": "MEMBERSHIP_DURATION",
      "outputs": [
        {
          "internalType": "uint256",
          "name": "",
          "type": "uint256"
        }
      ],
      "stateMutability": "view",
      "type": "function"
    },
    {
      "inputs": [],
      "name": "PERIOD",
      "outputs": [
        {
          "internalType": "uint256",
          "name": "",
          "type": "uint256"
        }
      ],
      "stateMutability": "view",
      "type": "function"
    },
    {
      "inputs": [
        {
          "internalType": "uint256",
          "name": "tokenMinimum",
          "type": "uint256"
        }
      ],
      "name": "addStakingReward",
      "outputs": [],
      "stateMutability": "payable",
      "type": "function"
    },
    {
      "inputs": [
        {
          "internalType": "uint256",
          "name": "",
          "type": "uint256"
        }
      ],
      "name": "approvedCsrTypes",
      "outputs": [
        {
          "internalType": "bool",
          "name": "",
          "type": "bool"
        }
      ],
      "stateMutability": "view",
      "type": "function"
    },
    {
      "inputs": [
        {
          "internalType": "uint256",
          "name": "",
          "type": "uint256"
        }
      ],
      "name": "assessors",
      "outputs": [
        {
          "internalType": "address",
          "name": "",
          "type": "address"
        }
      ],
      "stateMutability": "view",
      "type": "function"
    },
    {
      "inputs": [
        {
          "internalType": "uint256",
          "name": "",
          "type": "uint256"
        }
      ],
      "name": "costShareRequests",
      "outputs": [
        {
          "internalType": "address",
          "name": "initiator",
          "type": "address"
        },
        {
          "internalType": "uint256",
          "name": "ethAmount",
          "type": "uint256"
        },
        {
          "internalType": "uint256",
          "name": "fsdBounty",
          "type": "uint256"
        },
        {
          "internalType": "uint128",
          "name": "creation",
          "type": "uint128"
        },
        {
          "internalType": "uint128",
          "name": "votingOpen",
          "type": "uint128"
        },
        {
          "internalType": "bytes32",
          "name": "evidence",
          "type": "bytes32"
        },
        {
          "internalType": "uint256",
          "name": "stableAmount",
          "type": "uint256"
        },
        {
          "internalType": "uint256",
          "name": "csrType",
          "type": "uint256"
        }
      ],
      "stateMutability": "view",
      "type": "function"
    },
    {
      "inputs": [],
      "name": "getAdoptionStats",
      "outputs": [
        {
          "internalType": "uint256",
          "name": "",
          "type": "uint256"
        },
        {
          "internalType": "uint256",
          "name": "",
          "type": "uint256"
        }
      ],
      "stateMutability": "view",
      "type": "function"
    },
    {
      "inputs": [],
      "name": "getEtherPrice",
      "outputs": [
        {
          "internalType": "uint256",
          "name": "",
          "type": "uint256"
        }
      ],
      "stateMutability": "view",
      "type": "function"
    },
    {
      "inputs": [],
      "name": "getFSDPrice",
      "outputs": [
        {
          "internalType": "uint256",
          "name": "",
          "type": "uint256"
        }
      ],
      "stateMutability": "view",
      "type": "function"
    },
    {
      "inputs": [
        {
          "internalType": "address",
          "name": "",
          "type": "address"
        }
      ],
      "name": "membership",
      "outputs": [
        {
          "internalType": "uint256",
          "name": "availableCostShareBenefits",
          "type": "uint256"
        },
        {
          "internalType": "uint256",
          "name": "openCostShareBenefits",
          "type": "uint256"
        },
        {
          "internalType": "uint256",
          "name": "creation",
          "type": "uint256"
        },
        {
          "internalType": "uint256",
          "name": "gracePeriod",
          "type": "uint256"
        }
      ],
      "stateMutability": "view",
      "type": "function"
    },
    {
      "inputs": [],
      "name": "membershipFee",
      "outputs": [
        {
          "internalType": "uint256",
          "name": "",
          "type": "uint256"
        }
      ],
      "stateMutability": "view",
      "type": "function"
    },
    {
      "inputs": [
        {
          "internalType": "uint256",
          "name": "ethAmount",
          "type": "uint256"
        },
        {
          "internalType": "bool",
          "name": "inStable",
          "type": "bool"
        },
        {
          "internalType": "uint256",
          "name": "_csrType",
          "type": "uint256"
        }
      ],
      "name": "openCostShareRequest",
      "outputs": [],
      "stateMutability": "nonpayable",
      "type": "function"
    },
    {
      "inputs": [
        {
          "internalType": "uint256",
          "name": "costShareBenefit",
          "type": "uint256"
        }
      ],
      "name": "purchaseMembership",
      "outputs": [],
      "stateMutability": "nonpayable",
      "type": "function"
    },
    {
      "inputs": [],
      "name": "purchaseMembershipETH",
      "outputs": [],
      "stateMutability": "payable",
      "type": "function"
    },
    {
      "inputs": [
        {
          "internalType": "address[3]",
          "name": "_assessors",
          "type": "address[3]"
        }
      ],
      "name": "setAssessors",
      "outputs": [],
      "stateMutability": "nonpayable",
      "type": "function"
    },
    {
      "inputs": [
        {
          "internalType": "uint256",
          "name": "_csrType",
          "type": "uint256"
        },
        {
          "internalType": "bool",
          "name": "_isApproved",
          "type": "bool"
        }
      ],
      "name": "setCsrTypes",
      "outputs": [],
      "stateMutability": "nonpayable",
      "type": "function"
    },
    {
      "inputs": [
        {
          "internalType": "uint256",
          "name": "_gearingFactor",
          "type": "uint256"
        }
      ],
      "name": "setGearingFactor",
      "outputs": [],
      "stateMutability": "nonpayable",
      "type": "function"
    },
    {
      "inputs": [
        {
          "internalType": "uint256",
          "name": "_membershipFee",
          "type": "uint256"
        }
      ],
      "name": "setMembershipFee",
      "outputs": [],
      "stateMutability": "nonpayable",
      "type": "function"
    },
    {
      "inputs": [
        {
          "internalType": "address[2]",
          "name": "_wallets",
          "type": "address[2]"
        }
      ],
      "name": "setMembershipWallets",
      "outputs": [],
      "stateMutability": "nonpayable",
      "type": "function"
    },
    {
      "inputs": [
        {
          "internalType": "uint256",
          "name": "_slippageTolerance",
          "type": "uint256"
        }
      ],
      "name": "setSlippageTolerance",
      "outputs": [],
      "stateMutability": "nonpayable",
      "type": "function"
    },
    {
      "inputs": [],
      "name": "slippageTolerance",
      "outputs": [
        {
          "internalType": "uint256",
          "name": "",
          "type": "uint256"
        }
      ],
      "stateMutability": "view",
      "type": "function"
    },
    {
      "inputs": [],
      "name": "totalCostShareBenefits",
      "outputs": [
        {
          "internalType": "uint256",
          "name": "",
          "type": "uint256"
        }
      ],
      "stateMutability": "view",
      "type": "function"
    },
    {
      "inputs": [],
      "name": "totalOpenRequests",
      "outputs": [
        {
          "internalType": "uint256",
          "name": "",
          "type": "uint256"
        }
      ],
      "stateMutability": "view",
      "type": "function"
    },
    {
      "inputs": [
        {
          "internalType": "uint256",
          "name": "id",
          "type": "uint256"
        },
        {
          "internalType": "enum FSDNetwork.Action",
          "name": "action",
          "type": "uint8"
        },
        {
          "internalType": "bytes",
          "name": "data",
          "type": "bytes"
        },
        {
          "internalType": "bytes",
          "name": "sig",
          "type": "bytes"
        }
      ],
      "name": "updateCostShareRequest",
      "outputs": [],
      "stateMutability": "nonpayable",
      "type": "function"
    }
  ],
  "bytecode": "0x6101c06040526005600855668e1bc9bf0400006009553480156200002257600080fd5b5060405162003f8c38038062003f8c833981810160405260a08110156200004857600080fd5b508051602080830151604080850151606086015160809096015182518084018452600a8152694653444e6574776f726b60b01b818701908152845180860186526006815265076312e302e360d41b97810197909752815190209351969794969295919390927f15124d26d1272f8d4d5266a24ca397811f414b8cd05a53b26b745f63af5ae2fc9060009080605262003f3a823960405190819003605201902060c085905260e084905291506200010890506001600160e01b036200016816565b60a052620001218184846001600160e01b036200016c16565b608052610100525050506001600160601b0319606096871b81166101205294861b8516610140525091841b831661016052831b82166101805290911b166101a052620001cd565b4690565b6000838383620001846001600160e01b036200016816565b6040805160208082019690965280820194909452606084019290925260808301523060a0808401919091528151808403909101815260c090920190528051910120949350505050565b60805160a05160c05160e051610100516101205160601c6101405160601c6101605160601c6101805160601c6101a05160601c613c56620002e46000398061273a525080610b0d528061197852806123a45280612708525080610b8f528061193752508061137c528061183d528061186e52806118b452806118ee5250806106c9528061078e5280610c155280610c925280610cc45280610e465280610f18528061103f52806111e95280611222528061125152806112cf528061135852806114a9528061157b528061166252806121f052806123445280612381528061242752806125595280612afa5280612b71525080612fd1525080613013525080612ff2525080612f78525080612fa85250613c566000f3fe60806040526004361061014b5760003560e01c806399456ff6116100b6578063c60b2f821161006f578063c60b2f8214610534578063c713a2891461055e578063c858b92714610573578063c9d13291146105ab578063ca7c4dba146105d5578063d03153aa146105ea5761014b565b806399456ff6146103b45780639bed6656146103bc578063b4d1d795146103ee578063bcdd2ff314610403578063bd8db9d414610418578063bdc92a11146104565761014b565b80637f09d4d8116101085780637f09d4d8146102ec5780638269a8651461031557806383565dd7146103435780638ef86b611461036057806394a3937b1461037557806395a922211461038a5761014b565b80630fb2842a14610150578063117da1ee1461019657806328bf20b8146101c25780634d0f39c61461024357806370ab3df71461026a578063772ccf5d14610293575b600080fd5b34801561015c57600080fd5b5061017a6004803603602081101561017357600080fd5b50356105ff565b604080516001600160a01b039092168252519081900360200190f35b3480156101a257600080fd5b506101c0600480360360208110156101b957600080fd5b503561061c565b005b3480156101ce57600080fd5b506101ec600480360360208110156101e557600080fd5b5035610669565b604080516001600160a01b0390991689526020890197909752878701959095526001600160801b03938416606088015291909216608086015260a085019190915260c084015260e083015251908190036101000190f35b34801561024f57600080fd5b506102586106c4565b60408051918252519081900360200190f35b34801561027657600080fd5b506101c06004803603604081101561028d57600080fd5b506108a5565b34801561029f57600080fd5b506102c6600480360360208110156102b657600080fd5b50356001600160a01b0316610adb565b604080519485526020850193909352838301919091526060830152519081900360800190f35b3480156102f857600080fd5b506101c06004803603606081101561030f57600080fd5b50610b02565b34801561032157600080fd5b5061032a610b7a565b6040805192835260208301919091528051918290030190f35b6101c06004803603602081101561035957600080fd5b5035610b84565b34801561036c57600080fd5b50610258610d44565b34801561038157600080fd5b50610258610d4a565b34801561039657600080fd5b506101c0600480360360208110156103ad57600080fd5b5035610d52565b6101c06113b4565b3480156103c857600080fd5b506101c0600480360360408110156103df57600080fd5b5080359060200135151561196d565b3480156103fa57600080fd5b506102586119f4565b34801561040f57600080fd5b506102586119fa565b34801561042457600080fd5b506104426004803603602081101561043b57600080fd5b5035611a00565b604080519115158252519081900360200190f35b34801561046257600080fd5b506101c06004803603608081101561047957600080fd5b81359160ff602082013516918101906060810160408201356401000000008111156104a357600080fd5b8201836020820111156104b557600080fd5b803590602001918460018302840111640100000000831117156104d757600080fd5b9193909290916020810190356401000000008111156104f557600080fd5b82018360208201111561050757600080fd5b8035906020019184600183028401116401000000008311171561052957600080fd5b509092509050611a15565b34801561054057600080fd5b506101c06004803603602081101561055757600080fd5b5035611e8d565b34801561056a57600080fd5b50610258611e9a565b34801561057f57600080fd5b506101c06004803603606081101561059657600080fd5b50803590602081013515159060400135611ea0565b3480156105b757600080fd5b506101c0600480360360208110156105ce57600080fd5b50356123dc565b3480156105e157600080fd5b506102586125bd565b3480156105f657600080fd5b506102586126f7565b6002816003811061060c57fe5b01546001600160a01b0316905081565b6106246126fd565b60648111156106645760405162461bcd60e51b815260040180806020018281038252603e81526020018061382b603e913960400191505060405180910390fd5b600855565b600160208190526000918252604090912080549181015460028201546003830154600484015460058501546006909501546001600160a01b0390961695939492936001600160801b0380841694600160801b90940416929088565b6000807f00000000000000000000000000000000000000000000000000000000000000006001600160a01b031663a8a41a686040518163ffffffff1660e01b815260040160206040518083038186803b15801561072057600080fd5b505afa158015610734573d6000803e3d6000fd5b505050506040513d602081101561074a57600080fd5b505160065461076090606463ffffffff61279916565b8161076757fe5b04905068d8d726b7177a800000811015610787575068d8d726b7177a8000005b60006007547f00000000000000000000000000000000000000000000000000000000000000006001600160a01b031663cb765c1d6040518163ffffffff1660e01b815260040160206040518083038186803b1580156107e557600080fd5b505afa1580156107f9573d6000803e3d6000fd5b505050506040513d602081101561080f57600080fd5b5051604080516309e8d51760e11b8152929091036004830181905260248301859052905190925073__$13ce3d7753c1832512eb55191c3214b0b3$__916313d1aa2e916044808301926020929190829003018186803b15801561087157600080fd5b505af4158015610885573d6000803e3d6000fd5b505050506040513d602081101561089b57600080fd5b5051925050505b90565b6108ad613418565b3360009081526020818152604091829020825160a0810184528154815260018201549281019290925260028082015483850152600382015460608401528351808501948590529293919260808501929091600485019182845b81546001600160a01b0316815260019091019060200180831161090657505050505081525050905042816060015110156109715760405162461bcd60e51b8152600401808060200182810382526034815260200180613b576034913960400191505060405180910390fd5b6001600160a01b038235161580159061099657506001600160a01b0360208301351615155b6109d15760405162461bcd60e51b8152600401808060200182810382526033815260200180613a656033913960400191505060405180910390fd5b6001600160a01b0382351633148015906109f857506001600160a01b036020830135163314155b8015610a17575081356001600160a01b03908116602084013590911614155b610a525760405162461bcd60e51b815260040180806020018281038252603681526020018061360d6036913960400191505060405180910390fd5b6080810151516001600160a01b0316158015610a7d57506080810151602001516001600160a01b0316155b610ab85760405162461bcd60e51b81526004018080602001828103825260548152602001806135b96054913960600191505060405180910390fd5b336000908152602081905260409020610ad69060040183600261344c565b505050565b60006020819052908152604090208054600182015460028301546003909301549192909184565b336001600160a01b037f00000000000000000000000000000000000000000000000000000000000000001614610b695760405162461bcd60e51b81526004018080602001828103825260318152602001806139b56031913960400191505060405180910390fd5b610b7660028260036134a2565b5050565b6007546006549091565b336001600160a01b037f00000000000000000000000000000000000000000000000000000000000000001614610beb5760405162461bcd60e51b8152600401808060200182810382526035815260200180613bec6035913960400191505060405180910390fd5b604080516340c10f1960e01b81523060048201526024810183905290516000916001600160a01b037f000000000000000000000000000000000000000000000000000000000000000016916340c10f19913491604480830192602092919082900301818588803b158015610c5e57600080fd5b505af1158015610c72573d6000803e3d6000fd5b50505050506040513d6020811015610c8957600080fd5b50519050610cc27f00000000000000000000000000000000000000000000000000000000000000006001600160a01b0381169083612802565b7f00000000000000000000000000000000000000000000000000000000000000006001600160a01b0316639fbe121e826040518263ffffffff1660e01b815260040180828152602001915050600060405180830381600087803b158015610d2857600080fd5b505af1158015610d3c573d6000803e3d6000fd5b505050505050565b60065481565b6303c2670081565b670de0b6b3a76400008106158015610d6a5750600081115b610da55760405162461bcd60e51b81526004018080602001828103825260448152602001806136436044913960600191505060405180910390fd5b3360009081526020819052604090206003810154421115610dcc5760006002820181905581555b8054600090610de1908463ffffffff61285416565b9050610deb6128a3565b811115610e295760405162461bcd60e51b815260040180806020018281038252604c815260200180613917604c913960600191505060405180910390fd5b600654610e3c908463ffffffff61285416565b60068190555060007f00000000000000000000000000000000000000000000000000000000000000006001600160a01b031663a8a41a686040518163ffffffff1660e01b815260040160206040518083038186803b158015610e9d57600080fd5b505afa158015610eb1573d6000803e3d6000fd5b505050506040513d6020811015610ec757600080fd5b5051600654610edd90606463ffffffff61279916565b81610ee457fe5b04905068d8d726b7177a800000811015610f04575068d8d726b7177a8000005b600081610fa8670de0b6b3a76400006007547f00000000000000000000000000000000000000000000000000000000000000006001600160a01b031663cb765c1d6040518163ffffffff1660e01b815260040160206040518083038186803b158015610f6f57600080fd5b505afa158015610f83573d6000803e3d6000fd5b505050506040513d6020811015610f9957600080fd5b5051039063ffffffff61279916565b81610faf57fe5b049050670de0b6b3a7640000811015610ff95760405162461bcd60e51b8152600401808060200182810382526048815260200180613ad46048913960600191505060405180910390fd5b6000611010600954876128b090919063ffffffff16565b9050600061101c6106c4565b90506000611030838363ffffffff6128e916565b905061106d6001600160a01b037f00000000000000000000000000000000000000000000000000000000000000001633308463ffffffff61290916565b60028701546110a1574260028089019190915533600090815260208190526040902001546304118100016003880155611127565b60006303c2670088600201544203670de0b6b3a764000002816110c057fe5b049050670de0b6b3a7640000811015611125576000670de0b6b3a764000061110d6303c267008c8b036110f98e8563ffffffff61279916565b8161110057fe5b049063ffffffff61279916565b8161111457fe5b60038b018054929091049091019055505b505b85875560408051338152602081018a905280820185905290517f63703fe8c055af0057bbd0b7ef1a086cbce4d97cc563a6df73ed75dbacd053d79181900360600190a160006111848267010a741a4627800063ffffffff6128b016565b90506000671158e460913d00008610156111a6576702c68af0bb1400006111b3565b670e92596fd628ffff1986015b9050670bcbce7f1b1500008111156111d05750670bcbce7f1b1500005b60006111e2848363ffffffff6128b016565b905061124f7f0000000000000000000000000000000000000000000000000000000000000000611218838663ffffffff61285416565b6001600160a01b037f000000000000000000000000000000000000000000000000000000000000000016919063ffffffff61280216565b7f00000000000000000000000000000000000000000000000000000000000000006001600160a01b0316639fbe121e826040518263ffffffff1660e01b815260040180828152602001915050600060405180830381600087803b1580156112b557600080fd5b505af11580156112c9573d6000803e3d6000fd5b505050507f00000000000000000000000000000000000000000000000000000000000000006001600160a01b031663b63c9d29846040518263ffffffff1660e01b815260040180828152602001915050600060405180830381600087803b15801561133357600080fd5b505af1158015611347573d6000803e3d6000fd5b506113a79250506001600160a01b037f00000000000000000000000000000000000000000000000000000000000000001690507f00000000000000000000000000000000000000000000000000000000000000008563ffffffff61280216565b5050505050505050505050565b34670de0b6b3a764000081061580156113cd5750600081115b6114085760405162461bcd60e51b81526004018080602001828103825260478152602001806136876047913960600191505060405180910390fd5b336000908152602081905260409020600381015442111561142f5760006002820181905581555b8054600090611444908463ffffffff61285416565b905061144e6128a3565b81111561148c5760405162461bcd60e51b815260040180806020018281038252604f8152602001806136ce604f913960600191505060405180910390fd5b60065461149f908463ffffffff61285416565b60068190555060007f00000000000000000000000000000000000000000000000000000000000000006001600160a01b031663a8a41a686040518163ffffffff1660e01b815260040160206040518083038186803b15801561150057600080fd5b505afa158015611514573d6000803e3d6000fd5b505050506040513d602081101561152a57600080fd5b505160065461154090606463ffffffff61279916565b8161154757fe5b04905068d8d726b7177a800000811015611567575068d8d726b7177a8000005b6000816115d2670de0b6b3a76400006007547f00000000000000000000000000000000000000000000000000000000000000006001600160a01b031663cb765c1d6040518163ffffffff1660e01b815260040160206040518083038186803b158015610f6f57600080fd5b816115d957fe5b049050670de0b6b3a76400008110156116235760405162461bcd60e51b815260040180806020018281038252604b81526020018061356e604b913960600191505060405180910390fd5b600061163a600954876128b090919063ffffffff16565b905060006116566116496106c4565b839063ffffffff6128e916565b90506001600160a01b037f0000000000000000000000000000000000000000000000000000000000000000166340c10f1961169f84670905438e6001000063ffffffff6128b016565b306116b885670853a0d2313c000063ffffffff6128b016565b6040518463ffffffff1660e01b815260040180836001600160a01b03166001600160a01b03168152602001828152602001925050506020604051808303818588803b15801561170657600080fd5b505af115801561171a573d6000803e3d6000fd5b50505050506040513d602081101561173157600080fd5b505060028601546117675742600280880191909155336000908152602081905260409020015463041181000160038701556117d2565b670de0b6b3a76400006303c2670087600201544203670de0b6b3a7640000028161178d57fe5b0410156117d2576000670de0b6b3a76400006117ba6303c267008a89036110f98c8563ffffffff61279916565b816117c157fe5b600389018054929091049091019055505b848655604080513381526020810189905280820184905290517f63703fe8c055af0057bbd0b7ef1a086cbce4d97cc563a6df73ed75dbacd053d79181900360600190a1600061182f8867010a741a4627800063ffffffff6128b016565b9050681b1ae4d6e2ef5000007f00000000000000000000000000000000000000000000000000000000000000006001600160a01b031631101561191a577f00000000000000000000000000000000000000000000000000000000000000006001600160a01b031631681b1ae4d6e2ef500000038111156118e157506001600160a01b037f00000000000000000000000000000000000000000000000000000000000000001631681b1ae4d6e2ef500000035b61191a6001600160a01b037f0000000000000000000000000000000000000000000000000000000000000000168263ffffffff61296916565b61196361192d898363ffffffff612a4e16565b6001600160a01b037f0000000000000000000000000000000000000000000000000000000000000000169063ffffffff61296916565b5050505050505050565b336001600160a01b037f000000000000000000000000000000000000000000000000000000000000000016146119d45760405162461bcd60e51b81526004018080602001828103825260318152602001806138b36031913960400191505060405180910390fd5b6000918252600a6020526040909120805460ff1916911515919091179055565b610e1081565b60075481565b600a6020526000908152604090205460ff1681565b611a1d6134e7565b50600086815260016020818152604080842081516101008101835281546001600160a01b03168152938101549284019290925260028201549083015260038101546001600160801b038082166060850152600160801b909104166080830152600481015460a0830152600581015460c08301526006015460e082015290866004811115611aa657fe5b1415611b7c5742816060015162093a80016001600160801b031611158015611ad9575060808101516001600160801b0316155b611b145760405162461bcd60e51b815260040180806020018281038252603c815260200180613a98603c913960400191505060405180910390fd5b611b2e87826000015183602001518460c001516000612a9e565b8051604080518981526001600160a01b0390921660208301524282820152517f68234135d3d5171692150d0e68917433a53804c1d673678c5af7b5da77e9c4ae9181900360600190a1611e84565b6001866004811115611b8a57fe5b1480611ba157506004866004811115611b9f57fe5b145b15611d0c57611be983838080601f0160208091040260200160405190810160405280939291908181526020018383808284376000920191909152508b92508a9150612c8e9050565b611c245760405162461bcd60e51b815260040180806020018281038252603b815260200180613b1c603b913960400191505060405180910390fd5b60008781526001602081905260409091206003810180546001600160801b03428116600160801b02911617905590876004811115611c5e57fe5b1415611cc75785856020811015611c7457600080fd5b503560048201819055604080518a815233602082015280820192909252426060830152517f579f3dee9ea444bbe8eb3928133f583b41dd15960b84eb44d2add7fb818091d79181900360800190a1611d06565b60408051898152336020820152428183015290517f0fed6b3d622fa50588e9289b6e6ac09634d0fe8ce2826225962a652dd38f1e309181900360600190a15b50611e84565b611d4f83838080601f0160208091040260200160405190810160405280939291908181526020018383808284376000920191909152508b92508a9150612c8e9050565b611d8a5760405162461bcd60e51b815260040180806020018281038252603b815260200180613b1c603b913960400191505060405180910390fd5b6002866004811115611d9857fe5b1415611e1a57611db887826000015183602001518460c001516001612a9e565b8051602080830151604080518b815233938101939093526001600160a01b0390931682840152606082015242608082015290517f305dcbfaea1be15fe7f4cff2e013a881101742258740c48958b7108a1f99db509181900360a00190a1611e84565b611e3487826000015183602001518460c001516000612a9e565b8051604080518981523360208201526001600160a01b0390921682820152426060830152517fe5e2387ac68ce3aa81309558b76b4ed0a2536d3276f4724a7bb937add37e9e0d9181900360800190a15b50505050505050565b611e956126fd565b600955565b60095481565b611ea8613418565b3360009081526020818152604091829020825160a0810184528154815260018201549281019290925260028082015483850152600382015460608401528351808501948590529293919260808501929091600485019182845b81546001600160a01b03168152600190910190602001808311611f015750505050508152505090506000611f46670c7d713b49da0000866128b090919063ffffffff16565b9050428260400151620151800111158015611f65575042826060015110155b611fa05760405162461bcd60e51b815260040180806020018281038252603f815260200180613760603f913960400191505060405180910390fd5b6020820151825103811115611fe65760405162461bcd60e51b8152600401808060200182810382526054815260200180613a116054913960600191505060405180910390fd5b6000838152600a602052604090205460ff166120335760405162461bcd60e51b815260040180806020018281038252604381526020018061371d6043913960600191505060405180910390fd5b600061203d6106c4565b9050600061207082612064600a6009548161205457fe5b885191900463ffffffff6128b016565b9063ffffffff6128e916565b9050600060056000815480929190600101919050559050604051806101000160405280336001600160a01b03168152602001858152602001838152602001426001600160801b0316815260200160006001600160801b031681526020016000801b815260200160008152602001878152506001600083815260200190815260200160002060008201518160000160006101000a8154816001600160a01b0302191690836001600160a01b03160217905550602082015181600101556040820151816002015560608201518160030160006101000a8154816001600160801b0302191690836001600160801b0316021790555060808201518160030160106101000a8154816001600160801b0302191690836001600160801b0316021790555060a0820151816004015560c0820151816005015560e082015181600601559050506121c784866020015161285490919063ffffffff16565b3360009081526020819052604090206001015586156122d05760006121ea6125bd565b905060007f00000000000000000000000000000000000000000000000000000000000000006001600160a01b031663f3b6e58e876064612245600854606403670de0b6b3a76400006110f9898e61279990919063ffffffff16565b8161224c57fe5b046040518363ffffffff1660e01b81526004018083815260200182815260200192505050602060405180830381600087803b15801561228a57600080fd5b505af115801561229e573d6000803e3d6000fd5b505050506040513d60208110156122b457600080fd5b5051600084815260016020526040902060050155506122e79050565b6007546122e3908563ffffffff61285416565b6007555b604080518281523360208201528082018690528815156060820152608081018890524260a082015290517fcf161265660c2e2547416c0df42c29e3e02e6ce4403f6ba1d00699aeaf169cfb9181900360c00190a1600282046123747f00000000000000000000000000000000000000000000000000000000000000006001600160a01b0316333084612909565b6123d16001600160a01b037f000000000000000000000000000000000000000000000000000000000000000016337f000000000000000000000000000000000000000000000000000000000000000084870363ffffffff61290916565b505050505050505050565b6123e46126fd565b600081116124235760405162461bcd60e51b8152600401808060200182810382526037815260200180613bb56037913960400191505060405180910390fd5b60007f00000000000000000000000000000000000000000000000000000000000000006001600160a01b031663a8a41a686040518163ffffffff1660e01b815260040160206040518083038186803b15801561247e57600080fd5b505afa158015612492573d6000803e3d6000fd5b505050506040513d60208110156124a857600080fd5b50519050808210156125085760196124c6828463ffffffff612a4e16565b11156125035760405162461bcd60e51b815260040180806020018281038252602b8152602001806139e6602b913960400191505060405180910390fd5b612557565b601961251a838363ffffffff612a4e16565b11156125575760405162461bcd60e51b815260040180806020018281038252602b8152602001806139e6602b913960400191505060405180910390fd5b7f00000000000000000000000000000000000000000000000000000000000000006001600160a01b031663c9d13291836040518263ffffffff1660e01b815260040180828152602001915050600060405180830381600087803b158015610d2857600080fd5b600080600080735f4ec3df9cbd43714fe2740f5e3616155c5b84196001600160a01b031663feaf968c6040518163ffffffff1660e01b815260040160a06040518083038186803b15801561261057600080fd5b505afa158015612624573d6000803e3d6000fd5b505050506040513d60a081101561263a57600080fd5b5080516020820151608090920151909450909250905069ffffffffffffffffffff808416908216101561269e5760405162461bcd60e51b815260040180806020018281038252603081526020018061379f6030913960400191505060405180910390fd5b816126da5760405162461bcd60e51b81526004018080602001828103825260308152602001806139856030913960400191505060405180910390fd5b6126ef826402540be40063ffffffff61279916565b935050505090565b60085481565b336001600160a01b037f000000000000000000000000000000000000000000000000000000000000000016148061275c5750336001600160a01b037f000000000000000000000000000000000000000000000000000000000000000016145b6127975760405162461bcd60e51b815260040180806020018281038252602481526020018061388f6024913960400191505060405180910390fd5b565b60008115806127b4575050808202828282816127b157fe5b04145b6127fc576040805162461bcd60e51b815260206004820152601460248201527364732d6d6174682d6d756c2d6f766572666c6f7760601b604482015290519081900360640190fd5b92915050565b604080516001600160a01b038416602482015260448082018490528251808303909101815260649091019091526020810180516001600160e01b031663a9059cbb60e01b179052610ad6908490612de0565b808201828110156127fc576040805162461bcd60e51b815260206004820152601460248201527364732d6d6174682d6164642d6f766572666c6f7760601b604482015290519081900360640190fd5b68056bc75e2d6310000090565b6000670de0b6b3a76400006128da6128c88585612799565b6002670de0b6b3a76400005b04612854565b816128e157fe5b049392505050565b6000816128da61290185670de0b6b3a7640000612799565b6002856128d4565b604080516001600160a01b0380861660248301528416604482015260648082018490528251808303909101815260849091019091526020810180516001600160e01b03166323b872dd60e01b179052612963908590612de0565b50505050565b804710156129be576040805162461bcd60e51b815260206004820152601d60248201527f416464726573733a20696e73756666696369656e742062616c616e6365000000604482015290519081900360640190fd5b6040516000906001600160a01b0384169083908381818185875af1925050503d8060008114612a09576040519150601f19603f3d011682016040523d82523d6000602084013e612a0e565b606091505b5050905080610ad65760405162461bcd60e51b815260040180806020018281038252603a8152602001806137cf603a913960400191505060405180910390fd5b808203828111156127fc576040805162461bcd60e51b815260206004820152601560248201527464732d6d6174682d7375622d756e646572666c6f7760581b604482015290519081900360640190fd5b81612aad576007805484900390555b8015612b5d576001600160a01b03808516600081815260208190526040808220805488900390558051632bb91ddd60e11b81526004810193909352602483018790528515156044840152517f0000000000000000000000000000000000000000000000000000000000000000909316926357723bba92606480820193929182900301818387803b158015612b4057600080fd5b505af1158015612b54573d6000803e3d6000fd5b50505050612c25565b8115612c25576000612b6d6125bd565b90507f00000000000000000000000000000000000000000000000000000000000000006001600160a01b031663cc0e59ea846064612bc6600854606403866110f9670de0b6b3a76400008b61279990919063ffffffff16565b81612bcd57fe5b046040518363ffffffff1660e01b81526004018083815260200182815260200192505050600060405180830381600087803b158015612c0b57600080fd5b505af1158015612c1f573d6000803e3d6000fd5b50505050505b50506001600160a01b03909116600090815260208181526040808320600190810180549590950390945593825282905291822080546001600160a01b03191681559081018290556002810182905560038101829055600481018290556005810182905560060155565b600080612d1360405180807f416374696f6e2875696e743235362069642c2075696e743820616374696f6e2981525060200190506040518091039020858560405160200180848152602001838152602001826004811115612ceb57fe5b60ff168152602001935050505060405160208183030381529060405280519060200120612e91565b90506000612d218287612edd565b90506003600080805b83811015612d895760028160038110612d3f57fe5b01546001600160a01b0316331415612d5a5760019250612d81565b60028160038110612d6757fe5b01546001600160a01b0386811691161415612d8157600191505b600101612d2a565b50818015612d945750805b612dcf5760405162461bcd60e51b81526004018080602001828103825260338152602001806138e46033913960400191505060405180910390fd5b6001955050505050505b9392505050565b6060612e35826040518060400160405280602081526020017f5361666545524332303a206c6f772d6c6576656c2063616c6c206661696c6564815250856001600160a01b0316612f5d9092919063ffffffff16565b805190915015610ad657808060200190516020811015612e5457600080fd5b5051610ad65760405162461bcd60e51b815260040180806020018281038252602a815260200180613b8b602a913960400191505060405180910390fd5b6000612e9b612f74565b82604051602001808061190160f01b81525060020183815260200182815260200192505050604051602081830303815290604052805190602001209050919050565b60008151604114612f35576040805162461bcd60e51b815260206004820152601f60248201527f45434453413a20696e76616c6964207369676e6174757265206c656e67746800604482015290519081900360640190fd5b60208201516040830151606084015160001a612f538682858561303e565b9695505050505050565b6060612f6c84846000856131b8565b949350505050565b60007f0000000000000000000000000000000000000000000000000000000000000000612f9f613314565b1415612fcc57507f00000000000000000000000000000000000000000000000000000000000000006108a2565b6130377f00000000000000000000000000000000000000000000000000000000000000007f00000000000000000000000000000000000000000000000000000000000000007f0000000000000000000000000000000000000000000000000000000000000000613318565b90506108a2565b60007f7fffffffffffffffffffffffffffffff5d576e7357a4501ddfe92f46681b20a082111561309f5760405162461bcd60e51b81526004018080602001828103825260228152602001806138096022913960400191505060405180910390fd5b8360ff16601b14806130b457508360ff16601c145b6130ef5760405162461bcd60e51b81526004018080602001828103825260228152602001806139636022913960400191505060405180910390fd5b604080516000808252602080830180855289905260ff88168385015260608301879052608083018690529251909260019260a080820193601f1981019281900390910190855afa158015613147573d6000803e3d6000fd5b5050604051601f1901519150506001600160a01b0381166131af576040805162461bcd60e51b815260206004820152601860248201527f45434453413a20696e76616c6964207369676e61747572650000000000000000604482015290519081900360640190fd5b95945050505050565b6060824710156131f95760405162461bcd60e51b81526004018080602001828103825260268152602001806138696026913960400191505060405180910390fd5b6132028561336e565b613253576040805162461bcd60e51b815260206004820152601d60248201527f416464726573733a2063616c6c20746f206e6f6e2d636f6e7472616374000000604482015290519081900360640190fd5b60006060866001600160a01b031685876040518082805190602001908083835b602083106132925780518252601f199092019160209182019101613273565b6001836020036101000a03801982511681845116808217855250505050505090500191505060006040518083038185875af1925050503d80600081146132f4576040519150601f19603f3d011682016040523d82523d6000602084013e6132f9565b606091505b5091509150613309828286613374565b979650505050505050565b4690565b6000838383613325613314565b6040805160208082019690965280820194909452606084019290925260808301523060a0808401919091528151808403909101815260c090920190528051910120949350505050565b3b151590565b60608315613383575081612dd9565b8251156133935782518084602001fd5b8160405162461bcd60e51b81526004018080602001828103825283818151815260200191508051906020019080838360005b838110156133dd5781810151838201526020016133c5565b50505050905090810190601f16801561340a5780820380516001836020036101000a031916815260200191505b509250505060405180910390fd5b6040518060a001604052806000815260200160008152602001600081526020016000815260200161344761352b565b905290565b8260028101928215613492579160200282015b828111156134925781546001600160a01b0319166001600160a01b0384351617825560209092019160019091019061345f565b5061349e929150613549565b5090565b826003810192821561349257916020028201828111156134925781546001600160a01b0319166001600160a01b0384351617825560209092019160019091019061345f565b6040805161010081018252600080825260208201819052918101829052606081018290526080810182905260a0810182905260c0810182905260e081019190915290565b60405180604001604052806002906020820280368337509192915050565b6108a291905b8082111561349e5780546001600160a01b031916815560010161354f56fe4653444e6574776f726b3a3a70757263686173654d656d626572736869704554483a20496e73756666696369656e74204361706974616c20746f20436f766572204d656d626572736869704653444e6574776f726b3a3a7365744d656d6265727368697057616c6c6574733a2043616e6e6f742068617665206d6f7265207468616e2074687265652077616c6c65747320706572206d656d626572736869704653444e6574776f726b3a3a7365744d656d6265727368697057616c6c6574733a20416464726573736573204e6f7420556e697175654653444e6574776f726b3a3a70757263686173654d656d626572736869703a20496e76616c696420636f73742073686172652062656e65666974207370656369666965644653444e6574776f726b3a3a70757263686173654d656d626572736869704554483a20496e76616c696420636f73742073686172652062656e65666974207370656369666965644653444e6574776f726b3a3a70757263686173654d656d626572736869704554483a204578636565647320636f73742073686172652062656e65666974206c696d697420706572206163636f756e744653444e6574776f726b3a3a6f70656e436f73745368617265526571756573743a20436f737420726571756573742074797065206973206e6f7420617070726f7665644653444e6574776f726b3a3a6f70656e436f73745368617265526571756573743a20496e656c696769626c6520636f737420736861726520726571756573744653444e6574776f726b3a3a676574457468657250726963653a20436861696e6c696e6b205072696365205374616c65416464726573733a20756e61626c6520746f2073656e642076616c75652c20726563697069656e74206d6179206861766520726576657274656445434453413a20696e76616c6964207369676e6174757265202773272076616c75654653444e6574776f726b3a3a736574536c697070616765546f6c6572616e63653a20496e636f727265637420536c69707061676520537065636966696564416464726573733a20696e73756666696369656e742062616c616e636520666f722063616c6c4653444e6574776f726b3a3a20496e73756666696369656e742050726976696c656765734653444e6574776f726b3a3a73657444617461456e7472793a20496e73756666696369656e742050726976696c656765734653444e6574776f726b3a3a5f6973417070726f76656442794173736573736f72733a204e6f7420616e204173736573736f724653444e6574776f726b3a3a70757263686173654d656d626572736869703a204578636565647320636f73742073686172652062656e65666974206c696d697420706572206163636f756e7445434453413a20696e76616c6964207369676e6174757265202776272076616c75654653444e6574776f726b3a3a676574457468657250726963653a20436861696e6c696e6b204d616c66756e6374696f6e4653444e6574776f726b3a3a7365744173736573736f72733a20496e73756666696369656e742050726976696c656765734653444e6574776f726b3a3a73657447656172696e67466163746f723a2043616e6e6f74206368616e67654653444e6574776f726b3a3a6f70656e436f73745368617265526571756573743a20436f73742072657175657374206578636565647320617661696c61626c6520636f73742073686172652062656e65666974734653444e6574776f726b3a3a7365744d656d6265727368697057616c6c6574733a20496e76616c6964204164647265737365734653444e6574776f726b3a3a757064617465436f73745368617265526571756573743a20496e76616c696420636c61696d2065787069726174696f6e4653444e6574776f726b3a3a70757263686173654d656d626572736869703a20496e73756666696369656e74204361706974616c20746f20436f766572204d656d626572736869704653444e6574776f726b3a3a757064617465436f73745368617265526571756573743a20496e73756666696369656e742050726976696c656765734653444e6574776f726b3a3a7365744d656d6265727368697057616c6c6574733a204d656d6265727368697020657870697265645361666545524332303a204552433230206f7065726174696f6e20646964206e6f7420737563636565644653444e6574776f726b3a3a73657447656172696e67466163746f723a20496e636f72726563742056616c7565205370656369666965644653444e6574776f726b3a3a6164645374616b696e675265776172643a20496e73756666696369656e742050726976696c65676573a264697066735822122077ce59e145b08a54c00406d8ef9447bdefff28e18eaa4af35a5f871122fb292064736f6c63430006080033454950373132446f6d61696e28737472696e67206e616d652c737472696e672076657273696f6e2c75696e7432353620636861696e49642c6164647265737320766572696679696e67436f6e747261637429",
  "linkReferences": {
    "contracts/dependencies/FairSideFormula.sol": {
      "FairSideFormula": [
        {
          "length": 20,
          "start": 2844
        }
      ]
    }
  },
  "deployedLinkReferences": {
    "contracts/dependencies/FairSideFormula.sol": {
      "FairSideFormula": [
        {
          "length": 20,
          "start": 2104
        }
      ]
    }
  }
}