{
  "_format": "hh-sol-artifact-1",
  "contractName": "FSDVestingPRE",
  "sourceName": "contracts/token/FSDVestingPRE.sol",
  "abi": [
    {
      "inputs": [
        {
          "internalType": "contract IERC20ConvictionScore",
          "name": "_token",
          "type": "address"
        },
        {
          "internalType": "contract IFSDVestingFactory",
          "name": "_factory",
          "type": "address"
        },
        {
          "internalType": "address",
          "name": "_minter",
          "type": "address"
        },
        {
          "internalType": "contract IFairSideDAO",
          "name": "_dao",
          "type": "address"
        },
        {
          "internalType": "contract IERC721",
          "name": "_fairSideConviction",
          "type": "address"
        }
      ],
      "stateMutability": "nonpayable",
      "type": "constructor"
    },
    {
      "anonymous": false,
      "inputs": [
        {
          "indexed": true,
          "internalType": "address",
          "name": "beneficiary",
          "type": "address"
        },
        {
          "indexed": false,
          "internalType": "uint256",
          "name": "amount",
          "type": "uint256"
        },
        {
          "indexed": false,
          "internalType": "uint256",
          "name": "claimedAt",
          "type": "uint256"
        }
      ],
      "name": "TokensClaimed",
      "type": "event"
    },
    {
      "inputs": [],
      "name": "amount",
      "outputs": [
        {
          "internalType": "uint256",
          "name": "",
          "type": "uint256"
        }
      ],
      "stateMutability": "view",
      "type": "function"
    },
    {
      "inputs": [],
      "name": "beneficiary",
      "outputs": [
        {
          "internalType": "address",
          "name": "",
          "type": "address"
        }
      ],
      "stateMutability": "view",
      "type": "function"
    },
    {
      "inputs": [],
      "name": "calculateVestingClaim",
      "outputs": [
        {
          "internalType": "uint256",
          "name": "",
          "type": "uint256"
        }
      ],
      "stateMutability": "view",
      "type": "function"
    },
    {
      "inputs": [
        {
          "internalType": "uint256",
          "name": "proposalId",
          "type": "uint256"
        },
        {
          "internalType": "bool",
          "name": "support",
          "type": "bool"
        }
      ],
      "name": "castVote",
      "outputs": [],
      "stateMutability": "nonpayable",
      "type": "function"
    },
    {
      "inputs": [
        {
          "internalType": "uint256",
          "name": "num",
          "type": "uint256"
        }
      ],
      "name": "claimAvailableTributes",
      "outputs": [],
      "stateMutability": "nonpayable",
      "type": "function"
    },
    {
      "inputs": [],
      "name": "claimVestedTokens",
      "outputs": [],
      "stateMutability": "nonpayable",
      "type": "function"
    },
    {
      "inputs": [],
      "name": "dao",
      "outputs": [
        {
          "internalType": "contract IFairSideDAO",
          "name": "",
          "type": "address"
        }
      ],
      "stateMutability": "view",
      "type": "function"
    },
    {
      "inputs": [],
      "name": "factory",
      "outputs": [
        {
          "internalType": "contract IFSDVestingFactory",
          "name": "",
          "type": "address"
        }
      ],
      "stateMutability": "view",
      "type": "function"
    },
    {
      "inputs": [],
      "name": "fairSideConviction",
      "outputs": [
        {
          "internalType": "contract IERC721",
          "name": "",
          "type": "address"
        }
      ],
      "stateMutability": "view",
      "type": "function"
    },
    {
      "inputs": [],
      "name": "fsd",
      "outputs": [
        {
          "internalType": "contract IERC20ConvictionScore",
          "name": "",
          "type": "address"
        }
      ],
      "stateMutability": "view",
      "type": "function"
    },
    {
      "inputs": [
        {
          "internalType": "address",
          "name": "_beneficiary",
          "type": "address"
        },
        {
          "internalType": "uint256",
          "name": "_amount",
          "type": "uint256"
        }
      ],
      "name": "initiateVesting",
      "outputs": [],
      "stateMutability": "nonpayable",
      "type": "function"
    },
    {
      "inputs": [],
      "name": "lastClaimAt",
      "outputs": [
        {
          "internalType": "uint256",
          "name": "",
          "type": "uint256"
        }
      ],
      "stateMutability": "view",
      "type": "function"
    },
    {
      "inputs": [],
      "name": "minter",
      "outputs": [
        {
          "internalType": "address",
          "name": "",
          "type": "address"
        }
      ],
      "stateMutability": "view",
      "type": "function"
    },
    {
      "inputs": [
        {
          "internalType": "address[]",
          "name": "targets",
          "type": "address[]"
        },
        {
          "internalType": "uint256[]",
          "name": "values",
          "type": "uint256[]"
        },
        {
          "internalType": "string[]",
          "name": "signatures",
          "type": "string[]"
        },
        {
          "internalType": "bytes[]",
          "name": "calldatas",
          "type": "bytes[]"
        },
        {
          "internalType": "string",
          "name": "description",
          "type": "string"
        },
        {
          "internalType": "bool",
          "name": "forceOnchain",
          "type": "bool"
        }
      ],
      "name": "propose",
      "outputs": [
        {
          "internalType": "uint256",
          "name": "",
          "type": "uint256"
        }
      ],
      "stateMutability": "nonpayable",
      "type": "function"
    },
    {
      "inputs": [],
      "name": "start",
      "outputs": [
        {
          "internalType": "uint256",
          "name": "",
          "type": "uint256"
        }
      ],
      "stateMutability": "view",
      "type": "function"
    },
    {
      "inputs": [],
      "name": "totalClaimed",
      "outputs": [
        {
          "internalType": "uint256",
          "name": "",
          "type": "uint256"
        }
      ],
      "stateMutability": "view",
      "type": "function"
    },
    {
      "inputs": [],
      "name": "unclaimedTokens",
      "outputs": [
        {
          "internalType": "uint256",
          "name": "",
          "type": "uint256"
        }
      ],
      "stateMutability": "view",
      "type": "function"
    },
    {
      "inputs": [
        {
          "internalType": "uint256",
          "name": "_amount",
          "type": "uint256"
        }
      ],
      "name": "updateVestedTokens",
      "outputs": [],
      "stateMutability": "nonpayable",
      "type": "function"
    }
  ],
  "bytecode": "0x6101206040523480156200001257600080fd5b506040516200180c3803806200180c83398101604081905262000035916200006d565b6001600160601b0319606095861b811660805293851b841660a05291841b831660c052831b821660e05290911b166101005262000105565b600080600080600060a0868803121562000085578081fd5b85516200009281620000ec565b6020870151909550620000a581620000ec565b6040870151909450620000b881620000ec565b6060870151909350620000cb81620000ec565b6080870151909250620000de81620000ec565b809150509295509295909350565b6001600160a01b03811681146200010257600080fd5b50565b60805160601c60a05160601c60c05160601c60e05160601c6101005160601c6116816200018b600039806108ea528061092852508061027b52806102f95280610a0052508061020f5280610576525080610609528061095552508061034c52806103fd52806104c4528061053852806105ce52806107b3528061084952506116816000f3fe608060405234801561001057600080fd5b50600436106101165760003560e01c8063be9a6555116100a2578063d54ad2a111610071578063d54ad2a1146101c9578063e74f3fbb146101d1578063edc91a74146101d9578063f3464c51146101e1578063f682e04c146101f457610116565b8063be9a6555146101a9578063c394f6cb146101b1578063c45a0155146101b9578063cf332989146101c157610116565b80634162169f116100e95780634162169f1461016b5780634fa30aab146101735780637487d27414610186578063864756bd14610199578063aa8c217c146101a157610116565b806301f7cda61461011b578063075461721461013957806315373e3d1461014e57806338af3eed14610163575b600080fd5b610123610207565b6040516101309190611280565b60405180910390f35b61014161020d565b604051610130919061118f565b61016161015c366004611078565b610231565b005b6101416102e8565b6101416102f7565b610161610181366004611048565b61031b565b610161610194366004611048565b61056b565b6101416105cc565b6101236105f0565b6101236105f6565b6101236105fc565b610141610607565b61012361062b565b610123610730565b610161610736565b610141610926565b6101616101ef366004610f26565b61094a565b610123610202366004610f50565b6109bc565b60035481565b7f000000000000000000000000000000000000000000000000000000000000000081565b6004546001600160a01b031633146102645760405162461bcd60e51b815260040161025b9061147b565b60405180910390fd5b6040516315373e3d60e01b81526001600160a01b037f000000000000000000000000000000000000000000000000000000000000000016906315373e3d906102b290859085906004016115a8565b600060405180830381600087803b1580156102cc57600080fd5b505af11580156102e0573d6000803e3d6000fd5b505050505050565b6004546001600160a01b031681565b7f000000000000000000000000000000000000000000000000000000000000000081565b6004546001600160a01b031633146103455760405162461bcd60e51b815260040161025b9061147b565b600061048e7f00000000000000000000000000000000000000000000000000000000000000006001600160a01b03166304e29e12846040518263ffffffff1660e01b81526004016103969190611280565b60206040518083038186803b1580156103ae57600080fd5b505afa1580156103c2573d6000803e3d6000fd5b505050506040513d601f19601f820116820180604052508101906103e69190611060565b60405163136568b360e01b81526001600160a01b037f0000000000000000000000000000000000000000000000000000000000000000169063136568b390610432908790600401611280565b60206040518083038186803b15801561044a57600080fd5b505afa15801561045e573d6000803e3d6000fd5b505050506040513d601f19601f820116820180604052508101906104829190611060565b9063ffffffff610a9c16565b9050806104ad5760405162461bcd60e51b815260040161025b9061154b565b604051634fa30aab60e01b81526001600160a01b037f00000000000000000000000000000000000000000000000000000000000000001690634fa30aab906104f9908590600401611280565b600060405180830381600087803b15801561051357600080fd5b505af1158015610527573d6000803e3d6000fd5b506105679250506001600160a01b037f0000000000000000000000000000000000000000000000000000000000000000169050338363ffffffff610ac516565b5050565b336001600160a01b037f000000000000000000000000000000000000000000000000000000000000000016146105b35760405162461bcd60e51b815260040161025b906113ca565b6000546105c6908263ffffffff610a9c16565b60005550565b7f000000000000000000000000000000000000000000000000000000000000000081565b60005481565b60025481565b600154600054035b90565b7f000000000000000000000000000000000000000000000000000000000000000081565b6002546000908190610647906304a2860063ffffffff610a9c16565b42106106565750600054610716565b60025461066d906301da9c0063ffffffff610a9c16565b421061070c5760005460649061068a90600563ffffffff610b2016565b8161069157fe5b049050600062278d006012026106ea6106cb6106be62278d00600c02600254610a9c90919063ffffffff16565b429063ffffffff610b5716565b6000546106de908663ffffffff610b5716565b9063ffffffff610b2016565b816106f157fe5b049050610704828263ffffffff610a9c16565b915050610716565b6000915050610604565b60015461072a90829063ffffffff610b5716565b91505090565b60015481565b6004546001600160a01b031633146107605760405162461bcd60e51b815260040161025b9061147b565b600061076a61062b565b90506000811161078c5760405162461bcd60e51b815260040161025b90611427565b60015461079f908263ffffffff610a9c16565b600155426003556107e06001600160a01b037f000000000000000000000000000000000000000000000000000000000000000016338363ffffffff610ac516565b336001600160a01b03167f9923b4306c6c030f2bdfbf156517d5983b87e15b96176da122cd4f2effa4ba7b824260405161081b9291906115b8565b60405180910390a260015460005414156109235760405163051c00b360e01b81526000906001600160a01b037f0000000000000000000000000000000000000000000000000000000000000000169063051c00b39061087e908490600401611280565b602060405180830381600087803b15801561089857600080fd5b505af11580156108ac573d6000803e3d6000fd5b505050506040513d601f19601f820116820180604052508101906108d09190611060565b6040516323b872dd60e01b81529091506001600160a01b037f000000000000000000000000000000000000000000000000000000000000000016906323b872dd906102b2903090339086906004016111a3565b50565b7f000000000000000000000000000000000000000000000000000000000000000081565b336001600160a01b037f000000000000000000000000000000000000000000000000000000000000000016146109925760405162461bcd60e51b815260040161025b9061136d565b600480546001600160a01b0319166001600160a01b03939093169290921790915542600255600055565b6004546000906001600160a01b031633146109e95760405162461bcd60e51b815260040161025b9061147b565b604051633da0b81360e21b81526001600160a01b037f0000000000000000000000000000000000000000000000000000000000000000169063f682e04c90610a3f908a908a908a908a908a908a906004016111e0565b602060405180830381600087803b158015610a5957600080fd5b505af1158015610a6d573d6000803e3d6000fd5b505050506040513d601f19601f82011682018060405250810190610a919190611060565b979650505050505050565b80820182811015610abf5760405162461bcd60e51b815260040161025b906112f9565b92915050565b610b1b8363a9059cbb60e01b8484604051602401610ae49291906111c7565b60408051601f198184030181529190526020810180516001600160e01b03166001600160e01b031990931692909217909152610b7a565b505050565b6000811580610b3b57505080820282828281610b3857fe5b04145b610abf5760405162461bcd60e51b815260040161025b906112cb565b80820382811115610abf5760405162461bcd60e51b815260040161025b9061129c565b6060610bcf826040518060400160405280602081526020017f5361666545524332303a206c6f772d6c6576656c2063616c6c206661696c6564815250856001600160a01b0316610c099092919063ffffffff16565b805190915015610b1b5780806020019051810190610bed919061102c565b610b1b5760405162461bcd60e51b815260040161025b90611501565b6060610c188484600085610c22565b90505b9392505050565b606082471015610c445760405162461bcd60e51b815260040161025b90611327565b610c4d85610cd8565b610c695760405162461bcd60e51b815260040161025b906114ca565b60006060866001600160a01b03168587604051610c869190611173565b60006040518083038185875af1925050503d8060008114610cc3576040519150601f19603f3d011682016040523d82523d6000602084013e610cc8565b606091505b5091509150610a91828286610cde565b3b151590565b60608315610ced575081610c1b565b825115610cfd5782518084602001fd5b8160405162461bcd60e51b815260040161025b9190611289565b80356001600160a01b0381168114610abf57600080fd5b600082601f830112610d3e578081fd5b8135610d51610d4c826115ed565b6115c6565b818152915060208083019084810181840286018201871015610d7257600080fd5b60005b84811015610d9957610d878883610d17565b84529282019290820190600101610d75565b505050505092915050565b600082601f830112610db4578081fd5b8135610dc2610d4c826115ed565b818152915060208083019084810160005b84811015610d9957610dea888484358a0101610ebd565b84529282019290820190600101610dd3565b600082601f830112610e0c578081fd5b8135610e1a610d4c826115ed565b818152915060208083019084810160005b84811015610d9957610e42888484358a0101610ebd565b84529282019290820190600101610e2b565b600082601f830112610e64578081fd5b8135610e72610d4c826115ed565b818152915060208083019084810181840286018201871015610e9357600080fd5b60005b84811015610d9957813584529282019290820190600101610e96565b8035610abf8161163d565b600082601f830112610ecd578081fd5b813567ffffffffffffffff811115610ee3578182fd5b610ef6601f8201601f19166020016115c6565b9150808252836020828501011115610f0d57600080fd5b8060208401602084013760009082016020015292915050565b60008060408385031215610f38578182fd5b610f428484610d17565b946020939093013593505050565b60008060008060008060c08789031215610f68578182fd5b863567ffffffffffffffff80821115610f7f578384fd5b610f8b8a838b01610d2e565b97506020890135915080821115610fa0578384fd5b610fac8a838b01610e54565b96506040890135915080821115610fc1578384fd5b610fcd8a838b01610dfc565b95506060890135915080821115610fe2578384fd5b610fee8a838b01610da4565b94506080890135915080821115611003578384fd5b5061101089828a01610ebd565b9250506110208860a08901610eb2565b90509295509295509295565b60006020828403121561103d578081fd5b8151610c1b8161163d565b600060208284031215611059578081fd5b5035919050565b600060208284031215611071578081fd5b5051919050565b6000806040838503121561108a578182fd5b82359150602083013561109c8161163d565b809150509250929050565b6001600160a01b03169052565b6000815180845260208085018081965082840281019150828601855b858110156110fa5782840389526110e8848351611147565b988501989350908401906001016110d0565b5091979650505050505050565b6000815180845260208085019450808401835b838110156111365781518752958201959082019060010161111a565b509495945050505050565b15159052565b6000815180845261115f81602086016020860161160d565b601f01601f19169290920160200192915050565b6000825161118581846020870161160d565b9190910192915050565b6001600160a01b0391909116815260200190565b6001600160a01b039384168152919092166020820152604081019190915260600190565b6001600160a01b03929092168252602082015260400190565b60c0808252875190820181905260009060209060e0840190828b01845b82811015611220576112108483516110a7565b92840192908401906001016111fd565b50505083810382850152611234818a611107565b915050828103604084015261124981886110b4565b838103606085015261125b81886110b4565b91505082810360808401526112708186611147565b915050610a9160a0830184611141565b90815260200190565b600060208252610c1b6020830184611147565b60208082526015908201527464732d6d6174682d7375622d756e646572666c6f7760581b604082015260600190565b60208082526014908201527364732d6d6174682d6d756c2d6f766572666c6f7760601b604082015260600190565b60208082526014908201527364732d6d6174682d6164642d6f766572666c6f7760601b604082015260600190565b60208082526026908201527f416464726573733a20696e73756666696369656e742062616c616e636520666f6040820152651c8818d85b1b60d21b606082015260800190565b60208082526037908201527f46534456657374696e673a3a2043616c6c6572206973206e6f7420746865207660408201527f657374696e6720666163746f727920636f6e7472616374000000000000000000606082015260800190565b6020808252603e908201527f46534456657374696e673a3a757064617465566573746564546f6b656e733a2060408201527f43616c6c6572206973206e6f74207468652046534420636f6e74726163740000606082015260800190565b60208082526034908201527f46534456657374696e673a3a636c61696d566573746564546f6b656e733a205a60408201527365726f20636c61696d61626c6520746f6b656e7360601b606082015260800190565b6020808252602f908201527f56657374696e673a3a2043616c6c6572206973206e6f7420746865207665737460408201526e696e672062656e656669636961727960881b606082015260800190565b6020808252601d908201527f416464726573733a2063616c6c20746f206e6f6e2d636f6e7472616374000000604082015260600190565b6020808252602a908201527f5361666545524332303a204552433230206f7065726174696f6e20646964206e6040820152691bdd081cdd58d8d9595960b21b606082015260800190565b60208082526037908201527f46534456657374696e673a3a636c61696d417661696c61626c6554726962757460408201527f65733a204e6f207472696275746520746f20636c61696d000000000000000000606082015260800190565b9182521515602082015260400190565b918252602082015260400190565b60405181810167ffffffffffffffff811182821017156115e557600080fd5b604052919050565b600067ffffffffffffffff821115611603578081fd5b5060209081020190565b60005b83811015611628578181015183820152602001611610565b83811115611637576000848401525b50505050565b801515811461092357600080fdfea264697066735822122019cde1bc51d38cdbaa9e533ce17c3938f20237281e329a9894d1df8e740271b964736f6c63430006080033",
  "linkReferences": {},
  "deployedLinkReferences": {}
}