{
  "_format": "hh-sol-artifact-1",
  "contractName": "Withdrawable",
  "sourceName": "contracts/dependencies/Withdrawable.sol",
  "abi": [
    {
      "inputs": [
        {
          "internalType": "address",
          "name": "",
          "type": "address"
        }
      ],
      "name": "availableWithdrawal",
      "outputs": [
        {
          "internalType": "uint256",
          "name": "",
          "type": "uint256"
        }
      ],
      "stateMutability": "view",
      "type": "function"
    },
    {
      "inputs": [],
      "name": "getReserveBalance",
      "outputs": [
        {
          "internalType": "uint256",
          "name": "",
          "type": "uint256"
        }
      ],
      "stateMutability": "view",
      "type": "function"
    },
    {
      "inputs": [],
      "name": "pendingWithdrawals",
      "outputs": [
        {
          "internalType": "uint256",
          "name": "",
          "type": "uint256"
        }
      ],
      "stateMutability": "view",
      "type": "function"
    },
    {
      "inputs": [],
      "name": "withdraw",
      "outputs": [],
      "stateMutability": "nonpayable",
      "type": "function"
    }
  ],
  "bytecode": "0x608060405234801561001057600080fd5b50610332806100206000396000f3fe608060405234801561001057600080fd5b506004361061004c5760003560e01c80633ccfd60b14610051578063beca03d51461005b578063cb765c1d14610075578063f0b0c0991461007d575b600080fd5b6100596100a3565b005b610063610128565b60408051918252519081900360200190f35b61006361012e565b6100636004803603602081101561009357600080fd5b50356001600160a01b031661014a565b33600090815260208190526040902054806100ef5760405162461bcd60e51b815260040180806020018281038252602681526020018061029d6026913960400191505060405180910390fd5b33600090815260208190526040812055600154610112908263ffffffff61015c16565b600155610125338263ffffffff6101b216565b50565b60015481565b60006101456001544761015c90919063ffffffff16565b905090565b60006020819052908152604090205481565b808203828111156101ac576040805162461bcd60e51b815260206004820152601560248201527464732d6d6174682d7375622d756e646572666c6f7760581b604482015290519081900360640190fd5b92915050565b80471015610207576040805162461bcd60e51b815260206004820152601d60248201527f416464726573733a20696e73756666696369656e742062616c616e6365000000604482015290519081900360640190fd5b6040516000906001600160a01b0384169083908381818185875af1925050503d8060008114610252576040519150601f19603f3d011682016040523d82523d6000602084013e610257565b606091505b50509050806102975760405162461bcd60e51b815260040180806020018281038252603a8152602001806102c3603a913960400191505060405180910390fd5b50505056fe4653443a3a77697468647261773a20496e73756666696369656e74205769746864726177616c416464726573733a20756e61626c6520746f2073656e642076616c75652c20726563697069656e74206d61792068617665207265766572746564a26469706673582212200fbb3bdf0bb53e6bfe7b45606a8fae2d838850b586e1f57c037bc550ecce360d64736f6c63430006080033",
  "linkReferences": {},
  "deployedLinkReferences": {}
}