{
  "_format": "hh-sol-artifact-1",
  "contractName": "FairSideFormula",
  "sourceName": "contracts/dependencies/FairSideFormula.sol",
  "abi": [
    {
      "inputs": [
        {
          "internalType": "uint256",
          "name": "a",
          "type": "uint256"
        }
      ],
      "name": "_denormalize",
      "outputs": [
        {
          "internalType": "bytes16",
          "name": "",
          "type": "bytes16"
        }
      ],
      "stateMutability": "pure",
      "type": "function"
    },
    {
      "inputs": [
        {
          "internalType": "bytes16",
          "name": "x",
          "type": "bytes16"
        }
      ],
      "name": "_normalize",
      "outputs": [
        {
          "internalType": "uint256",
          "name": "",
          "type": "uint256"
        }
      ],
      "stateMutability": "pure",
      "type": "function"
    },
    {
      "inputs": [
        {
          "internalType": "bytes16",
          "name": "x",
          "type": "bytes16"
        }
      ],
      "name": "arctan",
      "outputs": [
        {
          "internalType": "bytes16",
          "name": "arc",
          "type": "bytes16"
        }
      ],
      "stateMutability": "pure",
      "type": "function"
    },
    {
      "inputs": [
        {
          "internalType": "bytes16",
          "name": "x",
          "type": "bytes16"
        }
      ],
      "name": "arctan2",
      "outputs": [
        {
          "internalType": "bytes16",
          "name": "arc",
          "type": "bytes16"
        }
      ],
      "stateMutability": "pure",
      "type": "function"
    },
    {
      "inputs": [
        {
          "internalType": "uint256",
          "name": "x",
          "type": "uint256"
        },
        {
          "internalType": "uint256",
          "name": "fShare",
          "type": "uint256"
        }
      ],
      "name": "f",
      "outputs": [
        {
          "internalType": "uint256",
          "name": "",
          "type": "uint256"
        }
      ],
      "stateMutability": "pure",
      "type": "function"
    },
    {
      "inputs": [
        {
          "internalType": "uint256",
          "name": "x",
          "type": "uint256"
        },
        {
          "internalType": "uint256",
          "name": "fShare",
          "type": "uint256"
        }
      ],
      "name": "g",
      "outputs": [
        {
          "internalType": "uint256",
          "name": "",
          "type": "uint256"
        }
      ],
      "stateMutability": "pure",
      "type": "function"
    }
  ],
  "bytecode": "0x61195c610026600b82828239805160001a60731461001957fe5b30600052607381538281f3fe730000000000000000000000000000000000000000301460806040526004361061006c5760003560e01c806313d1aa2e146100715780631cd65ae4146100a65780633baad724146100c957806357bd5cbe14610103578063805d176d1461012a5780638463f14414610151575b600080fd5b6100946004803603604081101561008757600080fd5b5080359060200135610178565b60408051918252519081900360200190f35b610094600480360360408110156100bc57600080fd5b50803590602001356101b0565b6100e6600480360360208110156100df57600080fd5b50356101d8565b604080516001600160801b03199092168252519081900360200190f35b6100946004803603602081101561011957600080fd5b50356001600160801b03191661020f565b6100e66004803603602081101561014057600080fd5b50356001600160801b031916610247565b6100e66004803603602081101561016757600080fd5b50356001600160801b031916610345565b600080610184846101d8565b90506000610191846101d8565b90506101a56101a083836103bc565b61020f565b925050505b92915050565b6000806101bc846101d8565b905060006101c9846101d8565b90506101a56101a08383610423565b6000610207668075782dace9d960c71b6101f18461052a565b6001600160801b0319169063ffffffff61058f16565b90505b919050565b60006102076102386001600160801b03198416668075782dace9d960c71b63ffffffff61083c16565b6001600160801b031916610a98565b6000600161026a6001600160801b03198416613fff60f01b63ffffffff610b1c16565b60000b141580156102a757506000196102a161028a613fff60f01b610c42565b6001600160801b031985169063ffffffff610b1c16565b60000b14155b156102bc576102b582610c4b565b905061020a565b6102076102dc6102d7613fff60f01b8563ffffffff61058f16565b610c4b565b6102ef6001600160801b03198516610cf8565b60000b60001914610313576f07fff243f6f0243f6f0243f6f0243f6f60831b61032f565b61032f6f07fff243f6f0243f6f0243f6f0243f6f60831b610c42565b6001600160801b0319169063ffffffff610d5616565b600060016103686001600160801b03198416613fff60f01b63ffffffff610b1c16565b60000b1415801561038e575060001961038861028a613fff60f01b610c42565b60000b14155b1561039c576102b582610d68565b6102076102dc6103b7613fff60f01b8563ffffffff61058f16565b610d68565b600061041c6103fc6103ef640200c51cef60dd1b6103d986610e89565b6001600160801b0319169063ffffffff61083c16565b6101f1866103d988610e89565b6f1ff87ba8826aa8eb463497b7414a4d2b60811b9063ffffffff610ea916565b9392505050565b600080600061043184611269565b909250905060006104656001600160801b031984166f1003573ab1fe437cd76c0d196e1028ed60821b63ffffffff61083c16565b9050600061047387856112bc565b90506000806104838987876113f3565b9092509050600061051c6105056104af6001600160801b03198516613fff60f01b63ffffffff61083c16565b61032f6104d16001600160801b03198816613fff60f01b63ffffffff61083c16565b6104ef6001600160801b03198a16600160fe1b63ffffffff61083c16565b6001600160801b0319169063ffffffff610ea916565b6001600160801b031987169063ffffffff61083c16565b9a9950505050505050505050565b6000816105395750600061020a565b816000610545826114eb565b9050607081101561055e578060700382901b9150610571565b6070811115610571576070810382901c91505b613fff0160701b6001600160701b03919091161760801b905061020a565b6000617fff60f084811c8216919084901c8116908214156105d55780617fff14156105c4575061ffff60ef1b91506101aa9050565b505050600160ff1b811682186101aa565b80617fff1415610619576dffffffffffffffffffffffffffff60801b841615610608575061ffff60ef1b91506101aa9050565b505050808218600160ff1b166101aa565b600160801b600160ff1b03841661066357600160801b600160ff1b03851661064b575061ffff60ef1b91506101aa9050565b505050808218600160ff1b16617fff60f01b176101aa565b6001600160701b03608085901c168161067f5760019150610686565b600160701b175b6001600160701b03608087901c16836106c55780156106c05760006106aa826114eb565b6001955060e20393840160711901939190911b90505b6106cf565b600160701b1760721b5b8181816106d857fe5b0490508061070557600160ff1b878718166106f45760006106fa565b600160ff1b5b9450505050506101aa565b6001606c1b81101561071357fe5b6000600160731b82101561075357600160721b82101561074857600160711b821015610740576070610743565b60715b61074b565b60725b60ff1661075c565b61075c826114eb565b90508361407101818601111561077a57617fff94506000915061080d565b83818601613ffc01101561079557600094506000915061080d565b83818601613f8c0110156107e2578385613ffc0111156107c0578385613ffc010382901b91506107d9565b8385613ffc0110156107d957613ffc8585030382901c91505b6000945061080d565b60708111156107f5576070810382901c91505b6001600160701b038216915083818601613f8d010394505b81607086901b888a186001607f1b60801b1660801c6001600160801b0316171760801b955050505050506101aa565b6000617fff60f084811c8216919084901c8116908214156108db5780617fff14156108ba576001600160801b0319858116908516141561088757505050600160ff1b811682186101aa565b600160ff1b6001600160801b03198686181614156108aa575050508181176101aa565b5061ffff60ef1b91506101aa9050565b600160801b600160ff1b0384166105c4575061ffff60ef1b91506101aa9050565b80617fff141561091757600160801b600160ff1b038516610906575061ffff60ef1b91506101aa9050565b505050600160ff1b821681186101aa565b6001600160701b03608086901c1682610933576001925061093a565b600160701b175b6001600160701b03608086901c1682610956576001925061095d565b600160701b175b908102908161097a57600160ff1b878718166106f45760006106fa565b928201926000600160e11b8310156109ae57600160e01b8310156109a6576109a1836114eb565b6109a9565b60e05b6109b1565b60e15b905061407081860110156109cc576000945060009250610a69565b6140e08186011015610a0f576140708510156109f157846140700383901c9250610a06565b614070851115610a0657614070850383901b92505b60009450610a69565b61c0dd8186011115610a2957617fff945060009250610a69565b6070811115610a40576070810383901c9250610a53565b6070811015610a53578060700383901b92505b6001600160701b03831692506140df8186010394505b82607086901b888a186001607f1b60801b1660801c6001600160801b0316171760801b955050505050506101aa565b6000617fff60f083901c16613fff811015610ab757600091505061020a565b6001607f1b608084901c10610acb57600080fd5b6140fe811115610ada57600080fd5b600160701b6001600160701b03608085901c161761406f821015610b045761406f8290031c61041c565b61406f82111561041c5761406e1982011b9392505050565b600060016001607f1b03608084901c16617fff60701b811115610b3e57600080fd5b60016001607f1b03608084901c16617fff60701b811115610b5e57600080fd5b6001600160801b0319858116908516141580610b875750617fff60701b826001600160801b0316105b610b9057600080fd5b6001600160801b03198581169085161415610bb0576000925050506101aa565b6001607f1b608086811c82118015929187901c919091101590610c01578015610bf357826001600160801b0316846001600160801b031611610bf35760016106fa565b6000199450505050506101aa565b8015610c145760019450505050506101aa565b826001600160801b0316846001600160801b031611610c35576000196106fa565b60019450505050506101aa565b600160ff1b1890565b6000610207610ccb610cac610c8c610c6c6001600160801b0319871661158e565b6f3ffb0f9096bb98c7e28240b780346dc560801b9063ffffffff61083c16565b6f3ffcf525460aa64c2f837b4a2339c0eb60801b9063ffffffff610ea916565b6103d9610505613fff60f01b61032f6001600160801b0319891661158e565b61032f6001600160801b031985166f07ffd243f6f0243f6f0243f6f0243f6f60831b63ffffffff61083c16565b600060016001607f1b03608083901c16617fff60701b811115610d1a57600080fd5b6001600160801b038116610d3257600091505061020a565b6001607f1b608084901c10610d4c5760001991505061020a565b600191505061020a565b600061041c83600160ff1b8418610ea9565b600080610d856001600160801b031984168463ffffffff61083c16565b90506000610da36001600160801b031983168563ffffffff61083c16565b90506000610dcf6f3ffe47a498ea05e88353e0668277057360801b613fff60f01b63ffffffff610ea916565b90506000610ded6001600160801b031983168763ffffffff61083c16565b90506000610e1a846104ef87816f3ffe47a498ea05e88353e0668277057360801b8c63ffffffff61083c16565b90506000610e54856104ef610e3f6001600160801b031988168a63ffffffff61083c16565b6104ef613fff60f01b8863ffffffff610ea916565b9050610e7d816101f16f07fff243f6f0243f6f0243f6f0243f6f60831b8563ffffffff61083c16565b98975050505050505050565b6000610207826103d96001600160801b031982168263ffffffff61083c16565b6000617fff60f084811c8216919084901c811690821415610ef75780617fff1415610eed576001600160801b031985811690851614156108aa5784925050506101aa565b84925050506101aa565b80617fff1415610f0b5783925050506101aa565b6001607f1b608086901c90811015906001600160701b031683610f315760019350610f38565b600160701b175b6001607f1b608087901c90811015906001600160701b031684610f5e5760019450610f65565b600160701b175b82610f95576001600160801b03198816600160ff1b14610f855787610f88565b60005b96505050505050506101aa565b80610fb5576001600160801b03198916600160ff1b14610f855788610f88565b84860384151583151514156110c0576070811315610fdc57899750505050505050506101aa565b6000811315610fee5790811c9061101d565b606f1981121561100757889750505050505050506101aa565b600081121561101d578060000384901c93508596505b92810192600160711b8410611038576001968701969390931c925b86617fff141561106a578461105257617fff60f01b61105c565b6001600160f01b03195b9750505050505050506101aa565b600160701b84101561107f576000965061108c565b6001600160701b03841693505b83607088901b8661109e5760006110a4565b6001607f1b5b6001600160801b0316171760801b9750505050505050506101aa565b60008113156110db57600184901b93506001870396506110f2565b60008112156110f257600182901b91506001860396505b60708113156111045760019150611151565b6001811315611121576001810360018303901c6001019150611151565b606f198112156111345760019350611151565b600019811215611151576001816000030360018503901c60010193505b81841061116257818403935061116b565b83820393508294505b836111815750600096506101aa95505050505050565b600061118c856114eb565b905080607114156111b257600185901c6001600160701b03169450600188019750611201565b60708110156111f4576070819003808911156111e1578086901b6001600160701b0316955080890398506111ee565b600098600019019590951b945b50611201565b6001600160701b03851694505b87617fff1415611234578561121b57617fff60f01b611225565b6001600160f01b03195b985050505050505050506101aa565b84607089901b8761124657600061124c565b6001607f1b5b6001600160801b0316171760801b985050505050505050506101aa565b6000808061129a6112836001600160801b0319861661159d565b6001600160801b031986169063ffffffff61083c16565b905060006112b16001600160801b0319831661159d565b935090915050915091565b6000806112e6836101f16f3ffc7e225fa658c4bd33d29563a9f38360801b8763ffffffff61083c16565b9050600060016113116112fa610ee361052a565b6001600160801b031988169063ffffffff610b1c16565b60000b1461136d5761136661136161134d61133c6001600160801b031986168663ffffffff61083c16565b600160fe1b9063ffffffff610d5616565b6101f1600160fe1b8663ffffffff61083c16565b610345565b9050611398565b61139561139061134d61133c6001600160801b031986168663ffffffff61083c16565b610247565b90505b6001607f1b608082901c106113eb576113e86113d16f07fff243f6f0243f6f0243f6f0243f6f60831b600160fe1b63ffffffff61083c16565b6001600160801b031983169063ffffffff610ea916565b90505b949350505050565b6000808061141a6f4004cb9096bb98c7e28240b780346dc560801b8563ffffffff61083c16565b905060006114386001600160801b031988168863ffffffff61083c16565b90506114546001600160801b031983168263ffffffff610ea916565b915061147d876103d96f20012b7fcb923a29c779a6b50b0f27bb60811b8963ffffffff61083c16565b90506114bd6114ae61149f6001600160801b031985168463ffffffff610ea916565b6001600160801b03191661158e565b6001600160801b03191661174a565b6114dd6114ae61149f6001600160801b031986168563ffffffff610d5616565b935093505050935093915050565b60008082116114f957600080fd5b6000600160801b831061150e57608092831c92015b68010000000000000000831061152657604092831c92015b640100000000831061153a57602092831c92015b62010000831061154c57601092831c92015b610100831061155d57600892831c92015b6010831061156d57600492831c92015b6004831061157d57600292831c92015b600283106102075760010192915050565b600160801b600160ff1b031690565b60006001607f1b608083901c11156115bb575061ffff60ef1b61020a565b617fff60f083901c8116908114156115d6578291505061020a565b6001600160701b03608084901c16816115f257600191506115f9565b600160701b175b8061160a57506000915061020a9050565b613fff8201600190811c921615801561165d57600160701b821061163457607182901b9150611658565b600061163f836114eb565b60e20360fe16606f19810160011c909403939290921b91505b611698565b600160701b821061167457607082901b9150611698565b600061167f836114eb565b60e10360fe16606f19810160011c909403939290921b91505b600160701b80830401600190811c908184816116b057fe5b048201901c905060018184816116c257fe5b048201901c905060018184816116d457fe5b048201901c905060018184816116e657fe5b048201901c905060018184816116f857fe5b048201901c9050600181848161170a57fe5b048201901c9050600081848161171c57fe5b0490508181101561172b578091505b816001600160701b0316607086901b1760801b9550505050505061020a565b600061020761175883611771565b6f3ffe62e42fefa39ef35793c7673007e560801b61083c565b60006001607f1b608083901c111561178f575061ffff60ef1b61020a565b613fff60f01b6001600160801b0319831614156117ae5750600061020a565b617fff60f083901c8116908114156117c9578291505061020a565b6001600160701b03608084901c16816117e557600191506117ec565b600160701b175b8061180457506001600160f01b0319915061020a9050565b600061406f81613fff851061182a5750600f9290921b9160009150613ffe198401611869565b60019250600160701b841061184c5784613ffe039050600f84901b9350611869565b6000611857856114eb565b607f8190039590951b9461406d039150505b836001607f1b141561189d57821561187f576001015b600061188a826114eb565b60700392839003929190911b90506118eb565b6000836118ab5760006118ae565b60015b60ff1690505b600160701b8210156118e95793800260ff81901c607f81019190911c94600019939093019260019290921b90821801906118b4565b505b806001600160701b0316607083901b8461190657600061190c565b6001607f1b5b6001600160801b0316171760801b9550505050505061020a56fea26469706673582212202524a69a881aa795dca1c243dfca6447d4ae66ce34efb428690ad1b894b2e9eb64736f6c63430006080033",
  "linkReferences": {},
  "deployedLinkReferences": {}
}