{
  "_format": "hh-sol-artifact-1",
  "contractName": "FSDVestingFactory",
  "sourceName": "contracts/token/FSDVestingFactory.sol",
  "abi": [
    {
      "inputs": [
        {
          "internalType": "address",
          "name": "_minter",
          "type": "address"
        }
      ],
      "stateMutability": "nonpayable",
      "type": "constructor"
    },
    {
      "anonymous": false,
      "inputs": [
        {
          "indexed": true,
          "internalType": "address",
          "name": "previousOwner",
          "type": "address"
        },
        {
          "indexed": true,
          "internalType": "address",
          "name": "newOwner",
          "type": "address"
        }
      ],
      "name": "OwnershipTransferred",
      "type": "event"
    },
    {
      "anonymous": false,
      "inputs": [
        {
          "indexed": true,
          "internalType": "address",
          "name": "vesting",
          "type": "address"
        },
        {
          "indexed": true,
          "internalType": "address",
          "name": "beneficiary",
          "type": "address"
        },
        {
          "indexed": false,
          "internalType": "uint256",
          "name": "startTime",
          "type": "uint256"
        },
        {
          "indexed": false,
          "internalType": "uint256",
          "name": "amount",
          "type": "uint256"
        }
      ],
      "name": "VestingCreated",
      "type": "event"
    },
    {
      "inputs": [
        {
          "internalType": "address",
          "name": "beneficiary",
          "type": "address"
        },
        {
          "internalType": "uint256",
          "name": "amount",
          "type": "uint256"
        }
      ],
      "name": "createVestingKOL",
      "outputs": [
        {
          "internalType": "address",
          "name": "vestingAddress",
          "type": "address"
        }
      ],
      "stateMutability": "nonpayable",
      "type": "function"
    },
    {
      "inputs": [
        {
          "internalType": "address",
          "name": "beneficiary",
          "type": "address"
        },
        {
          "internalType": "uint256",
          "name": "amount",
          "type": "uint256"
        }
      ],
      "name": "createVestingPRE",
      "outputs": [
        {
          "internalType": "address",
          "name": "vestingAddress",
          "type": "address"
        }
      ],
      "stateMutability": "nonpayable",
      "type": "function"
    },
    {
      "inputs": [
        {
          "internalType": "address",
          "name": "beneficiary",
          "type": "address"
        },
        {
          "internalType": "uint256",
          "name": "amount",
          "type": "uint256"
        }
      ],
      "name": "createVestingVC",
      "outputs": [
        {
          "internalType": "address",
          "name": "vestingAddress",
          "type": "address"
        }
      ],
      "stateMutability": "nonpayable",
      "type": "function"
    },
    {
      "inputs": [],
      "name": "minter",
      "outputs": [
        {
          "internalType": "address",
          "name": "",
          "type": "address"
        }
      ],
      "stateMutability": "view",
      "type": "function"
    },
    {
      "inputs": [],
      "name": "owner",
      "outputs": [
        {
          "internalType": "address",
          "name": "",
          "type": "address"
        }
      ],
      "stateMutability": "view",
      "type": "function"
    },
    {
      "inputs": [],
      "name": "renounceOwnership",
      "outputs": [],
      "stateMutability": "nonpayable",
      "type": "function"
    },
    {
      "inputs": [
        {
          "internalType": "address",
          "name": "template",
          "type": "address"
        }
      ],
      "name": "setImplementation",
      "outputs": [],
      "stateMutability": "nonpayable",
      "type": "function"
    },
    {
      "inputs": [
        {
          "internalType": "address",
          "name": "newOwner",
          "type": "address"
        }
      ],
      "name": "transferOwnership",
      "outputs": [],
      "stateMutability": "nonpayable",
      "type": "function"
    },
    {
      "inputs": [],
      "name": "vestingImplementation",
      "outputs": [
        {
          "internalType": "address",
          "name": "",
          "type": "address"
        }
      ],
      "stateMutability": "view",
      "type": "function"
    }
  ],
  "bytecode": "0x60a060405234801561001057600080fd5b506040516107ac3803806107ac83398101604081905261002f91610083565b600080546001600160a01b0319163390811782556040519091907f8be0079c531659141344cd1fd0a4f28419497f9722a3daafe3b4186f6b6457e0908290a360601b6001600160601b0319166080526100b1565b600060208284031215610094578081fd5b81516001600160a01b03811681146100aa578182fd5b9392505050565b60805160601c6106d96100d36000398061010b528061013a52506106d96000f3fe608060405234801561001057600080fd5b50600436106100935760003560e01c8063715018a611610066578063715018a6146100c95780638882a2f6146100d35780638da5cb5b146100db578063d784d426146100e3578063f2fde38b146100f657610093565b806307546172146100985780634871c340146100b65780635f3df340146100b6578063654d721d146100b6575b600080fd5b6100a0610109565b6040516100ad91906104f3565b60405180910390f35b6100a06100c43660046104c9565b61012d565b6100d161024e565b005b6100a0610287565b6100a0610296565b6100d16100f13660046104a7565b6102a5565b6100d16101043660046104a7565b61031c565b7f000000000000000000000000000000000000000000000000000000000000000081565b6000336001600160a01b037f000000000000000000000000000000000000000000000000000000000000000016146101805760405162461bcd60e51b81526004016101779061057e565b60405180910390fd5b600154610195906001600160a01b03166103cc565b60405163f3464c5160e01b815290915081906001600160a01b0382169063f3464c51906101c89087908790600401610507565b600060405180830381600087803b1580156101e257600080fd5b505af11580156101f6573d6000803e3d6000fd5b50505050836001600160a01b0316826001600160a01b03167f1fa0b22f78385180668c3daa666fbb365854697bc4033e144adc37f12aa88dfa428660405161023f929190610695565b60405180910390a35092915050565b33610257610296565b6001600160a01b03161461027d5760405162461bcd60e51b815260040161017790610653565b610285610440565b565b6001546001600160a01b031681565b6000546001600160a01b031690565b336102ae610296565b6001600160a01b0316146102d45760405162461bcd60e51b815260040161017790610653565b6001600160a01b0381166102fa5760405162461bcd60e51b815260040161017790610520565b600180546001600160a01b0319166001600160a01b0392909216919091179055565b33610325610296565b6001600160a01b03161461034b5760405162461bcd60e51b815260040161017790610653565b6001600160a01b0381166103715760405162461bcd60e51b81526004016101779061060b565b600080546040516001600160a01b03808516939216917f8be0079c531659141344cd1fd0a4f28419497f9722a3daafe3b4186f6b6457e091a3600080546001600160a01b0319166001600160a01b0392909216919091179055565b6000604051733d602d80600a3d3981f3363d3d373d3d3d363d7360601b81528260601b60148201526e5af43d82803e903d91602b57fd5bf360881b60288201526037816000f09150506001600160a01b03811661043b5760405162461bcd60e51b8152600401610177906105db565b919050565b600080546040516001600160a01b03909116907f8be0079c531659141344cd1fd0a4f28419497f9722a3daafe3b4186f6b6457e0908390a3600080546001600160a01b0319169055565b80356001600160a01b03811681146104a157600080fd5b92915050565b6000602082840312156104b8578081fd5b6104c2838361048a565b9392505050565b600080604083850312156104db578081fd5b6104e5848461048a565b946020939093013593505050565b6001600160a01b0391909116815260200190565b6001600160a01b03929092168252602082015260400190565b602080825260409082018190527f46534456657374696e67466163746f72793a3a736574496d706c656d656e7461908201527f74696f6e3a2043616e6e6f7420626520746865207a65726f2061646472657373606082015260800190565b60208082526039908201527f46534456657374696e67466163746f72793a3a2043616c6c6572206973206e6f60408201527f742074686520465344206d696e74657220636f6e747261637400000000000000606082015260800190565b602080825260169082015275115490cc4c4d8dce8818dc99585d194819985a5b195960521b604082015260600190565b60208082526028908201527f46534f776e61626c653a206e6577206f776e657220697320746865207a65726f604082015267206164647265737360c01b606082015260800190565b60208082526022908201527f46534f776e61626c653a2063616c6c6572206973206e6f7420746865206f776e60408201526132b960f11b606082015260800190565b91825260208201526040019056fea26469706673582212208c6f129cd262cccdd47473fab413487654ef46e096e236b0c6ea29e5b126330d64736f6c63430006080033",
  "linkReferences": {},
  "deployedLinkReferences": {}
}