{
  "_format": "hh-sol-artifact-1",
  "contractName": "FSDVestingKOL",
  "sourceName": "contracts/token/FSDVestingKOL.sol",
  "abi": [
    {
      "inputs": [
        {
          "internalType": "contract IERC20ConvictionScore",
          "name": "_token",
          "type": "address"
        },
        {
          "internalType": "contract IFSDVestingFactory",
          "name": "_factory",
          "type": "address"
        },
        {
          "internalType": "address",
          "name": "_minter",
          "type": "address"
        },
        {
          "internalType": "contract IFairSideDAO",
          "name": "_dao",
          "type": "address"
        },
        {
          "internalType": "contract IERC721",
          "name": "_fairSideConviction",
          "type": "address"
        }
      ],
      "stateMutability": "nonpayable",
      "type": "constructor"
    },
    {
      "anonymous": false,
      "inputs": [
        {
          "indexed": true,
          "internalType": "address",
          "name": "beneficiary",
          "type": "address"
        },
        {
          "indexed": false,
          "internalType": "uint256",
          "name": "amount",
          "type": "uint256"
        },
        {
          "indexed": false,
          "internalType": "uint256",
          "name": "claimedAt",
          "type": "uint256"
        }
      ],
      "name": "TokensClaimed",
      "type": "event"
    },
    {
      "inputs": [],
      "name": "amount",
      "outputs": [
        {
          "internalType": "uint256",
          "name": "",
          "type": "uint256"
        }
      ],
      "stateMutability": "view",
      "type": "function"
    },
    {
      "inputs": [],
      "name": "beneficiary",
      "outputs": [
        {
          "internalType": "address",
          "name": "",
          "type": "address"
        }
      ],
      "stateMutability": "view",
      "type": "function"
    },
    {
      "inputs": [],
      "name": "calculateVestingClaim",
      "outputs": [
        {
          "internalType": "uint256",
          "name": "",
          "type": "uint256"
        }
      ],
      "stateMutability": "view",
      "type": "function"
    },
    {
      "inputs": [
        {
          "internalType": "uint256",
          "name": "proposalId",
          "type": "uint256"
        },
        {
          "internalType": "bool",
          "name": "support",
          "type": "bool"
        }
      ],
      "name": "castVote",
      "outputs": [],
      "stateMutability": "nonpayable",
      "type": "function"
    },
    {
      "inputs": [
        {
          "internalType": "uint256",
          "name": "num",
          "type": "uint256"
        }
      ],
      "name": "claimAvailableTributes",
      "outputs": [],
      "stateMutability": "nonpayable",
      "type": "function"
    },
    {
      "inputs": [],
      "name": "claimVestedTokens",
      "outputs": [],
      "stateMutability": "nonpayable",
      "type": "function"
    },
    {
      "inputs": [],
      "name": "dao",
      "outputs": [
        {
          "internalType": "contract IFairSideDAO",
          "name": "",
          "type": "address"
        }
      ],
      "stateMutability": "view",
      "type": "function"
    },
    {
      "inputs": [],
      "name": "factory",
      "outputs": [
        {
          "internalType": "contract IFSDVestingFactory",
          "name": "",
          "type": "address"
        }
      ],
      "stateMutability": "view",
      "type": "function"
    },
    {
      "inputs": [],
      "name": "fairSideConviction",
      "outputs": [
        {
          "internalType": "contract IERC721",
          "name": "",
          "type": "address"
        }
      ],
      "stateMutability": "view",
      "type": "function"
    },
    {
      "inputs": [],
      "name": "fsd",
      "outputs": [
        {
          "internalType": "contract IERC20ConvictionScore",
          "name": "",
          "type": "address"
        }
      ],
      "stateMutability": "view",
      "type": "function"
    },
    {
      "inputs": [
        {
          "internalType": "address",
          "name": "_beneficiary",
          "type": "address"
        },
        {
          "internalType": "uint256",
          "name": "_amount",
          "type": "uint256"
        }
      ],
      "name": "initiateVesting",
      "outputs": [],
      "stateMutability": "nonpayable",
      "type": "function"
    },
    {
      "inputs": [],
      "name": "lastClaimAt",
      "outputs": [
        {
          "internalType": "uint256",
          "name": "",
          "type": "uint256"
        }
      ],
      "stateMutability": "view",
      "type": "function"
    },
    {
      "inputs": [],
      "name": "minter",
      "outputs": [
        {
          "internalType": "address",
          "name": "",
          "type": "address"
        }
      ],
      "stateMutability": "view",
      "type": "function"
    },
    {
      "inputs": [
        {
          "internalType": "address[]",
          "name": "targets",
          "type": "address[]"
        },
        {
          "internalType": "uint256[]",
          "name": "values",
          "type": "uint256[]"
        },
        {
          "internalType": "string[]",
          "name": "signatures",
          "type": "string[]"
        },
        {
          "internalType": "bytes[]",
          "name": "calldatas",
          "type": "bytes[]"
        },
        {
          "internalType": "string",
          "name": "description",
          "type": "string"
        },
        {
          "internalType": "bool",
          "name": "forceOnchain",
          "type": "bool"
        }
      ],
      "name": "propose",
      "outputs": [
        {
          "internalType": "uint256",
          "name": "",
          "type": "uint256"
        }
      ],
      "stateMutability": "nonpayable",
      "type": "function"
    },
    {
      "inputs": [],
      "name": "start",
      "outputs": [
        {
          "internalType": "uint256",
          "name": "",
          "type": "uint256"
        }
      ],
      "stateMutability": "view",
      "type": "function"
    },
    {
      "inputs": [],
      "name": "totalClaimed",
      "outputs": [
        {
          "internalType": "uint256",
          "name": "",
          "type": "uint256"
        }
      ],
      "stateMutability": "view",
      "type": "function"
    },
    {
      "inputs": [],
      "name": "unclaimedTokens",
      "outputs": [
        {
          "internalType": "uint256",
          "name": "",
          "type": "uint256"
        }
      ],
      "stateMutability": "view",
      "type": "function"
    },
    {
      "inputs": [
        {
          "internalType": "uint256",
          "name": "_amount",
          "type": "uint256"
        }
      ],
      "name": "updateVestedTokens",
      "outputs": [],
      "stateMutability": "nonpayable",
      "type": "function"
    }
  ],
  "bytecode": "0x6101206040523480156200001257600080fd5b50604051620016e5380380620016e583398101604081905262000035916200006d565b6001600160601b0319606095861b811660805293851b841660a05291841b831660c052831b821660e05290911b166101005262000105565b600080600080600060a0868803121562000085578081fd5b85516200009281620000ec565b6020870151909550620000a581620000ec565b6040870151909450620000b881620000ec565b6060870151909350620000cb81620000ec565b6080870151909250620000de81620000ec565b809150509295509295909350565b6001600160a01b03811681146200010257600080fd5b50565b60805160601c60a05160601c60c05160601c60e05160601c6101005160601c61155a6200018b60003980610828528061086652508061027b52806102f9528061093e52508061020f5280610576525080610609528061089352508061034c52806103fd52806104c4528061053852806105ce52806106f15280610787525061155a6000f3fe608060405234801561001057600080fd5b50600436106101165760003560e01c8063be9a6555116100a2578063d54ad2a111610071578063d54ad2a1146101c9578063e74f3fbb146101d1578063edc91a74146101d9578063f3464c51146101e1578063f682e04c146101f457610116565b8063be9a6555146101a9578063c394f6cb146101b1578063c45a0155146101b9578063cf332989146101c157610116565b80634162169f116100e95780634162169f1461016b5780634fa30aab146101735780637487d27414610186578063864756bd14610199578063aa8c217c146101a157610116565b806301f7cda61461011b578063075461721461013957806315373e3d1461014e57806338af3eed14610163575b600080fd5b610123610207565b6040516101309190611187565b60405180910390f35b61014161020d565b6040516101309190611096565b61016161015c366004610f7f565b610231565b005b6101416102e8565b6101416102f7565b610161610181366004610f4f565b61031b565b610161610194366004610f4f565b61056b565b6101416105cc565b6101236105f0565b6101236105f6565b6101236105fc565b610141610607565b61012361062b565b61012361066e565b610161610674565b610141610864565b6101616101ef366004610e2d565b610888565b610123610202366004610e57565b6108fa565b60035481565b7f000000000000000000000000000000000000000000000000000000000000000081565b6004546001600160a01b031633146102645760405162461bcd60e51b815260040161025b90611354565b60405180910390fd5b6040516315373e3d60e01b81526001600160a01b037f000000000000000000000000000000000000000000000000000000000000000016906315373e3d906102b29085908590600401611481565b600060405180830381600087803b1580156102cc57600080fd5b505af11580156102e0573d6000803e3d6000fd5b505050505050565b6004546001600160a01b031681565b7f000000000000000000000000000000000000000000000000000000000000000081565b6004546001600160a01b031633146103455760405162461bcd60e51b815260040161025b90611354565b600061048e7f00000000000000000000000000000000000000000000000000000000000000006001600160a01b03166304e29e12846040518263ffffffff1660e01b81526004016103969190611187565b60206040518083038186803b1580156103ae57600080fd5b505afa1580156103c2573d6000803e3d6000fd5b505050506040513d601f19601f820116820180604052508101906103e69190610f67565b60405163136568b360e01b81526001600160a01b037f0000000000000000000000000000000000000000000000000000000000000000169063136568b390610432908790600401611187565b60206040518083038186803b15801561044a57600080fd5b505afa15801561045e573d6000803e3d6000fd5b505050506040513d601f19601f820116820180604052508101906104829190610f67565b9063ffffffff6109da16565b9050806104ad5760405162461bcd60e51b815260040161025b90611424565b604051634fa30aab60e01b81526001600160a01b037f00000000000000000000000000000000000000000000000000000000000000001690634fa30aab906104f9908590600401611187565b600060405180830381600087803b15801561051357600080fd5b505af1158015610527573d6000803e3d6000fd5b506105679250506001600160a01b037f0000000000000000000000000000000000000000000000000000000000000000169050338363ffffffff610a0316565b5050565b336001600160a01b037f000000000000000000000000000000000000000000000000000000000000000016146105b35760405162461bcd60e51b815260040161025b906112a3565b6000546105c6908263ffffffff6109da16565b60005550565b7f000000000000000000000000000000000000000000000000000000000000000081565b60005481565b60025481565b600154600054035b90565b7f000000000000000000000000000000000000000000000000000000000000000081565b600254600090610645906301da9c0063ffffffff6109da16565b42101561065457506000610604565b6001546000546106699163ffffffff610a5e16565b905090565b60015481565b6004546001600160a01b0316331461069e5760405162461bcd60e51b815260040161025b90611354565b60006106a861062b565b9050600081116106ca5760405162461bcd60e51b815260040161025b90611300565b6001546106dd908263ffffffff6109da16565b6001554260035561071e6001600160a01b037f000000000000000000000000000000000000000000000000000000000000000016338363ffffffff610a0316565b336001600160a01b03167f9923b4306c6c030f2bdfbf156517d5983b87e15b96176da122cd4f2effa4ba7b8242604051610759929190611491565b60405180910390a260015460005414156108615760405163051c00b360e01b81526000906001600160a01b037f0000000000000000000000000000000000000000000000000000000000000000169063051c00b3906107bc908490600401611187565b602060405180830381600087803b1580156107d657600080fd5b505af11580156107ea573d6000803e3d6000fd5b505050506040513d601f19601f8201168201806040525081019061080e9190610f67565b6040516323b872dd60e01b81529091506001600160a01b037f000000000000000000000000000000000000000000000000000000000000000016906323b872dd906102b2903090339086906004016110aa565b50565b7f000000000000000000000000000000000000000000000000000000000000000081565b336001600160a01b037f000000000000000000000000000000000000000000000000000000000000000016146108d05760405162461bcd60e51b815260040161025b90611246565b600480546001600160a01b0319166001600160a01b03939093169290921790915542600255600055565b6004546000906001600160a01b031633146109275760405162461bcd60e51b815260040161025b90611354565b604051633da0b81360e21b81526001600160a01b037f0000000000000000000000000000000000000000000000000000000000000000169063f682e04c9061097d908a908a908a908a908a908a906004016110e7565b602060405180830381600087803b15801561099757600080fd5b505af11580156109ab573d6000803e3d6000fd5b505050506040513d601f19601f820116820180604052508101906109cf9190610f67565b979650505050505050565b808201828110156109fd5760405162461bcd60e51b815260040161025b906111d2565b92915050565b610a598363a9059cbb60e01b8484604051602401610a229291906110ce565b60408051601f198184030181529190526020810180516001600160e01b03166001600160e01b031990931692909217909152610a81565b505050565b808203828111156109fd5760405162461bcd60e51b815260040161025b906111a3565b6060610ad6826040518060400160405280602081526020017f5361666545524332303a206c6f772d6c6576656c2063616c6c206661696c6564815250856001600160a01b0316610b109092919063ffffffff16565b805190915015610a595780806020019051810190610af49190610f33565b610a595760405162461bcd60e51b815260040161025b906113da565b6060610b1f8484600085610b29565b90505b9392505050565b606082471015610b4b5760405162461bcd60e51b815260040161025b90611200565b610b5485610bdf565b610b705760405162461bcd60e51b815260040161025b906113a3565b60006060866001600160a01b03168587604051610b8d919061107a565b60006040518083038185875af1925050503d8060008114610bca576040519150601f19603f3d011682016040523d82523d6000602084013e610bcf565b606091505b50915091506109cf828286610be5565b3b151590565b60608315610bf4575081610b22565b825115610c045782518084602001fd5b8160405162461bcd60e51b815260040161025b9190611190565b80356001600160a01b03811681146109fd57600080fd5b600082601f830112610c45578081fd5b8135610c58610c53826114c6565b61149f565b818152915060208083019084810181840286018201871015610c7957600080fd5b60005b84811015610ca057610c8e8883610c1e565b84529282019290820190600101610c7c565b505050505092915050565b600082601f830112610cbb578081fd5b8135610cc9610c53826114c6565b818152915060208083019084810160005b84811015610ca057610cf1888484358a0101610dc4565b84529282019290820190600101610cda565b600082601f830112610d13578081fd5b8135610d21610c53826114c6565b818152915060208083019084810160005b84811015610ca057610d49888484358a0101610dc4565b84529282019290820190600101610d32565b600082601f830112610d6b578081fd5b8135610d79610c53826114c6565b818152915060208083019084810181840286018201871015610d9a57600080fd5b60005b84811015610ca057813584529282019290820190600101610d9d565b80356109fd81611516565b600082601f830112610dd4578081fd5b813567ffffffffffffffff811115610dea578182fd5b610dfd601f8201601f191660200161149f565b9150808252836020828501011115610e1457600080fd5b8060208401602084013760009082016020015292915050565b60008060408385031215610e3f578182fd5b610e498484610c1e565b946020939093013593505050565b60008060008060008060c08789031215610e6f578182fd5b863567ffffffffffffffff80821115610e86578384fd5b610e928a838b01610c35565b97506020890135915080821115610ea7578384fd5b610eb38a838b01610d5b565b96506040890135915080821115610ec8578384fd5b610ed48a838b01610d03565b95506060890135915080821115610ee9578384fd5b610ef58a838b01610cab565b94506080890135915080821115610f0a578384fd5b50610f1789828a01610dc4565b925050610f278860a08901610db9565b90509295509295509295565b600060208284031215610f44578081fd5b8151610b2281611516565b600060208284031215610f60578081fd5b5035919050565b600060208284031215610f78578081fd5b5051919050565b60008060408385031215610f91578182fd5b823591506020830135610fa381611516565b809150509250929050565b6001600160a01b03169052565b6000815180845260208085018081965082840281019150828601855b85811015611001578284038952610fef84835161104e565b98850198935090840190600101610fd7565b5091979650505050505050565b6000815180845260208085019450808401835b8381101561103d57815187529582019590820190600101611021565b509495945050505050565b15159052565b600081518084526110668160208601602086016114e6565b601f01601f19169290920160200192915050565b6000825161108c8184602087016114e6565b9190910192915050565b6001600160a01b0391909116815260200190565b6001600160a01b039384168152919092166020820152604081019190915260600190565b6001600160a01b03929092168252602082015260400190565b60c0808252875190820181905260009060209060e0840190828b01845b8281101561112757611117848351610fae565b9284019290840190600101611104565b5050508381038285015261113b818a61100e565b91505082810360408401526111508188610fbb565b83810360608501526111628188610fbb565b9150508281036080840152611177818661104e565b9150506109cf60a0830184611048565b90815260200190565b600060208252610b22602083018461104e565b60208082526015908201527464732d6d6174682d7375622d756e646572666c6f7760581b604082015260600190565b60208082526014908201527364732d6d6174682d6164642d6f766572666c6f7760601b604082015260600190565b60208082526026908201527f416464726573733a20696e73756666696369656e742062616c616e636520666f6040820152651c8818d85b1b60d21b606082015260800190565b60208082526037908201527f46534456657374696e673a3a2043616c6c6572206973206e6f7420746865207660408201527f657374696e6720666163746f727920636f6e7472616374000000000000000000606082015260800190565b6020808252603e908201527f46534456657374696e673a3a757064617465566573746564546f6b656e733a2060408201527f43616c6c6572206973206e6f74207468652046534420636f6e74726163740000606082015260800190565b60208082526034908201527f46534456657374696e673a3a636c61696d566573746564546f6b656e733a205a60408201527365726f20636c61696d61626c6520746f6b656e7360601b606082015260800190565b6020808252602f908201527f56657374696e673a3a2043616c6c6572206973206e6f7420746865207665737460408201526e696e672062656e656669636961727960881b606082015260800190565b6020808252601d908201527f416464726573733a2063616c6c20746f206e6f6e2d636f6e7472616374000000604082015260600190565b6020808252602a908201527f5361666545524332303a204552433230206f7065726174696f6e20646964206e6040820152691bdd081cdd58d8d9595960b21b606082015260800190565b60208082526037908201527f46534456657374696e673a3a636c61696d417661696c61626c6554726962757460408201527f65733a204e6f207472696275746520746f20636c61696d000000000000000000606082015260800190565b9182521515602082015260400190565b918252602082015260400190565b60405181810167ffffffffffffffff811182821017156114be57600080fd5b604052919050565b600067ffffffffffffffff8211156114dc578081fd5b5060209081020190565b60005b838110156115015781810151838201526020016114e9565b83811115611510576000848401525b50505050565b801515811461086157600080fdfea2646970667358221220e2276be2dca7c9fcdc72d9fdfbf73064541929f49a26dfa3b6e1399a16b1318964736f6c63430006080033",
  "linkReferences": {},
  "deployedLinkReferences": {}
}