{
  "_format": "hh-sol-artifact-1",
  "contractName": "FairSideDAO",
  "sourceName": "contracts/dao/FairSideDAO.sol",
  "abi": [
    {
      "inputs": [
        {
          "internalType": "contract Timelock",
          "name": "_timelock",
          "type": "address"
        },
        {
          "internalType": "contract IERC20ConvictionScore",
          "name": "_FSD",
          "type": "address"
        },
        {
          "internalType": "address",
          "name": "_guardian",
          "type": "address"
        }
      ],
      "stateMutability": "nonpayable",
      "type": "constructor"
    },
    {
      "anonymous": false,
      "inputs": [
        {
          "indexed": false,
          "internalType": "uint256",
          "name": "proposalId",
          "type": "uint256"
        },
        {
          "indexed": false,
          "internalType": "bytes32",
          "name": "voteHash",
          "type": "bytes32"
        },
        {
          "indexed": false,
          "internalType": "uint256",
          "name": "forVotes",
          "type": "uint256"
        },
        {
          "indexed": false,
          "internalType": "uint256",
          "name": "againstVotes",
          "type": "uint256"
        }
      ],
      "name": "OffchainVotesCast",
      "type": "event"
    },
    {
      "anonymous": false,
      "inputs": [
        {
          "indexed": false,
          "internalType": "uint256",
          "name": "id",
          "type": "uint256"
        }
      ],
      "name": "ProposalCanceled",
      "type": "event"
    },
    {
      "anonymous": false,
      "inputs": [
        {
          "indexed": false,
          "internalType": "uint256",
          "name": "id",
          "type": "uint256"
        },
        {
          "indexed": false,
          "internalType": "address",
          "name": "proposer",
          "type": "address"
        },
        {
          "indexed": false,
          "internalType": "uint256",
          "name": "startBlock",
          "type": "uint256"
        },
        {
          "indexed": false,
          "internalType": "uint256",
          "name": "endBlock",
          "type": "uint256"
        },
        {
          "indexed": false,
          "internalType": "string",
          "name": "description",
          "type": "string"
        }
      ],
      "name": "ProposalCreated",
      "type": "event"
    },
    {
      "anonymous": false,
      "inputs": [
        {
          "indexed": false,
          "internalType": "uint256",
          "name": "id",
          "type": "uint256"
        }
      ],
      "name": "ProposalExecuted",
      "type": "event"
    },
    {
      "anonymous": false,
      "inputs": [
        {
          "indexed": false,
          "internalType": "uint256",
          "name": "id",
          "type": "uint256"
        },
        {
          "indexed": false,
          "internalType": "uint256",
          "name": "eta",
          "type": "uint256"
        }
      ],
      "name": "ProposalQueued",
      "type": "event"
    },
    {
      "anonymous": false,
      "inputs": [
        {
          "indexed": false,
          "internalType": "address",
          "name": "voter",
          "type": "address"
        },
        {
          "indexed": false,
          "internalType": "uint256",
          "name": "proposalId",
          "type": "uint256"
        },
        {
          "indexed": false,
          "internalType": "bool",
          "name": "support",
          "type": "bool"
        },
        {
          "indexed": false,
          "internalType": "uint256",
          "name": "votes",
          "type": "uint256"
        }
      ],
      "name": "VoteCast",
      "type": "event"
    },
    {
      "inputs": [],
      "name": "__abdicate",
      "outputs": [],
      "stateMutability": "nonpayable",
      "type": "function"
    },
    {
      "inputs": [],
      "name": "__acceptAdmin",
      "outputs": [],
      "stateMutability": "nonpayable",
      "type": "function"
    },
    {
      "inputs": [
        {
          "internalType": "uint256",
          "name": "proposalId",
          "type": "uint256"
        },
        {
          "internalType": "bytes32",
          "name": "voteHash",
          "type": "bytes32"
        },
        {
          "internalType": "uint256",
          "name": "forVotes",
          "type": "uint256"
        },
        {
          "internalType": "uint256",
          "name": "againstVotes",
          "type": "uint256"
        }
      ],
      "name": "__castOffchainVotes",
      "outputs": [],
      "stateMutability": "nonpayable",
      "type": "function"
    },
    {
      "inputs": [
        {
          "internalType": "address",
          "name": "newPendingAdmin",
          "type": "address"
        },
        {
          "internalType": "uint256",
          "name": "eta",
          "type": "uint256"
        }
      ],
      "name": "__executeSetTimelockPendingAdmin",
      "outputs": [],
      "stateMutability": "nonpayable",
      "type": "function"
    },
    {
      "inputs": [
        {
          "internalType": "address",
          "name": "newPendingAdmin",
          "type": "address"
        },
        {
          "internalType": "uint256",
          "name": "eta",
          "type": "uint256"
        }
      ],
      "name": "__queueSetTimelockPendingAdmin",
      "outputs": [],
      "stateMutability": "nonpayable",
      "type": "function"
    },
    {
      "inputs": [
        {
          "internalType": "uint256",
          "name": "proposalId",
          "type": "uint256"
        }
      ],
      "name": "cancel",
      "outputs": [],
      "stateMutability": "nonpayable",
      "type": "function"
    },
    {
      "inputs": [
        {
          "internalType": "uint256",
          "name": "proposalId",
          "type": "uint256"
        },
        {
          "internalType": "bool",
          "name": "support",
          "type": "bool"
        }
      ],
      "name": "castVote",
      "outputs": [],
      "stateMutability": "nonpayable",
      "type": "function"
    },
    {
      "inputs": [
        {
          "internalType": "uint256",
          "name": "proposalId",
          "type": "uint256"
        },
        {
          "internalType": "bool",
          "name": "support",
          "type": "bool"
        },
        {
          "internalType": "uint8",
          "name": "v",
          "type": "uint8"
        },
        {
          "internalType": "bytes32",
          "name": "r",
          "type": "bytes32"
        },
        {
          "internalType": "bytes32",
          "name": "s",
          "type": "bytes32"
        }
      ],
      "name": "castVoteBySig",
      "outputs": [],
      "stateMutability": "nonpayable",
      "type": "function"
    },
    {
      "inputs": [],
      "name": "disableOffchainVoting",
      "outputs": [],
      "stateMutability": "nonpayable",
      "type": "function"
    },
    {
      "inputs": [
        {
          "internalType": "address",
          "name": "_guardian",
          "type": "address"
        }
      ],
      "name": "enableOffchainVoting",
      "outputs": [],
      "stateMutability": "nonpayable",
      "type": "function"
    },
    {
      "inputs": [
        {
          "internalType": "uint256",
          "name": "proposalId",
          "type": "uint256"
        }
      ],
      "name": "execute",
      "outputs": [],
      "stateMutability": "payable",
      "type": "function"
    },
    {
      "inputs": [
        {
          "internalType": "uint256",
          "name": "proposalId",
          "type": "uint256"
        }
      ],
      "name": "getActions",
      "outputs": [
        {
          "internalType": "address[]",
          "name": "targets",
          "type": "address[]"
        },
        {
          "internalType": "uint256[]",
          "name": "values",
          "type": "uint256[]"
        },
        {
          "internalType": "string[]",
          "name": "signatures",
          "type": "string[]"
        },
        {
          "internalType": "bytes[]",
          "name": "calldatas",
          "type": "bytes[]"
        }
      ],
      "stateMutability": "view",
      "type": "function"
    },
    {
      "inputs": [
        {
          "internalType": "uint256",
          "name": "proposalId",
          "type": "uint256"
        },
        {
          "internalType": "address",
          "name": "voter",
          "type": "address"
        }
      ],
      "name": "getReceipt",
      "outputs": [
        {
          "components": [
            {
              "internalType": "bool",
              "name": "hasVoted",
              "type": "bool"
            },
            {
              "internalType": "bool",
              "name": "support",
              "type": "bool"
            },
            {
              "internalType": "uint224",
              "name": "votes",
              "type": "uint224"
            }
          ],
          "internalType": "struct FairSideDAO.Receipt",
          "name": "",
          "type": "tuple"
        }
      ],
      "stateMutability": "view",
      "type": "function"
    },
    {
      "inputs": [],
      "name": "guardian",
      "outputs": [
        {
          "internalType": "address",
          "name": "",
          "type": "address"
        }
      ],
      "stateMutability": "view",
      "type": "function"
    },
    {
      "inputs": [
        {
          "internalType": "address",
          "name": "",
          "type": "address"
        }
      ],
      "name": "latestProposalIds",
      "outputs": [
        {
          "internalType": "uint256",
          "name": "",
          "type": "uint256"
        }
      ],
      "stateMutability": "view",
      "type": "function"
    },
    {
      "inputs": [],
      "name": "name",
      "outputs": [
        {
          "internalType": "string",
          "name": "",
          "type": "string"
        }
      ],
      "stateMutability": "view",
      "type": "function"
    },
    {
      "inputs": [],
      "name": "offchain",
      "outputs": [
        {
          "internalType": "bool",
          "name": "",
          "type": "bool"
        }
      ],
      "stateMutability": "view",
      "type": "function"
    },
    {
      "inputs": [],
      "name": "proposalCount",
      "outputs": [
        {
          "internalType": "uint256",
          "name": "",
          "type": "uint256"
        }
      ],
      "stateMutability": "view",
      "type": "function"
    },
    {
      "inputs": [],
      "name": "proposalMaxOperations",
      "outputs": [
        {
          "internalType": "uint256",
          "name": "",
          "type": "uint256"
        }
      ],
      "stateMutability": "pure",
      "type": "function"
    },
    {
      "inputs": [
        {
          "internalType": "uint256",
          "name": "_totalVotes",
          "type": "uint256"
        }
      ],
      "name": "proposalThreshold",
      "outputs": [
        {
          "internalType": "uint256",
          "name": "",
          "type": "uint256"
        }
      ],
      "stateMutability": "pure",
      "type": "function"
    },
    {
      "inputs": [],
      "name": "proposalThreshold",
      "outputs": [
        {
          "internalType": "uint256",
          "name": "",
          "type": "uint256"
        }
      ],
      "stateMutability": "view",
      "type": "function"
    },
    {
      "inputs": [
        {
          "internalType": "address[]",
          "name": "targets",
          "type": "address[]"
        },
        {
          "internalType": "uint256[]",
          "name": "values",
          "type": "uint256[]"
        },
        {
          "internalType": "string[]",
          "name": "signatures",
          "type": "string[]"
        },
        {
          "internalType": "bytes[]",
          "name": "calldatas",
          "type": "bytes[]"
        },
        {
          "internalType": "string",
          "name": "description",
          "type": "string"
        },
        {
          "internalType": "bool",
          "name": "forceOnchain",
          "type": "bool"
        }
      ],
      "name": "propose",
      "outputs": [
        {
          "internalType": "uint256",
          "name": "",
          "type": "uint256"
        }
      ],
      "stateMutability": "nonpayable",
      "type": "function"
    },
    {
      "inputs": [
        {
          "internalType": "uint256",
          "name": "proposalId",
          "type": "uint256"
        }
      ],
      "name": "queue",
      "outputs": [],
      "stateMutability": "nonpayable",
      "type": "function"
    },
    {
      "inputs": [
        {
          "internalType": "uint256",
          "name": "_totalVotes",
          "type": "uint256"
        }
      ],
      "name": "quorumVotes",
      "outputs": [
        {
          "internalType": "uint256",
          "name": "",
          "type": "uint256"
        }
      ],
      "stateMutability": "pure",
      "type": "function"
    },
    {
      "inputs": [],
      "name": "quorumVotes",
      "outputs": [
        {
          "internalType": "uint256",
          "name": "",
          "type": "uint256"
        }
      ],
      "stateMutability": "view",
      "type": "function"
    },
    {
      "inputs": [
        {
          "internalType": "uint256",
          "name": "proposalId",
          "type": "uint256"
        }
      ],
      "name": "state",
      "outputs": [
        {
          "internalType": "enum FairSideDAO.ProposalState",
          "name": "",
          "type": "uint8"
        }
      ],
      "stateMutability": "view",
      "type": "function"
    },
    {
      "inputs": [],
      "name": "timelock",
      "outputs": [
        {
          "internalType": "contract Timelock",
          "name": "",
          "type": "address"
        }
      ],
      "stateMutability": "view",
      "type": "function"
    },
    {
      "inputs": [],
      "name": "totalVotes",
      "outputs": [
        {
          "internalType": "uint256",
          "name": "",
          "type": "uint256"
        }
      ],
      "stateMutability": "view",
      "type": "function"
    },
    {
      "inputs": [
        {
          "internalType": "uint256",
          "name": "n",
          "type": "uint256"
        }
      ],
      "name": "totalVotes",
      "outputs": [
        {
          "internalType": "uint256",
          "name": "",
          "type": "uint256"
        }
      ],
      "stateMutability": "view",
      "type": "function"
    },
    {
      "inputs": [
        {
          "internalType": "uint256",
          "name": "proposalId",
          "type": "uint256"
        },
        {
          "components": [
            {
              "internalType": "address",
              "name": "voter",
              "type": "address"
            },
            {
              "internalType": "uint256",
              "name": "votes",
              "type": "uint256"
            },
            {
              "internalType": "bool",
              "name": "support",
              "type": "bool"
            }
          ],
          "internalType": "struct FairSideDAO.VotePack[]",
          "name": "votes",
          "type": "tuple[]"
        }
      ],
      "name": "validateVoteHash",
      "outputs": [
        {
          "internalType": "bool",
          "name": "",
          "type": "bool"
        }
      ],
      "stateMutability": "view",
      "type": "function"
    },
    {
      "inputs": [],
      "name": "votingDelay",
      "outputs": [
        {
          "internalType": "uint256",
          "name": "",
          "type": "uint256"
        }
      ],
      "stateMutability": "pure",
      "type": "function"
    },
    {
      "inputs": [],
      "name": "votingPeriod",
      "outputs": [
        {
          "internalType": "uint256",
          "name": "",
          "type": "uint256"
        }
      ],
      "stateMutability": "pure",
      "type": "function"
    },
    {
      "inputs": [],
      "name": "votingThreshold",
      "outputs": [
        {
          "internalType": "uint256",
          "name": "",
          "type": "uint256"
        }
      ],
      "stateMutability": "view",
      "type": "function"
    }
  ],
  "bytecode": "0x6101006040526002805460ff191660011790553480156200001f57600080fd5b5060405162004636380380620046368339810160408190526200004291620000b4565b6001600160601b0319606083811b821660e052600080546001600160a01b0385166001600160a01b031990911617905584901b1660c052604051620000879062000107565b60405190819003812060a0526200009e906200013b565b604051908190039020608052506200017d915050565b600080600060608486031215620000c9578283fd5b8351620000d68162000164565b6020850151909350620000e98162000164565b6040850151909250620000fc8162000164565b809150509250925092565b7f757064617465476f7665726e616e63655468726573686f6c642875696e743235815261362960f01b602082015260220190565b7f64697361626c654f6666636861696e566f74696e672829000000000000000000815260170190565b6001600160a01b03811681146200017a57600080fd5b50565b60805160a05160c05160601c60e05160601c614400620002366000398061065452806107395280610dd95280610e90528061123752806112f25280611af15280611ba45280611ce05280611d7a5280611f21528061229652806126705250806107fa52806108295280610ca45280610f5252806113a0528061148052806114af528061165c52806117015280611776528061180552806123f8528061285f528061295b525080611f71525080611ef752506144006000f3fe6080604052600436106101ee5760003560e01c8063628277331161010d578063b58131b0116100a0578063ddf0b0091161006f578063ddf0b0091461052a578063e23a9a521461054a578063f682e04c14610577578063f7a5c33214610597578063fe0d94c1146105b7576101ee565b8063b58131b0146104d6578063b9a61961146104eb578063d33219b414610500578063da35c66414610515576101ee565b80637bdbe4d0116100dc5780637bdbe4d0146104615780639150067114610476578063a317c04014610496578063a8effbd4146104b6576101ee565b80636282773314610402578063701ed9f514610417578063760fbc131461042c5780637629a4ac14610441576101ee565b806321f43e42116101855780633e4f49e6116101545780633e4f49e61461037357806340e58ee5146103a0578063452a9320146103c05780634634c61f146103e2576101ee565b806321f43e42146102f957806324bc1a6414610319578063328dd9821461032e5780633932abb11461035e576101ee565b80630f7b1f08116101c15780630f7b1f081461027757806315373e3d1461029757806317977c61146102b957806319e6e158146102d9576101ee565b80630251acae146101f357806302a251a31461021e57806306fdde03146102405780630d15fd7714610262575b600080fd5b3480156101ff57600080fd5b506102086105ca565b60405161021591906135eb565b60405180910390f35b34801561022a57600080fd5b506102336105d3565b60405161021591906135f6565b34801561024c57600080fd5b506102556105da565b60405161021591906136bc565b34801561026e57600080fd5b50610233610609565b34801561028357600080fd5b5061023361029236600461308e565b61061c565b3480156102a357600080fd5b506102b76102b236600461314a565b61063d565b005b3480156102c557600080fd5b506102336102d4366004612e9c565b61070d565b3480156102e557600080fd5b506102336102f436600461308e565b61071f565b34801561030557600080fd5b506102b7610314366004612eb7565b6107ce565b34801561032557600080fd5b506102336108e5565b34801561033a57600080fd5b5061034e61034936600461308e565b6108f2565b6040516102159493929190613532565b34801561036a57600080fd5b50610233610b81565b34801561037f57600080fd5b5061039361038e36600461308e565b610b86565b60405161021591906136a8565b3480156103ac57600080fd5b506102b76103bb36600461308e565b610d5e565b3480156103cc57600080fd5b506103d5611094565b60405161021591906133e3565b3480156103ee57600080fd5b506102b76103fd366004613179565b6110a3565b34801561040e57600080fd5b506102336112ee565b34801561042357600080fd5b506102b7611381565b34801561043857600080fd5b506102b76113fa565b34801561044d57600080fd5b5061023361045c36600461308e565b611436565b34801561046d57600080fd5b5061023361144f565b34801561048257600080fd5b506102b7610491366004612eb7565b611454565b3480156104a257600080fd5b506102b76104b13660046131cf565b611562565b3480156104c257600080fd5b506102b76104d1366004612e9c565b611651565b3480156104e257600080fd5b506102336116c8565b3480156104f757600080fd5b506102b76116d5565b34801561050c57600080fd5b506103d5611774565b34801561052157600080fd5b50610233611798565b34801561053657600080fd5b506102b761054536600461308e565b61179e565b34801561055657600080fd5b5061056a6105653660046130a6565b611a61565b604051610215919061428f565b34801561058357600080fd5b50610233610592366004612ee1565b611ad0565b3480156105a357600080fd5b506102086105b23660046130d2565b6121f4565b6102b76105c536600461308e565b612394565b60025460ff1681565b6143805b90565b60405180604001604052806013815260200172466169725369646520476f7665726e616e636560681b81525081565b60006106176001430361071f565b905090565b600061063582668e1bc9bf04000063ffffffff61257416565b90505b919050565b6040516337b87c3960e21b81526001600160a01b037f0000000000000000000000000000000000000000000000000000000000000000169063dee1f0e4906106899033906004016133e3565b60206040518083038186803b1580156106a157600080fd5b505afa1580156106b5573d6000803e3d6000fd5b505050506040513d601f19601f820116820180604052508101906106d99190612fbd565b6106fe5760405162461bcd60e51b81526004016106f5906140b1565b60405180910390fd5b6107093383836125a9565b5050565b60046020526000908152604090205481565b604051632cb3b39360e01b81526000906001600160a01b037f0000000000000000000000000000000000000000000000000000000000000000811691632cb3b3939161076f918690600401613463565b60206040518083038186803b15801561078757600080fd5b505afa15801561079b573d6000803e3d6000fd5b505050506040513d601f19601f820116820180604052508101906107bf9190613067565b6001600160e01b031692915050565b6000546001600160a01b031633146107f85760405162461bcd60e51b81526004016106f590613eb7565b7f00000000000000000000000000000000000000000000000000000000000000006001600160a01b0316630825f38f7f000000000000000000000000000000000000000000000000000000000000000060008560405160200161085b91906133e3565b604051602081830303815290604052856040518563ffffffff1660e01b815260040161088a94939291906133f7565b600060405180830381600087803b1580156108a457600080fd5b505af11580156108b8573d6000803e3d6000fd5b505050506040513d6000823e601f3d908101601f191682016040526108e09190810190612ff1565b505050565b6000610617610292610609565b6060806060806000600360008781526020019081526020016000209050806002018160030182600401836005018380548060200260200160405190810160405280929190818152602001828054801561097457602002820191906000526020600020905b81546001600160a01b03168152600190910190602001808311610956575b50505050509350828054806020026020016040519081016040528092919081815260200182805480156109c657602002820191906000526020600020905b8154815260200190600101908083116109b2575b5050505050925081805480602002602001604051908101604052809291908181526020016000905b82821015610a995760008481526020908190208301805460408051601f6002600019610100600187161502019094169390930492830185900485028101850190915281815292830182828015610a855780601f10610a5a57610100808354040283529160200191610a85565b820191906000526020600020905b815481529060010190602001808311610a6857829003601f168201915b5050505050815260200190600101906109ee565b50505050915080805480602002602001604051908101604052809291908181526020016000905b82821015610b6b5760008481526020908190208301805460408051601f6002600019610100600187161502019094169390930492830185900485028101850190915281815292830182828015610b575780601f10610b2c57610100808354040283529160200191610b57565b820191906000526020600020905b815481529060010190602001808311610b3a57829003601f168201915b505050505081526020019060010190610ac0565b5050505090509450945094509450509193509193565b600190565b60008160015410158015610b9a5750600082115b610bb65760405162461bcd60e51b81526004016106f590613db6565b6000828152600360205260409020600a81015460ff1615610bdb576002915050610638565b80600601544311610bf0576000915050610638565b80600701544311610c05576001915050610638565b6119c8610c23826009015483600801546127ff90919063ffffffff16565b6008830154610c3a9061271063ffffffff61282216565b81610c4157fe5b04111580610c615750610c5a610292826006015461071f565b8160080154105b15610c70576003915050610638565b6001810154610c83576004915050610638565b600a810154610100900460ff1615610c9f576007915050610638565b610d447f00000000000000000000000000000000000000000000000000000000000000006001600160a01b031663c1a287e26040518163ffffffff1660e01b815260040160206040518083038186803b158015610cfb57600080fd5b505afa158015610d0f573d6000803e3d6000fd5b505050506040513d601f19601f82011682018060405250810190610d339190612fd9565b60018301549063ffffffff6127ff16565b4210610d54576006915050610638565b6005915050610638565b6000610d6982610b86565b90506007816007811115610d7957fe5b1415610d975760405162461bcd60e51b81526004016106f5906141a3565b600082815260036020526040812090546001600160a01b0316331480610f155750610dc06116c8565b8154604051632cb3b39360e01b81526001600160a01b037f0000000000000000000000000000000000000000000000000000000000000000811692632cb3b39392610e18929190911690600019430190600401613463565b60206040518083038186803b158015610e3057600080fd5b505afa158015610e44573d6000803e3d6000fd5b505050506040513d601f19601f82011682018060405250810190610e689190613067565b6001600160e01b0316108015610f1557506040516337b87c3960e21b81526001600160a01b037f0000000000000000000000000000000000000000000000000000000000000000169063dee1f0e490610ec59033906004016133e3565b60206040518083038186803b158015610edd57600080fd5b505afa158015610ef1573d6000803e3d6000fd5b505050506040513d601f19601f82011682018060405250810190610f159190612fbd565b610f315760405162461bcd60e51b81526004016106f590613aa3565b600a8101805460ff19166001179055600281015460005b81811015611056577f00000000000000000000000000000000000000000000000000000000000000006001600160a01b031663591fcdfe846002018381548110610f8e57fe5b6000918252602090912001546003860180546001600160a01b039092169185908110610fb657fe5b9060005260206000200154866004018581548110610fd057fe5b90600052602060002001876005018681548110610fe957fe5b9060005260206000200188600101546040518663ffffffff1660e01b81526004016110189594939291906134f9565b600060405180830381600087803b15801561103257600080fd5b505af1158015611046573d6000803e3d6000fd5b505060019092019150610f489050565b507f789cf55be980739dad1d0699b93b58e806b51c9d96619bfa8fe0a28abaa7b30c8460405161108691906135f6565b60405180910390a150505050565b6000546001600160a01b031681565b60006040516110b19061334f565b604080519182900382208282019091526013825272466169725369646520476f7665726e616e636560681b6020909201919091527f9c54eb8c086175c0703486c1d874305af955fb8300c6c80a443c4583bd85f44761110e612859565b3060405160200161112294939291906135ff565b6040516020818303038152906040528051906020012090506000604051611148906133aa565b6040519081900381206111619189908990602001613672565b6040516020818303038152906040528051906020012090506000828260405160200161118e929190613334565b6040516020818303038152906040528051906020012090506000600182888888604051600081526020016040526040516111cb949392919061368a565b6020604051602081039080840390855afa1580156111ed573d6000803e3d6000fd5b5050604051601f1901519150506001600160a01b0381166112205760405162461bcd60e51b81526004016106f5906141f7565b6040516337b87c3960e21b81526001600160a01b037f0000000000000000000000000000000000000000000000000000000000000000169063dee1f0e49061126c9084906004016133e3565b60206040518083038186803b15801561128457600080fd5b505afa158015611298573d6000803e3d6000fd5b505050506040513d601f19601f820116820180604052508101906112bc9190612fbd565b6112d85760405162461bcd60e51b81526004016106f5906140b1565b6112e3818a8a6125a9565b505050505050505050565b60007f00000000000000000000000000000000000000000000000000000000000000006001600160a01b03166366e37eae6040518163ffffffff1660e01b815260040160206040518083038186803b15801561134957600080fd5b505afa15801561135d573d6000803e3d6000fd5b505050506040513d601f19601f820116820180604052508101906106179190612fd9565b6000546001600160a01b03163314806113c25750336001600160a01b037f000000000000000000000000000000000000000000000000000000000000000016145b6113de5760405162461bcd60e51b81526004016106f59061373d565b600080546001600160a01b03191690556002805460ff19169055565b6000546001600160a01b031633146114245760405162461bcd60e51b81526004016106f590613c35565b600080546001600160a01b0319169055565b600061063582662386f26fc1000063ffffffff61257416565b600a90565b6000546001600160a01b0316331461147e5760405162461bcd60e51b81526004016106f5906136cf565b7f00000000000000000000000000000000000000000000000000000000000000006001600160a01b0316633a66f9017f00000000000000000000000000000000000000000000000000000000000000006000856040516020016114e191906133e3565b604051602081830303815290604052856040518563ffffffff1660e01b815260040161151094939291906133f7565b602060405180830381600087803b15801561152a57600080fd5b505af115801561153e573d6000803e3d6000fd5b505050506040513d601f19601f820116820180604052508101906108e09190612fd9565b6000546001600160a01b0316331461158c5760405162461bcd60e51b81526004016106f590613e5a565b600361159785610b86565b60078111156115a257fe5b146115bf5760405162461bcd60e51b81526004016106f590613d59565b6000848152600360205260409020600a81015462010000900460ff166115f75760405162461bcd60e51b81526004016106f590613fa3565b600b810184905560088101839055600981018290556040517f45bc1383576886e50a7090e142147e288e747ebf2be6c1babec5ef1e9ba570b2906116429087908790879087906142f0565b60405180910390a15050505050565b336001600160a01b037f000000000000000000000000000000000000000000000000000000000000000016146116995760405162461bcd60e51b81526004016106f590613c89565b600080546001600160a01b0319166001600160a01b03929092169190911790556002805460ff19166001179055565b600061061761045c610609565b6000546001600160a01b031633146116ff5760405162461bcd60e51b81526004016106f5906140fe565b7f00000000000000000000000000000000000000000000000000000000000000006001600160a01b0316630e18b6816040518163ffffffff1660e01b8152600401600060405180830381600087803b15801561175a57600080fd5b505af115801561176e573d6000803e3d6000fd5b50505050565b7f000000000000000000000000000000000000000000000000000000000000000081565b60015481565b60046117a982610b86565b60078111156117b457fe5b146117d15760405162461bcd60e51b81526004016106f59061386c565b600081815260036020908152604080832060028101548251630d48571f60e31b815292519194909390926001600160a01b037f00000000000000000000000000000000000000000000000000000000000000001692636a42b8f892600480840193919291829003018186803b15801561184957600080fd5b505afa15801561185d573d6000803e3d6000fd5b505050506040513d601f19601f820116820180604052508101906118819190612fd9565b4201905060005b82811015611a2757611a1f8460020182815481106118a257fe5b6000918252602090912001546003860180546001600160a01b0390921691849081106118ca57fe5b90600052602060002001548660040184815481106118e457fe5b600091825260209182902001805460408051601f60026000196101006001871615020190941693909304928301859004850281018501909152818152928301828280156119725780601f1061194757610100808354040283529160200191611972565b820191906000526020600020905b81548152906001019060200180831161195557829003601f168201915b505050505087600501858154811061198657fe5b600091825260209182902001805460408051601f6002600019610100600187161502019094169390930492830185900485028101850190915281815292830182828015611a145780601f106119e957610100808354040283529160200191611a14565b820191906000526020600020905b8154815290600101906020018083116119f757829003601f168201915b50505050508661285d565b600101611888565b50600183018190556040517f9a2e42fd6722813d69113e7d0079d3d940171428df7373df9c7f7617cfda289290611086908690849061430b565b611a696129f2565b5060008281526003602090815260408083206001600160a01b0385168452600c018252918290208251606081018452905460ff80821615158352610100820416151592820192909252620100009091046001600160e01b0316918101919091525b92915050565b6000611ada6116c8565b604051632cb3b39360e01b81526001600160a01b037f00000000000000000000000000000000000000000000000000000000000000001690632cb3b39390611b2c903390600019430190600401613463565b60206040518083038186803b158015611b4457600080fd5b505afa158015611b58573d6000803e3d6000fd5b505050506040513d601f19601f82011682018060405250810190611b7c9190613067565b6001600160e01b0316118015611c2957506040516337b87c3960e21b81526001600160a01b037f0000000000000000000000000000000000000000000000000000000000000000169063dee1f0e490611bd99033906004016133e3565b60206040518083038186803b158015611bf157600080fd5b505afa158015611c05573d6000803e3d6000fd5b505050506040513d601f19601f82011682018060405250810190611c299190612fbd565b611c455760405162461bcd60e51b81526004016106f5906138d4565b85518751148015611c57575084518751145b8015611c64575083518751145b611c805760405162461bcd60e51b81526004016106f590613b87565b8651611c9e5760405162461bcd60e51b81526004016106f590613931565b611ca661144f565b87511115611cc65760405162461bcd60e51b81526004016106f590613bef565b604051632cb3b39360e01b81526000906001600160a01b037f00000000000000000000000000000000000000000000000000000000000000001690632cb3b39390611d1b903390600019430190600401613463565b60206040518083038186803b158015611d3357600080fd5b505afa158015611d47573d6000803e3d6000fd5b505050506040513d601f19601f82011682018060405250810190611d6b9190613067565b6001600160e01b0316905060007f00000000000000000000000000000000000000000000000000000000000000006001600160a01b0316632cb3b3936000600143036040518363ffffffff1660e01b8152600401611dca929190613463565b60206040518083038186803b158015611de257600080fd5b505afa158015611df6573d6000803e3d6000fd5b505050506040513d601f19601f82011682018060405250810190611e1a9190613067565b6001600160e01b03169050600181611e3984606463ffffffff61282216565b81611e4057fe5b041015611e5f5760405162461bcd60e51b81526004016106f5906137b2565b8315611fb1578851600114611e865760405162461bcd60e51b81526004016106f590613a2c565b600087600081518110611e9557fe5b6020026020010151604051602001611ead9190613318565b604051602081830303815290604052805190602001209050306001600160a01b03168a600081518110611edc57fe5b60200260200101516001600160a01b0316148015611f1957507f000000000000000000000000000000000000000000000000000000000000000081145b80611f9357507f00000000000000000000000000000000000000000000000000000000000000006001600160a01b03168a600081518110611f5657fe5b60200260200101516001600160a01b0316148015611f9357507f000000000000000000000000000000000000000000000000000000000000000081145b611faf5760405162461bcd60e51b81526004016106f590614010565b505b33600090815260046020526040902054801561202e576000611fd282610b86565b90506001816007811115611fe257fe5b14156120005760405162461bcd60e51b81526004016106f590613f27565b600081600781111561200e57fe5b141561202c5760405162461bcd60e51b81526004016106f5906139a9565b505b6000612038610b81565b4301905060006120466105d3565b8201905060016000815480929190600101919050555060006001549050336003600083815260200190815260200160002060000160006101000a8154816001600160a01b0302191690836001600160a01b031602179055508c6003600083815260200190815260200160002060020190805190602001906120c8929190612a12565b5060008181526003602081815260409092208e516120ee939190920191908f0190612a77565b5060008181526003602090815260409091208c51612114926004909201918e0190612abe565b5060008181526003602090815260409091208b5161213a926005909201918d0190612b17565b50600081815260036020526040902060068101849055600701829055876121665760025460ff16612169565b60005b6000828152600360209081526040808320600a018054941515620100000262ff000019909516949094179093553380835260049091529082902083905590517fa00fcf4f5e03cc2f4818b8f380a8f2a06479e49bf0765e5fec09aebdaf922bbc916121dc91849190879087908f906142bd565b60405180910390a19c9b505050505050505050505050565b60008381526003602090815260408083206006015490519091839161221d91889185910161430b565b60408051601f198184030181529190528051602090910120905060005b84811015612375578186868381811061224f57fe5b905060600201604051602001612266929190613623565b60405160208183030381529060405280519060200120915085858281811061228a57fe5b905060600201602001357f00000000000000000000000000000000000000000000000000000000000000006001600160a01b0316632cb3b3938888858181106122cf57fe5b6122e59260206060909202019081019150612e9c565b866040518363ffffffff1660e01b8152600401612303929190613463565b60206040518083038186803b15801561231b57600080fd5b505afa15801561232f573d6000803e3d6000fd5b505050506040513d601f19601f820116820180604052508101906123539190613067565b6001600160e01b03161461236d576000935050505061238d565b60010161223a565b506000868152600360205260409020600b0154149150505b9392505050565b600561239f82610b86565b60078111156123aa57fe5b146123c75760405162461bcd60e51b81526004016106f590613b1e565b6000818152600360205260408120600a8101805461ff001916610100179055600281015490915b81811015612537577f00000000000000000000000000000000000000000000000000000000000000006001600160a01b0316630825f38f84600301838154811061243457fe5b906000526020600020015485600201848154811061244e57fe5b6000918252602090912001546003870180546001600160a01b03909216918690811061247657fe5b906000526020600020015487600401868154811061249057fe5b906000526020600020018860050187815481106124a957fe5b9060005260206000200189600101546040518763ffffffff1660e01b81526004016124d89594939291906134f9565b6000604051808303818588803b1580156124f157600080fd5b505af1158015612505573d6000803e3d6000fd5b50505050506040513d6000823e601f3d908101601f1916820160405261252e9190810190612ff1565b506001016123ee565b507f712ae1383f79ac853f8d882153778e0260ef8f03b504e2866e0593e04d2b291f8360405161256791906135f6565b60405180910390a1505050565b6000670de0b6b3a764000061259a61258c8585612822565b6706f05b59d3b200006127ff565b816125a157fe5b049392505050565b60016125b483610b86565b60078111156125bf57fe5b146125dc5760405162461bcd60e51b81526004016106f59061415b565b6000828152600360205260409020600a81015462010000900460ff16156126155760405162461bcd60e51b81526004016106f590613dfd565b6001600160a01b0384166000908152600c820160205260409020805460ff16156126515760405162461bcd60e51b81526004016106f590614244565b6006820154604051632cb3b39360e01b81526000916001600160a01b037f00000000000000000000000000000000000000000000000000000000000000001691632cb3b393916126a6918a9190600401613463565b60206040518083038186803b1580156126be57600080fd5b505afa1580156126d2573d6000803e3d6000fd5b505050506040513d601f19601f820116820180604052508101906126f69190613067565b90506127006112ee565b6001600160e01b0316816001600160e01b031610156127315760405162461bcd60e51b81526004016106f590613822565b831561275f576008830154612755906001600160e01b03831663ffffffff6127ff16565b6008840155612783565b600983015461277d906001600160e01b03831663ffffffff6127ff16565b60098401555b8154600160ff199091161761ff001916610100851515021762010000600160f01b031916620100006001600160e01b038316021782556040517f877856338e13f63d0c36822ff0ef736b80934cd90574a3a5bc9262c39d217c46906127ef90889088908890869061347c565b60405180910390a1505050505050565b80820182811015611aca5760405162461bcd60e51b81526004016106f590613af0565b600081158061283d5750508082028282828161283a57fe5b04145b611aca5760405162461bcd60e51b81526004016106f59061397b565b4690565b7f00000000000000000000000000000000000000000000000000000000000000006001600160a01b031663f2b0653786868686866040516020016128a59594939291906134ad565b604051602081830303815290604052805190602001206040518263ffffffff1660e01b81526004016128d791906135f6565b60206040518083038186803b1580156128ef57600080fd5b505afa158015612903573d6000803e3d6000fd5b505050506040513d601f19601f820116820180604052508101906129279190612fbd565b156129445760405162461bcd60e51b81526004016106f590613cf1565b604051633a66f90160e01b81526001600160a01b037f00000000000000000000000000000000000000000000000000000000000000001690633a66f9019061299890889088908890889088906004016134ad565b602060405180830381600087803b1580156129b257600080fd5b505af11580156129c6573d6000803e3d6000fd5b505050506040513d601f19601f820116820180604052508101906129ea9190612fd9565b505050505050565b604080516060810182526000808252602082018190529181019190915290565b828054828255906000526020600020908101928215612a67579160200282015b82811115612a6757825182546001600160a01b0319166001600160a01b03909116178255602090920191600190910190612a32565b50612a73929150612b70565b5090565b828054828255906000526020600020908101928215612ab2579160200282015b82811115612ab2578251825591602001919060010190612a97565b50612a73929150612b94565b828054828255906000526020600020908101928215612b0b579160200282015b82811115612b0b5782518051612afb918491602090910190612bae565b5091602001919060010190612ade565b50612a73929150612c1b565b828054828255906000526020600020908101928215612b64579160200282015b82811115612b645782518051612b54918491602090910190612bae565b5091602001919060010190612b37565b50612a73929150612c3e565b6105d791905b80821115612a735780546001600160a01b0319168155600101612b76565b6105d791905b80821115612a735760008155600101612b9a565b828054600181600116156101000203166002900490600052602060002090601f016020900481019282601f10612bef57805160ff1916838001178555612ab2565b82800160010185558215612ab25791820182811115612ab2578251825591602001919060010190612a97565b6105d791905b80821115612a73576000612c358282612c61565b50600101612c21565b6105d791905b80821115612a73576000612c588282612c61565b50600101612c44565b50805460018160011615610100020316600290046000825580601f10612c875750612ca5565b601f016020900490600052602060002090810190612ca59190612b94565b50565b80356001600160a01b0381168114611aca57600080fd5b600082601f830112612ccf578081fd5b8135612ce2612cdd82614340565b614319565b818152915060208083019084810181840286018201871015612d0357600080fd5b60005b84811015612d2a57612d188883612ca8565b84529282019290820190600101612d06565b505050505092915050565b600082601f830112612d45578081fd5b8135612d53612cdd82614340565b818152915060208083019084810160005b84811015612d2a57612d7b888484358a0101612e4e565b84529282019290820190600101612d64565b600082601f830112612d9d578081fd5b8135612dab612cdd82614340565b818152915060208083019084810160005b84811015612d2a57612dd3888484358a0101612e4e565b84529282019290820190600101612dbc565b600082601f830112612df5578081fd5b8135612e03612cdd82614340565b818152915060208083019084810181840286018201871015612e2457600080fd5b60005b84811015612d2a57813584529282019290820190600101612e27565b8035611aca816143bc565b600082601f830112612e5e578081fd5b8135612e6c612cdd82614360565b9150808252836020828501011115612e8357600080fd5b8060208401602084013760009082016020015292915050565b600060208284031215612ead578081fd5b61238d8383612ca8565b60008060408385031215612ec9578081fd5b612ed38484612ca8565b946020939093013593505050565b60008060008060008060c08789031215612ef9578182fd5b863567ffffffffffffffff80821115612f10578384fd5b612f1c8a838b01612cbf565b97506020890135915080821115612f31578384fd5b612f3d8a838b01612de5565b96506040890135915080821115612f52578384fd5b612f5e8a838b01612d8d565b95506060890135915080821115612f73578384fd5b612f7f8a838b01612d35565b94506080890135915080821115612f94578384fd5b50612fa189828a01612e4e565b925050612fb18860a08901612e43565b90509295509295509295565b600060208284031215612fce578081fd5b815161238d816143bc565b600060208284031215612fea578081fd5b5051919050565b600060208284031215613002578081fd5b815167ffffffffffffffff811115613018578182fd5b80830184601f820112613029578283fd5b80519150613039612cdd83614360565b82815285602084840101111561304d578384fd5b61305e836020830160208501614390565b95945050505050565b600060208284031215613078578081fd5b81516001600160e01b038116811461238d578182fd5b60006020828403121561309f578081fd5b5035919050565b600080604083850312156130b8578182fd5b823591506130c98460208501612ca8565b90509250929050565b6000806000604084860312156130e6578081fd5b83359250602084013567ffffffffffffffff80821115613104578283fd5b81860187601f820112613115578384fd5b8035925081831115613125578384fd5b876020606085028301011115613139578384fd5b949760209095019650909450505050565b6000806040838503121561315c578182fd5b82359150602083013561316e816143bc565b809150509250929050565b600080600080600060a08688031215613190578283fd5b8535945060208601356131a2816143bc565b9350604086013560ff811681146131b7578384fd5b94979396509394606081013594506080013592915050565b600080600080608085870312156131e4578182fd5b5050823594602084013594506040840135936060013592509050565b6001600160a01b0316815260200190565b815260200190565b6000815180845260208085019450848183028601828601855b8581101561325c57838303895261324a838351613269565b98850198925090840190600101613232565b5090979650505050505050565b60008151808452613281816020860160208601614390565b601f01601f19169290920160200192915050565b600081546001808216600081146132b357600181146132d15761330f565b60028304607f16865260ff198316602087015260408601935061330f565b600283048087526132e186614384565b60005b828110156133055781546020828b01015284820191506020810190506132e4565b8801602001955050505b50505092915050565b6000825161332a818460208701614390565b9190910192915050565b61190160f01b81526002810192909252602282015260420190565b7f454950373132446f6d61696e28737472696e67206e616d652c75696e7432353681527f20636861696e49642c6164647265737320766572696679696e67436f6e74726160208201526263742960e81b604082015260430190565b7f42616c6c6f742875696e743235362070726f706f73616c49642c626f6f6c20738152667570706f72742960c81b602082015260270190565b6001600160a01b0391909116815260200190565b600060018060a01b038616825284602083015260a06040830152601860a08301527f73657450656e64696e6741646d696e286164647265737329000000000000000060c083015260e0606083015261345260e0830185613269565b905082608083015295945050505050565b6001600160a01b03929092168252602082015260400190565b6001600160a01b039490941684526020840192909252151560408301526001600160e01b0316606082015260800190565b600060018060a01b038716825285602083015260a060408301526134d460a0830186613269565b82810360608401526134e68186613269565b9150508260808301529695505050505050565b600060018060a01b038716825285602083015260a0604083015261352060a0830186613295565b82810360608401526134e68186613295565b6000608082016080835280875161354981846135f6565b915060209250828901845b8281101561357557613567848351613200565b935090840190600101613554565b5050508381038285015280875161358c81846135f6565b91508389019250845b818110156135b6576135a8838551613211565b938501939250600101613595565b505084810360408601526135ca8188613219565b9250505082810360608401526135e08185613219565b979650505050505050565b901515815260200190565b90815260200190565b938452602084019290925260408301526001600160a01b0316606082015260800190565b8281526080810182356001600160a01b03811680821461364257600080fd5b8060208501525050602083013560408301526040830135613662816143bc565b8015156060840152509392505050565b92835260208301919091521515604082015260600190565b93845260ff9290921660208401526040830152606082015260800190565b60208101600883106136b657fe5b91905290565b60006020825261238d6020830184613269565b60208082526048908201527f466169725369646544414f3a3a5f5f717565756553657454696d656c6f636b5060408201527f656e64696e6741646d696e3a2073656e646572206d75737420626520676f762060608201526733bab0b93234b0b760c11b608082015260a00190565b6020808252604f908201527f466169725369646544414f3a3a64697361626c654f6666636861696e566f746960408201527f6e673a2073656e646572206d75737420626520677561726469616e206f72207460608201526e696d656c6f636b206164647265737360881b608082015260a00190565b6020808252604a908201527f466169725369646544414f3a3a70726f706f73653a206e656564203125206f7260408201527f206d6f7265206f66207468652066756c6c206e6574776f726b20436f6e76696360608201526974696f6e2053636f726560b01b608082015260a00190565b6020808252602a908201527f466169725369646544414f3a3a5f63617374566f74653a20696e73756666696360408201526969656e7420766f74657360b01b606082015260800190565b60208082526042908201527f466169725369646544414f3a3a71756575653a2070726f706f73616c2063616e60408201527f206f6e6c79206265207175657565642069662069742069732073756363656564606082015261195960f21b608082015260a00190565b6020808252603d908201527f466169725369646544414f3a3a70726f706f73653a2070726f706f736572207660408201527f6f7465732062656c6f772070726f706f73616c207468726573686f6c64000000606082015260800190565b6020808252602a908201527f466169725369646544414f3a3a70726f706f73653a206d7573742070726f7669604082015269646520616374696f6e7360b01b606082015260800190565b60208082526014908201527364732d6d6174682d6d756c2d6f766572666c6f7760601b604082015260600190565b60208082526057908201527f466169725369646544414f3a3a70726f706f73653a206f6e65206c697665207060408201527f726f706f73616c207065722070726f706f7365722c20666f756e6420616e206160608201527f6c72656164792070656e64696e672070726f706f73616c000000000000000000608082015260a00190565b60208082526051908201527f466169725369646544414f3a3a70726f706f73653a206f6e6c7920612073696e60408201527f676c6520616374696f6e206973207065726d697474656420666f72206120666f60608201527072636564206f6e636861696e20766f746560781b608082015260a00190565b6020808252602d908201527f466169725369646544414f3a3a63616e63656c3a2070726f706f73657220616260408201526c1bdd99481d1a1c995cda1bdb19609a1b606082015260800190565b60208082526014908201527364732d6d6174682d6164642d6f766572666c6f7760601b604082015260600190565b60208082526043908201527f466169725369646544414f3a3a657865637574653a2070726f706f73616c206360408201527f616e206f6e6c79206265206578656375746564206966206974206973207175656060820152621d595960ea1b608082015260a00190565b60208082526042908201527f466169725369646544414f3a3a70726f706f73653a2070726f706f73616c206660408201527f756e6374696f6e20696e666f726d6174696f6e206172697479206d69736d61746060820152610c6d60f31b608082015260a00190565b60208082526026908201527f466169725369646544414f3a3a70726f706f73653a20746f6f206d616e7920616040820152656374696f6e7360d01b606082015260800190565b60208082526034908201527f466169725369646544414f3a3a5f5f61626469636174653a2073656e6465722060408201527336bab9ba1031329033b7bb1033bab0b93234b0b760611b606082015260800190565b60208082526042908201527f466169725369646544414f3a3a656e61626c654f6666636861696e566f74696e60408201527f673a2073656e646572206d7573742062652074696d656c6f636b206164647265606082015261737360f01b608082015260a00190565b60208082526042908201527f466169725369646544414f3a3a5f71756575654f725265766572743a2070726f60408201527f706f73616c20616374696f6e20616c7265616479207175657565642061742065606082015261746160f01b608082015260a00190565b60208082526037908201527f466169725369646544414f3a3a5f5f636173744f6666636861696e566f74657360408201527f3a20766f74696e6720697320696e2070726f6772657373000000000000000000606082015260800190565b60208082526027908201527f466169725369646544414f3a3a73746174653a20696e76616c69642070726f706040820152661bdcd85b081a5960ca1b606082015260800190565b6020808252603e908201527f466169725369646544414f3a3a5f63617374566f74653a2070726f706f73616c60408201527f206973206d65616e7420746f20626520766f746564206f6666636861696e0000606082015260800190565b6020808252603d908201527f466169725369646544414f3a3a5f5f636173744f6666636861696e566f74657360408201527f3a2073656e646572206d75737420626520676f7620677561726469616e000000606082015260800190565b6020808252604a908201527f466169725369646544414f3a3a5f5f6578656375746553657454696d656c6f6360408201527f6b50656e64696e6741646d696e3a2073656e646572206d75737420626520676f6060820152693b1033bab0b93234b0b760b11b608082015260a00190565b60208082526056908201527f466169725369646544414f3a3a70726f706f73653a206f6e65206c697665207060408201527f726f706f73616c207065722070726f706f7365722c20666f756e6420616e20616060820152751b1c9958591e481858dd1a5d99481c1c9bdc1bdcd85b60521b608082015260a00190565b60208082526047908201527f466169725369646544414f3a3a5f5f636173744f6666636861696e566f74657360408201527f3a2070726f706f73616c206973206d65616e7420746f20626520766f7465642060608201526637b731b430b4b760c91b608082015260a00190565b60208082526075908201527f466169725369646544414f3a3a70726f706f73653a206f6e6c792061646a757360408201527f746d656e74206f6620676f7665726e616e6365207468726573686f6c64206f7260608201527f207265766f636174696f6e206f66206f6666636861696e2070726f636573732060808201527431b0b7103132903337b931b2b21037b731b430b4b760591b60a082015260c00190565b6020808252602d908201527f466169725369646544414f3a3a63617374566f74653a206e6f7420706172742060408201526c6f6620676f7665726e616e636560981b606082015260800190565b60208082526037908201527f466169725369646544414f3a3a5f5f61636365707441646d696e3a2073656e6460408201527f6572206d75737420626520676f7620677561726469616e000000000000000000606082015260800190565b60208082526028908201527f466169725369646544414f3a3a5f63617374566f74653a20766f74696e6720696040820152671cc818db1bdcd95960c21b606082015260800190565b60208082526034908201527f466169725369646544414f3a3a63616e63656c3a2063616e6e6f742063616e63604082015273195b08195e1958dd5d1959081c1c9bdc1bdcd85b60621b606082015260800190565b6020808252602d908201527f466169725369646544414f3a3a63617374566f746542795369673a20696e766160408201526c6c6964207369676e617475726560981b606082015260800190565b6020808252602b908201527f466169725369646544414f3a3a5f63617374566f74653a20766f74657220616c60408201526a1c9958591e481d9bdd195960aa1b606082015260800190565b8151151581526020808301511515908201526040918201516001600160e01b03169181019190915260600190565b600086825260018060a01b038616602083015284604083015283606083015260a060808301526135e060a0830184613269565b93845260208401929092526040830152606082015260800190565b918252602082015260400190565b60405181810167ffffffffffffffff8111828210171561433857600080fd5b604052919050565b600067ffffffffffffffff821115614356578081fd5b5060209081020190565b600067ffffffffffffffff821115614376578081fd5b50601f01601f191660200190565b60009081526020902090565b60005b838110156143ab578181015183820152602001614393565b8381111561176e5750506000910152565b8015158114612ca557600080fdfea2646970667358221220fd92d77e253e9f239a8df98dc7bd52f01845f55d2c0f675b41f5eb14ab3bc06464736f6c63430006080033",
  "linkReferences": {},
  "deployedLinkReferences": {}
}