{
  "_format": "hh-sol-artifact-1",
  "contractName": "ABC",
  "sourceName": "contracts/token/ABC.sol",
  "abi": [
    {
      "inputs": [],
      "name": "gearingFactor",
      "outputs": [
        {
          "internalType": "uint256",
          "name": "",
          "type": "uint256"
        }
      ],
      "stateMutability": "view",
      "type": "function"
    }
  ],
  "bytecode": "0x60806040526103e8600055348015601557600080fd5b506081806100246000396000f3fe6080604052348015600f57600080fd5b506004361060285760003560e01c8063a8a41a6814602d575b600080fd5b60336045565b60408051918252519081900360200190f35b6000548156fea264697066735822122053b358ffeae4b37544d0b7b4c542cd85e8daa052047b03a491a7f905771631d064736f6c63430006080033",
  "linkReferences": {},
  "deployedLinkReferences": {}
}