{
  "_format": "hh-sol-artifact-1",
  "contractName": "FSD",
  "sourceName": "contracts/token/FSD.sol",
  "abi": [
    {
      "inputs": [
        {
          "internalType": "address",
          "name": "_fundingPool",
          "type": "address"
        },
        {
          "internalType": "address",
          "name": "_timelock",
          "type": "address"
        }
      ],
      "stateMutability": "nonpayable",
      "type": "constructor"
    },
    {
      "anonymous": false,
      "inputs": [
        {
          "indexed": true,
          "internalType": "address",
          "name": "owner",
          "type": "address"
        },
        {
          "indexed": true,
          "internalType": "address",
          "name": "spender",
          "type": "address"
        },
        {
          "indexed": false,
          "internalType": "uint256",
          "name": "value",
          "type": "uint256"
        }
      ],
      "name": "Approval",
      "type": "event"
    },
    {
      "anonymous": false,
      "inputs": [
        {
          "indexed": true,
          "internalType": "address",
          "name": "beneficiary",
          "type": "address"
        },
        {
          "indexed": false,
          "internalType": "uint256",
          "name": "amount",
          "type": "uint256"
        }
      ],
      "name": "GovernanceTributeClaimed",
      "type": "event"
    },
    {
      "anonymous": false,
      "inputs": [
        {
          "indexed": true,
          "internalType": "address",
          "name": "previousOwner",
          "type": "address"
        },
        {
          "indexed": true,
          "internalType": "address",
          "name": "newOwner",
          "type": "address"
        }
      ],
      "name": "OwnershipTransferred",
      "type": "event"
    },
    {
      "anonymous": false,
      "inputs": [],
      "name": "PauseToggled",
      "type": "event"
    },
    {
      "anonymous": false,
      "inputs": [
        {
          "indexed": true,
          "internalType": "address",
          "name": "from",
          "type": "address"
        },
        {
          "indexed": true,
          "internalType": "address",
          "name": "to",
          "type": "address"
        },
        {
          "indexed": false,
          "internalType": "uint256",
          "name": "value",
          "type": "uint256"
        }
      ],
      "name": "Transfer",
      "type": "event"
    },
    {
      "anonymous": false,
      "inputs": [
        {
          "indexed": true,
          "internalType": "address",
          "name": "beneficiary",
          "type": "address"
        },
        {
          "indexed": false,
          "internalType": "uint256",
          "name": "amount",
          "type": "uint256"
        }
      ],
      "name": "TributeClaimed",
      "type": "event"
    },
    {
      "inputs": [],
      "name": "DOMAIN_SEPARATOR",
      "outputs": [
        {
          "internalType": "bytes32",
          "name": "",
          "type": "bytes32"
        }
      ],
      "stateMutability": "view",
      "type": "function"
    },
    {
      "inputs": [],
      "name": "abdicate",
      "outputs": [],
      "stateMutability": "nonpayable",
      "type": "function"
    },
    {
      "inputs": [
        {
          "internalType": "uint256",
          "name": "id",
          "type": "uint256"
        }
      ],
      "name": "acquireConviction",
      "outputs": [
        {
          "internalType": "uint256",
          "name": "",
          "type": "uint256"
        }
      ],
      "stateMutability": "nonpayable",
      "type": "function"
    },
    {
      "inputs": [
        {
          "internalType": "uint256",
          "name": "registrationTribute",
          "type": "uint256"
        }
      ],
      "name": "addRegistrationTribute",
      "outputs": [],
      "stateMutability": "nonpayable",
      "type": "function"
    },
    {
      "inputs": [
        {
          "internalType": "uint256",
          "name": "registrationTribute",
          "type": "uint256"
        }
      ],
      "name": "addRegistrationTributeGovernance",
      "outputs": [],
      "stateMutability": "nonpayable",
      "type": "function"
    },
    {
      "inputs": [
        {
          "internalType": "address",
          "name": "owner",
          "type": "address"
        },
        {
          "internalType": "address",
          "name": "spender",
          "type": "address"
        }
      ],
      "name": "allowance",
      "outputs": [
        {
          "internalType": "uint256",
          "name": "",
          "type": "uint256"
        }
      ],
      "stateMutability": "view",
      "type": "function"
    },
    {
      "inputs": [
        {
          "internalType": "address",
          "name": "spender",
          "type": "address"
        },
        {
          "internalType": "uint256",
          "name": "amount",
          "type": "uint256"
        }
      ],
      "name": "approve",
      "outputs": [
        {
          "internalType": "bool",
          "name": "",
          "type": "bool"
        }
      ],
      "stateMutability": "nonpayable",
      "type": "function"
    },
    {
      "inputs": [
        {
          "internalType": "uint256",
          "name": "num",
          "type": "uint256"
        }
      ],
      "name": "availableGovernanceTribute",
      "outputs": [
        {
          "internalType": "uint256",
          "name": "",
          "type": "uint256"
        }
      ],
      "stateMutability": "view",
      "type": "function"
    },
    {
      "inputs": [
        {
          "internalType": "uint256",
          "name": "num",
          "type": "uint256"
        }
      ],
      "name": "availableTribute",
      "outputs": [
        {
          "internalType": "uint256",
          "name": "",
          "type": "uint256"
        }
      ],
      "stateMutability": "view",
      "type": "function"
    },
    {
      "inputs": [
        {
          "internalType": "address",
          "name": "",
          "type": "address"
        }
      ],
      "name": "availableWithdrawal",
      "outputs": [
        {
          "internalType": "uint256",
          "name": "",
          "type": "uint256"
        }
      ],
      "stateMutability": "view",
      "type": "function"
    },
    {
      "inputs": [
        {
          "internalType": "address",
          "name": "account",
          "type": "address"
        }
      ],
      "name": "balanceOf",
      "outputs": [
        {
          "internalType": "uint256",
          "name": "",
          "type": "uint256"
        }
      ],
      "stateMutability": "view",
      "type": "function"
    },
    {
      "inputs": [
        {
          "internalType": "uint256",
          "name": "capitalDesired",
          "type": "uint256"
        },
        {
          "internalType": "uint256",
          "name": "tokenMaximum",
          "type": "uint256"
        }
      ],
      "name": "burn",
      "outputs": [],
      "stateMutability": "nonpayable",
      "type": "function"
    },
    {
      "inputs": [
        {
          "internalType": "address",
          "name": "",
          "type": "address"
        },
        {
          "internalType": "uint32",
          "name": "",
          "type": "uint32"
        }
      ],
      "name": "checkpoints",
      "outputs": [
        {
          "internalType": "uint32",
          "name": "fromBlock",
          "type": "uint32"
        },
        {
          "internalType": "uint224",
          "name": "convictionScore",
          "type": "uint224"
        },
        {
          "internalType": "uint256",
          "name": "ts",
          "type": "uint256"
        }
      ],
      "stateMutability": "view",
      "type": "function"
    },
    {
      "inputs": [
        {
          "internalType": "uint256",
          "name": "num",
          "type": "uint256"
        }
      ],
      "name": "claimAvailableTributes",
      "outputs": [],
      "stateMutability": "nonpayable",
      "type": "function"
    },
    {
      "inputs": [
        {
          "internalType": "address",
          "name": "",
          "type": "address"
        }
      ],
      "name": "convictionless",
      "outputs": [
        {
          "internalType": "bool",
          "name": "",
          "type": "bool"
        }
      ],
      "stateMutability": "view",
      "type": "function"
    },
    {
      "inputs": [],
      "name": "currentPhase",
      "outputs": [
        {
          "internalType": "enum IFSD.Phase",
          "name": "",
          "type": "uint8"
        }
      ],
      "stateMutability": "view",
      "type": "function"
    },
    {
      "inputs": [],
      "name": "decimals",
      "outputs": [
        {
          "internalType": "uint8",
          "name": "",
          "type": "uint8"
        }
      ],
      "stateMutability": "view",
      "type": "function"
    },
    {
      "inputs": [
        {
          "internalType": "address",
          "name": "spender",
          "type": "address"
        },
        {
          "internalType": "uint256",
          "name": "subtractedValue",
          "type": "uint256"
        }
      ],
      "name": "decreaseAllowance",
      "outputs": [
        {
          "internalType": "bool",
          "name": "",
          "type": "bool"
        }
      ],
      "stateMutability": "nonpayable",
      "type": "function"
    },
    {
      "inputs": [],
      "name": "fairSideConviction",
      "outputs": [
        {
          "internalType": "contract IFairSideConviction",
          "name": "",
          "type": "address"
        }
      ],
      "stateMutability": "view",
      "type": "function"
    },
    {
      "inputs": [],
      "name": "fsdNetwork",
      "outputs": [
        {
          "internalType": "contract IFSDNetwork",
          "name": "",
          "type": "address"
        }
      ],
      "stateMutability": "view",
      "type": "function"
    },
    {
      "inputs": [],
      "name": "fundingPool",
      "outputs": [
        {
          "internalType": "address",
          "name": "",
          "type": "address"
        }
      ],
      "stateMutability": "view",
      "type": "function"
    },
    {
      "inputs": [],
      "name": "gearingFactor",
      "outputs": [
        {
          "internalType": "uint256",
          "name": "",
          "type": "uint256"
        }
      ],
      "stateMutability": "view",
      "type": "function"
    },
    {
      "inputs": [
        {
          "internalType": "address",
          "name": "account",
          "type": "address"
        },
        {
          "internalType": "uint256",
          "name": "blockNumber",
          "type": "uint256"
        }
      ],
      "name": "getPriorConvictionScore",
      "outputs": [
        {
          "internalType": "uint224",
          "name": "convictionScore",
          "type": "uint224"
        }
      ],
      "stateMutability": "view",
      "type": "function"
    },
    {
      "inputs": [],
      "name": "getReserveBalance",
      "outputs": [
        {
          "internalType": "uint256",
          "name": "",
          "type": "uint256"
        }
      ],
      "stateMutability": "view",
      "type": "function"
    },
    {
      "inputs": [
        {
          "internalType": "uint256",
          "name": "withdrawal",
          "type": "uint256"
        }
      ],
      "name": "getTokensBurned",
      "outputs": [
        {
          "internalType": "uint256",
          "name": "",
          "type": "uint256"
        }
      ],
      "stateMutability": "view",
      "type": "function"
    },
    {
      "inputs": [
        {
          "internalType": "uint256",
          "name": "investment",
          "type": "uint256"
        }
      ],
      "name": "getTokensMinted",
      "outputs": [
        {
          "internalType": "uint256",
          "name": "",
          "type": "uint256"
        }
      ],
      "stateMutability": "view",
      "type": "function"
    },
    {
      "inputs": [],
      "name": "governanceMinimumBalance",
      "outputs": [
        {
          "internalType": "int256",
          "name": "",
          "type": "int256"
        }
      ],
      "stateMutability": "view",
      "type": "function"
    },
    {
      "inputs": [],
      "name": "governanceThreshold",
      "outputs": [
        {
          "internalType": "uint256",
          "name": "",
          "type": "uint256"
        }
      ],
      "stateMutability": "view",
      "type": "function"
    },
    {
      "inputs": [
        {
          "internalType": "address",
          "name": "spender",
          "type": "address"
        },
        {
          "internalType": "uint256",
          "name": "addedValue",
          "type": "uint256"
        }
      ],
      "name": "increaseAllowance",
      "outputs": [
        {
          "internalType": "bool",
          "name": "",
          "type": "bool"
        }
      ],
      "stateMutability": "nonpayable",
      "type": "function"
    },
    {
      "inputs": [
        {
          "internalType": "address",
          "name": "",
          "type": "address"
        }
      ],
      "name": "isGovernance",
      "outputs": [
        {
          "internalType": "bool",
          "name": "",
          "type": "bool"
        }
      ],
      "stateMutability": "view",
      "type": "function"
    },
    {
      "inputs": [
        {
          "internalType": "uint256",
          "name": "amount",
          "type": "uint256"
        },
        {
          "internalType": "uint256",
          "name": "min",
          "type": "uint256"
        }
      ],
      "name": "liquidateDai",
      "outputs": [],
      "stateMutability": "nonpayable",
      "type": "function"
    },
    {
      "inputs": [
        {
          "internalType": "uint256",
          "name": "amount",
          "type": "uint256"
        },
        {
          "internalType": "uint256",
          "name": "min",
          "type": "uint256"
        }
      ],
      "name": "liquidateEth",
      "outputs": [
        {
          "internalType": "uint256",
          "name": "",
          "type": "uint256"
        }
      ],
      "stateMutability": "nonpayable",
      "type": "function"
    },
    {
      "inputs": [],
      "name": "minimumBalance",
      "outputs": [
        {
          "internalType": "int256",
          "name": "",
          "type": "int256"
        }
      ],
      "stateMutability": "view",
      "type": "function"
    },
    {
      "inputs": [
        {
          "internalType": "address",
          "name": "to",
          "type": "address"
        },
        {
          "internalType": "uint256",
          "name": "tokenMinimum",
          "type": "uint256"
        }
      ],
      "name": "mint",
      "outputs": [
        {
          "internalType": "uint256",
          "name": "",
          "type": "uint256"
        }
      ],
      "stateMutability": "payable",
      "type": "function"
    },
    {
      "inputs": [
        {
          "internalType": "address",
          "name": "to",
          "type": "address"
        },
        {
          "internalType": "uint256",
          "name": "amount",
          "type": "uint256"
        }
      ],
      "name": "mintDirect",
      "outputs": [],
      "stateMutability": "nonpayable",
      "type": "function"
    },
    {
      "inputs": [],
      "name": "minter",
      "outputs": [
        {
          "internalType": "address",
          "name": "",
          "type": "address"
        }
      ],
      "stateMutability": "view",
      "type": "function"
    },
    {
      "inputs": [],
      "name": "name",
      "outputs": [
        {
          "internalType": "string",
          "name": "",
          "type": "string"
        }
      ],
      "stateMutability": "view",
      "type": "function"
    },
    {
      "inputs": [
        {
          "internalType": "address",
          "name": "owner",
          "type": "address"
        }
      ],
      "name": "nonces",
      "outputs": [
        {
          "internalType": "uint256",
          "name": "",
          "type": "uint256"
        }
      ],
      "stateMutability": "view",
      "type": "function"
    },
    {
      "inputs": [
        {
          "internalType": "address",
          "name": "",
          "type": "address"
        }
      ],
      "name": "numCheckpoints",
      "outputs": [
        {
          "internalType": "uint32",
          "name": "",
          "type": "uint32"
        }
      ],
      "stateMutability": "view",
      "type": "function"
    },
    {
      "inputs": [],
      "name": "owner",
      "outputs": [
        {
          "internalType": "address",
          "name": "",
          "type": "address"
        }
      ],
      "stateMutability": "view",
      "type": "function"
    },
    {
      "inputs": [],
      "name": "paused",
      "outputs": [
        {
          "internalType": "bool",
          "name": "",
          "type": "bool"
        }
      ],
      "stateMutability": "view",
      "type": "function"
    },
    {
      "inputs": [
        {
          "internalType": "address",
          "name": "beneficiary",
          "type": "address"
        },
        {
          "internalType": "uint256",
          "name": "amount",
          "type": "uint256"
        },
        {
          "internalType": "bool",
          "name": "inStable",
          "type": "bool"
        }
      ],
      "name": "payClaim",
      "outputs": [],
      "stateMutability": "nonpayable",
      "type": "function"
    },
    {
      "inputs": [],
      "name": "pendingWithdrawals",
      "outputs": [
        {
          "internalType": "uint256",
          "name": "",
          "type": "uint256"
        }
      ],
      "stateMutability": "view",
      "type": "function"
    },
    {
      "inputs": [
        {
          "internalType": "address",
          "name": "owner",
          "type": "address"
        },
        {
          "internalType": "address",
          "name": "spender",
          "type": "address"
        },
        {
          "internalType": "uint256",
          "name": "value",
          "type": "uint256"
        },
        {
          "internalType": "uint256",
          "name": "deadline",
          "type": "uint256"
        },
        {
          "internalType": "uint8",
          "name": "v",
          "type": "uint8"
        },
        {
          "internalType": "bytes32",
          "name": "r",
          "type": "bytes32"
        },
        {
          "internalType": "bytes32",
          "name": "s",
          "type": "bytes32"
        }
      ],
      "name": "permit",
      "outputs": [],
      "stateMutability": "nonpayable",
      "type": "function"
    },
    {
      "inputs": [],
      "name": "phaseAdvance",
      "outputs": [],
      "stateMutability": "nonpayable",
      "type": "function"
    },
    {
      "inputs": [
        {
          "internalType": "uint256",
          "name": "registrationTribute",
          "type": "uint256"
        }
      ],
      "name": "registerGovernanceTribute",
      "outputs": [],
      "stateMutability": "nonpayable",
      "type": "function"
    },
    {
      "inputs": [
        {
          "internalType": "uint256",
          "name": "registrationTribute",
          "type": "uint256"
        }
      ],
      "name": "registerTribute",
      "outputs": [],
      "stateMutability": "nonpayable",
      "type": "function"
    },
    {
      "inputs": [],
      "name": "renounceOwnership",
      "outputs": [],
      "stateMutability": "nonpayable",
      "type": "function"
    },
    {
      "inputs": [
        {
          "internalType": "address",
          "name": "user",
          "type": "address"
        },
        {
          "internalType": "bool",
          "name": "isConvictionless",
          "type": "bool"
        }
      ],
      "name": "setConvictionless",
      "outputs": [],
      "stateMutability": "nonpayable",
      "type": "function"
    },
    {
      "inputs": [
        {
          "internalType": "address",
          "name": "_fairSideConviction",
          "type": "address"
        }
      ],
      "name": "setFairSideConviction",
      "outputs": [],
      "stateMutability": "nonpayable",
      "type": "function"
    },
    {
      "inputs": [
        {
          "internalType": "contract IFSDNetwork",
          "name": "_fsdNetwork",
          "type": "address"
        }
      ],
      "name": "setFairSideNetwork",
      "outputs": [],
      "stateMutability": "nonpayable",
      "type": "function"
    },
    {
      "inputs": [
        {
          "internalType": "uint256",
          "name": "_gearingFactor",
          "type": "uint256"
        }
      ],
      "name": "setGearingFactor",
      "outputs": [],
      "stateMutability": "nonpayable",
      "type": "function"
    },
    {
      "inputs": [
        {
          "internalType": "address",
          "name": "_minter",
          "type": "address"
        }
      ],
      "name": "setMinter",
      "outputs": [],
      "stateMutability": "nonpayable",
      "type": "function"
    },
    {
      "inputs": [
        {
          "internalType": "uint256",
          "name": "_tributeFee",
          "type": "uint256"
        }
      ],
      "name": "setTributeFee",
      "outputs": [],
      "stateMutability": "nonpayable",
      "type": "function"
    },
    {
      "inputs": [],
      "name": "symbol",
      "outputs": [
        {
          "internalType": "string",
          "name": "",
          "type": "string"
        }
      ],
      "stateMutability": "view",
      "type": "function"
    },
    {
      "inputs": [],
      "name": "timelock",
      "outputs": [
        {
          "internalType": "address",
          "name": "",
          "type": "address"
        }
      ],
      "stateMutability": "view",
      "type": "function"
    },
    {
      "inputs": [],
      "name": "togglePause",
      "outputs": [],
      "stateMutability": "nonpayable",
      "type": "function"
    },
    {
      "inputs": [
        {
          "internalType": "uint256",
          "name": "locked",
          "type": "uint256"
        }
      ],
      "name": "tokenizeConviction",
      "outputs": [
        {
          "internalType": "uint256",
          "name": "",
          "type": "uint256"
        }
      ],
      "stateMutability": "nonpayable",
      "type": "function"
    },
    {
      "inputs": [
        {
          "internalType": "uint256",
          "name": "offset",
          "type": "uint256"
        }
      ],
      "name": "totalAvailableTribute",
      "outputs": [
        {
          "internalType": "uint256",
          "name": "total",
          "type": "uint256"
        }
      ],
      "stateMutability": "view",
      "type": "function"
    },
    {
      "inputs": [],
      "name": "totalSupply",
      "outputs": [
        {
          "internalType": "uint256",
          "name": "",
          "type": "uint256"
        }
      ],
      "stateMutability": "view",
      "type": "function"
    },
    {
      "inputs": [
        {
          "internalType": "address",
          "name": "recipient",
          "type": "address"
        },
        {
          "internalType": "uint256",
          "name": "amount",
          "type": "uint256"
        }
      ],
      "name": "transfer",
      "outputs": [
        {
          "internalType": "bool",
          "name": "",
          "type": "bool"
        }
      ],
      "stateMutability": "nonpayable",
      "type": "function"
    },
    {
      "inputs": [
        {
          "internalType": "address",
          "name": "sender",
          "type": "address"
        },
        {
          "internalType": "address",
          "name": "recipient",
          "type": "address"
        },
        {
          "internalType": "uint256",
          "name": "amount",
          "type": "uint256"
        }
      ],
      "name": "transferFrom",
      "outputs": [
        {
          "internalType": "bool",
          "name": "",
          "type": "bool"
        }
      ],
      "stateMutability": "nonpayable",
      "type": "function"
    },
    {
      "inputs": [
        {
          "internalType": "address",
          "name": "newOwner",
          "type": "address"
        }
      ],
      "name": "transferOwnership",
      "outputs": [],
      "stateMutability": "nonpayable",
      "type": "function"
    },
    {
      "inputs": [
        {
          "internalType": "address",
          "name": "user",
          "type": "address"
        }
      ],
      "name": "updateConvictionScore",
      "outputs": [
        {
          "internalType": "uint256",
          "name": "",
          "type": "uint256"
        }
      ],
      "stateMutability": "nonpayable",
      "type": "function"
    },
    {
      "inputs": [],
      "name": "updateConvictionScore",
      "outputs": [
        {
          "internalType": "uint256",
          "name": "",
          "type": "uint256"
        }
      ],
      "stateMutability": "nonpayable",
      "type": "function"
    },
    {
      "inputs": [
        {
          "internalType": "int256",
          "name": "_governanceMinimumBalance",
          "type": "int256"
        }
      ],
      "name": "updateGovernanceMinimumBalance",
      "outputs": [],
      "stateMutability": "nonpayable",
      "type": "function"
    },
    {
      "inputs": [
        {
          "internalType": "uint256",
          "name": "_governanceThreshold",
          "type": "uint256"
        }
      ],
      "name": "updateGovernanceThreshold",
      "outputs": [],
      "stateMutability": "nonpayable",
      "type": "function"
    },
    {
      "inputs": [
        {
          "internalType": "int256",
          "name": "_minimumBalance",
          "type": "int256"
        }
      ],
      "name": "updateminimumBalance",
      "outputs": [],
      "stateMutability": "nonpayable",
      "type": "function"
    },
    {
      "inputs": [],
      "name": "withdraw",
      "outputs": [],
      "stateMutability": "nonpayable",
      "type": "function"
    },
    {
      "stateMutability": "payable",
      "type": "receive"
    }
  ],
  "bytecode": "0x61018060408190526103e8600155806052620063368239604051908190036052019020610120525069152d02c7e14af6800000601355683635c9adc5dea0000060145569021e19e0c9bab2400000601555667c585087238000601c553480156200006857600080fd5b50604051620063da380380620063da833981810160405260408110156200008e57600080fd5b508051602091820151604080518082018252600e81526d2330b4b929b4b232902a37b5b2b760911b81860152815180830183526003808252621194d160ea1b82880181905284518086018652918252818801528351808501855260018152603160f81b97810197909752600080546001600160a01b031916339081178255945196979596939592949193849392879287927f8be0079c531659141344cd1fd0a4f28419497f9722a3daafe3b4186f6b6457e0908290a3815162000159906005906020850190620002e8565b5080516200016f906006906020840190620002e8565b50506007805460ff1916601217905550815160208084019190912082519183019190912060405160009080605262006388823960405190819003605201902060c085905260e08490529150620001cf90506001600160e01b036200028316565b60a052620001e88184846001600160e01b036200028716565b608052610100525050601260205250507f7e7fa33969761a458e04f477e039a608702b4f924981d6653935a8319a08ad7b805460ff1990811660019081179092556001600160a01b036000527fb130eb98f7132676c31b5b87625764fa3991b4687a48ec4283a2676970cd6b2a805490911690911790555050506001600160601b0319606092831b811661014052911b16610160526200038d565b4690565b60008383836200029f6001600160e01b036200028316565b6040805160208082019690965280820194909452606084019290925260808301523060a0808401919091528151808403909101815260c090920190528051910120949350505050565b828054600181600116156101000203166002900490600052602060002090601f016020900481019282601f106200032b57805160ff19168380011785556200035b565b828001600101855582156200035b579182015b828111156200035b5782518255916020019190600101906200033e565b50620003699291506200036d565b5090565b6200038a91905b8082111562000369576000815560010162000374565b90565b60805160a05160c05160e05161010051610120516101405160601c6101605160601c615f3162000405600039806125535280613393525080612c395280613acf5280613b225280613b725250806125e45250806137fb52508061383d52508061381c5250806137a25250806137d25250615f316000f3fe6080604052600436106103fe5760003560e01c806395d89b4111610213578063ce32580111610123578063edc91a74116100ab578063f1127ed81161007a578063f1127ed814610ef9578063f2fde38b14610f65578063f3b6e58e14610f98578063f6a1fe9414610fc8578063fca3b5aa14610fdd57610405565b8063edc91a7414610e61578063ef014a0a14610e76578063ef3a7ccb14610eb1578063f0b0c09914610ec657610405565b8063dcae6b1c116100f2578063dcae6b1c14610d75578063dd62ed3e14610d9f578063dee1f0e414610dda578063e21a59cc14610e0d578063e430a20e14610e3757610405565b8063ce32580114610cba578063d25accc714610ccf578063d33219b414610d02578063d505accf14610d1757610405565b8063b390c0ab116101a6578063c4ae316811610175578063c4ae316814610c0c578063c9d1329114610c21578063cb765c1d14610c4b578063cbe87bed14610c60578063cc0e59ea14610c8a57610405565b8063b390c0ab14610b88578063b63c9d2914610bb8578063b9d1d49b14610be2578063beca03d514610bf757610405565b8063a457c2d7116101e2578063a457c2d714610ad7578063a8a41a6814610b10578063a9059cbb14610b25578063b2651e2914610b5e57610405565b806395d89b4114610a445780639ee5e30c14610a595780639fbe121e14610a83578063a10efe8114610aad57610405565b8063395093511161030e5780635c975abb116102a157806370a082311161027057806370a0823114610981578063715018a6146109b45780637ecebe00146109c95780638da5cb5b146109fc5780638fa27fff14610a1157610405565b80635c975abb146108d257806366e37eae146108e75780636a284438146108fc5780636fcfff451461093557610405565b806346ef78dc116102dd57806346ef78dc146108285780634fa30aab1461083d5780635408ff411461086757806357723bba1461089157610405565b806339509351146107845780633ccfd60b146107bd57806340c10f19146107d257806340f56d95146107fe57610405565b806318160ddd11610391578063313ce56711610360578063313ce567146106e7578063314e99a21461071257806334c63dd014610727578063353b23341461075a5780633644e5151461076f57610405565b806318160ddd146106055780631e0ebde01461061a57806323b872dd1461064f5780632cb3b3931461069257610405565b806307546172116103cd5780630754617214610533578063095ea7b3146105645780630f1380f4146105b1578063136568b3146105db57610405565b806304e29e121461040a578063051c00b314610446578063055ad42e1461047057806306fdde03146104a957610405565b3661040557005b600080fd5b34801561041657600080fd5b506104346004803603602081101561042d57600080fd5b5035611010565b60408051918252519081900360200190f35b34801561045257600080fd5b506104346004803603602081101561046957600080fd5b50356110c4565b34801561047c57600080fd5b50610485611211565b6040518082600481111561049557fe5b60ff16815260200191505060405180910390f35b3480156104b557600080fd5b506104be611221565b6040805160208082528351818301528351919283929083019185019080838360005b838110156104f85781810151838201526020016104e0565b50505050905090810190601f1680156105255780820380516001836020036101000a031916815260200191505b509250505060405180910390f35b34801561053f57600080fd5b506105486112b8565b604080516001600160a01b039092168252519081900360200190f35b34801561057057600080fd5b5061059d6004803603604081101561058757600080fd5b506001600160a01b0381351690602001356112c7565b604080519115158252519081900360200190f35b3480156105bd57600080fd5b50610434600480360360208110156105d457600080fd5b50356112e5565b3480156105e757600080fd5b50610434600480360360208110156105fe57600080fd5b5035611477565b34801561061157600080fd5b506104346114e1565b34801561062657600080fd5b5061064d6004803603602081101561063d57600080fd5b50356001600160a01b03166114e7565b005b34801561065b57600080fd5b5061059d6004803603606081101561067257600080fd5b506001600160a01b0381358116916020810135909116906040013561159f565b34801561069e57600080fd5b506106cb600480360360408110156106b557600080fd5b506001600160a01b03813516906020013561162d565b604080516001600160e01b039092168252519081900360200190f35b3480156106f357600080fd5b506106fc611879565b6040805160ff9092168252519081900360200190f35b34801561071e57600080fd5b5061064d611882565b34801561073357600080fd5b506104346004803603602081101561074a57600080fd5b50356001600160a01b0316611894565b34801561076657600080fd5b5061064d6118c2565b34801561077b57600080fd5b506104346119b3565b34801561079057600080fd5b5061059d600480360360408110156107a757600080fd5b506001600160a01b0381351690602001356119c2565b3480156107c957600080fd5b5061064d611a16565b610434600480360360408110156107e857600080fd5b506001600160a01b038135169060200135611a9b565b34801561080a57600080fd5b5061064d6004803603602081101561082157600080fd5b5035611aeb565b34801561083457600080fd5b50610434611b42565b34801561084957600080fd5b5061064d6004803603602081101561086057600080fd5b5035611b48565b34801561087357600080fd5b5061064d6004803603602081101561088a57600080fd5b5035611ba8565b34801561089d57600080fd5b5061064d600480360360608110156108b457600080fd5b506001600160a01b0381351690602081013590604001351515611bb5565b3480156108de57600080fd5b5061059d611bfc565b3480156108f357600080fd5b50610434611c0c565b34801561090857600080fd5b5061064d6004803603604081101561091f57600080fd5b506001600160a01b038135169060200135611c12565b34801561094157600080fd5b506109686004803603602081101561095857600080fd5b50356001600160a01b0316611cb6565b6040805163ffffffff9092168252519081900360200190f35b34801561098d57600080fd5b50610434600480360360208110156109a457600080fd5b50356001600160a01b0316611cce565b3480156109c057600080fd5b5061064d611ce9565b3480156109d557600080fd5b50610434600480360360208110156109ec57600080fd5b50356001600160a01b0316611d37565b348015610a0857600080fd5b50610548611d58565b348015610a1d57600080fd5b5061059d60048036036020811015610a3457600080fd5b50356001600160a01b0316611d67565b348015610a5057600080fd5b506104be611d7c565b348015610a6557600080fd5b5061043460048036036020811015610a7c57600080fd5b5035611ddd565b348015610a8f57600080fd5b5061064d60048036036020811015610aa657600080fd5b5035611df0565b348015610ab957600080fd5b5061064d60048036036020811015610ad057600080fd5b5035611e01565b348015610ae357600080fd5b5061059d60048036036040811015610afa57600080fd5b506001600160a01b038135169060200135611e0e565b348015610b1c57600080fd5b50610434611e7c565b348015610b3157600080fd5b5061059d60048036036040811015610b4857600080fd5b506001600160a01b038135169060200135611e82565b348015610b6a57600080fd5b5061043460048036036020811015610b8157600080fd5b5035611e96565b348015610b9457600080fd5b5061064d60048036036040811015610bab57600080fd5b5080359060200135611eac565b348015610bc457600080fd5b5061064d60048036036020811015610bdb57600080fd5b50356120af565b348015610bee57600080fd5b506104346120c0565b348015610c0357600080fd5b506104346120c6565b348015610c1857600080fd5b5061064d6120cc565b348015610c2d57600080fd5b5061064d60048036036020811015610c4457600080fd5b5035612164565b348015610c5757600080fd5b50610434612171565b348015610c6c57600080fd5b5061064d60048036036020811015610c8357600080fd5b5035612188565b348015610c9657600080fd5b5061064d60048036036040811015610cad57600080fd5b5080359060200135612195565b348015610cc657600080fd5b50610548612472565b348015610cdb57600080fd5b5061064d60048036036020811015610cf257600080fd5b50356001600160a01b0316612481565b348015610d0e57600080fd5b50610548612551565b348015610d2357600080fd5b5061064d600480360360e0811015610d3a57600080fd5b506001600160a01b03813581169160208101359091169060408101359060608101359060ff6080820135169060a08101359060c00135612575565b348015610d8157600080fd5b5061043460048036036020811015610d9857600080fd5b5035612721565b348015610dab57600080fd5b5061043460048036036040811015610dc257600080fd5b506001600160a01b038135811691602001351661278d565b348015610de657600080fd5b5061059d60048036036020811015610dfd57600080fd5b50356001600160a01b03166127b8565b348015610e1957600080fd5b5061064d60048036036020811015610e3057600080fd5b50356127cd565b348015610e4357600080fd5b5061064d60048036036020811015610e5a57600080fd5b50356127da565b348015610e6d57600080fd5b50610548612831565b348015610e8257600080fd5b5061064d60048036036040811015610e9957600080fd5b506001600160a01b0381351690602001351515612840565b348015610ebd57600080fd5b50610434612891565b348015610ed257600080fd5b5061043460048036036020811015610ee957600080fd5b50356001600160a01b031661289c565b348015610f0557600080fd5b50610f3860048036036040811015610f1c57600080fd5b5080356001600160a01b0316906020013563ffffffff166128ae565b6040805163ffffffff90941684526001600160e01b03909216602084015282820152519081900360600190f35b348015610f7157600080fd5b5061064d60048036036020811015610f8857600080fd5b50356001600160a01b03166128eb565b348015610fa457600080fd5b5061043460048036036040811015610fbb57600080fd5b50803590602001356129d9565b348015610fd457600080fd5b50610548612c37565b348015610fe957600080fd5b5061064d6004803603602081101561100057600080fd5b50356001600160a01b0316612c5b565b6000818152600c602090815260408083203384526001810190925282205460ff16156110405760009150506110bf565b805460009061105690339063ffffffff1661162d565b82546001600160e01b03919091169150600090611081906001600160a01b039063ffffffff1661162d565b83546001600160e01b039182169250600160201b9004166110b8826110ac838663ffffffff612d8616565b9063ffffffff612ddf16565b9450505050505b919050565b600081156110e9576010546110e49033906001600160a01b031684612e46565b6110f4565b6110f233611894565b505b60006110ff33612faf565b50925050506001600160e01b03811615158061111a57508215155b6111555760405162461bcd60e51b81526004018080602001828103825260468152602001806158576046913960600191505060405180910390fd5b3360008181526011602052604090205460ff16906111729061304e565b60105460408051631ce0a5d760e11b81523360048201526001600160e01b038516602482015260448101879052831515606482015290516001600160a01b03909216916339c14bae916084808201926020929091908290030181600087803b1580156111dd57600080fd5b505af11580156111f1573d6000803e3d6000fd5b505050506040513d602081101561120757600080fd5b5051949350505050565b601b54600160a01b900460ff1681565b60058054604080516020601f60026000196101006001881615020190951694909404938401819004810282018101909252828152606093909290918301828280156112ad5780601f10611282576101008083540402835291602001916112ad565b820191906000526020600020905b81548152906001019060200180831161129057829003601f168201915b505050505090505b90565b601b546001600160a01b031681565b60006112db6112d46130ca565b84846130ce565b5060015b92915050565b60105460408051632770a7eb60e21b8152336004820152602481018490529051600092839283926001600160a01b0390921691639dc29fac9160448082019260609290919082900301818787803b15801561133f57600080fd5b505af1158015611353573d6000803e3d6000fd5b505050506040513d606081101561136957600080fd5b5080516040909101519092509050600061138233612faf565b9350505050600061139333856131ba565b336000908152601160205260408120549192509060ff16156113e8576113e1604051806060016040528060408152602001615503604091396001600160e01b0387169063ffffffff61323216565b9050611458565b838061140257506114026113fb33611cce565b83856132d9565b156114585733600090815260116020908152604091829020805460ff19166001179055815160808101909252604280835261145592916155c7908301396001600160e01b0384169063ffffffff61323216565b90505b6114628582613311565b50506001600160e01b03909216949350505050565b60008181526009602090815260408083203384526001810190925282205460ff16156114a75760009150506110bf565b80546000906114bd90339063ffffffff1661162d565b82546001600160e01b0391909116915060009061108190829063ffffffff1661162d565b60045490565b336114f0611d58565b6001600160a01b0316146115355760405162461bcd60e51b8152600401808060200182810382526022815260200180615c7d6022913960400191505060405180910390fd5b601a546001600160a01b03161561157d5760405162461bcd60e51b8152600401808060200182810382526025815260200180615e2e6025913960400191505060405180910390fd5b601a80546001600160a01b0319166001600160a01b0392909216919091179055565b60006115ac848484612e46565b611622846115b86130ca565b61161d85604051806060016040528060288152602001615ad7602891396001600160a01b038a166000908152600360205260408120906115f66130ca565b6001600160a01b03168152602081019190915260400160002054919063ffffffff61332e16565b6130ce565b5060015b9392505050565b600043821061166d5760405162461bcd60e51b815260040180806020018281038252604181526020018061595d6041913960600191505060405180910390fd5b6001600160a01b03831660009081526017602052604090205463ffffffff168061169b5760009150506112df565b6001600160a01b038416600090815260166020908152604080832063ffffffff600019860181168552925290912054168310611717576001600160a01b03841660009081526016602090815260408083206000199490940163ffffffff1683529290522054600160201b90046001600160e01b031690506112df565b6001600160a01b038416600090815260166020908152604080832083805290915290205463ffffffff168310156117525760009150506112df565b600060001982015b8163ffffffff168163ffffffff16111561183457600282820363ffffffff16048103611784615421565b506001600160a01b038716600090815260166020908152604080832063ffffffff85811685529083529281902081516060810183528154948516808252600160201b9095046001600160e01b0316938101939093526001015490820152908714156117f9576020015194506112df9350505050565b805163ffffffff168711156118105781935061182d565b60008263ffffffff161161182557600061182a565b600182035b92505b505061175a565b506001600160a01b038516600090815260166020908152604080832063ffffffff909416835292905220546001600160e01b03600160201b9091041691505092915050565b60075460ff1690565b61188a613388565b611892613412565b565b60008060006118a484600061345c565b915091506118b28282613311565b506001600160e01b031692915050565b336118cb611d58565b6001600160a01b0316146119105760405162461bcd60e51b8152600401808060200182810382526022815260200180615c7d6022913960400191505060405180910390fd5b6004601b54600160a01b900460ff16600481111561192a57fe5b14156119675760405162461bcd60e51b8152600401808060200182810382526034815260200180615cd56034913960400191505060405180910390fd5b601b54600160a01b900460ff16600481111561197f57fe5b60010160ff16600481111561199057fe5b601b805460ff60a01b1916600160a01b8360048111156119ac57fe5b0217905550565b60006119bd61379e565b905090565b60006112db6119cf6130ca565b8461161d85600360006119e06130ca565b6001600160a01b03908116825260208083019390935260409182016000908120918c16815292529020549063ffffffff61386816565b3360009081526018602052604090205480611a625760405162461bcd60e51b81526004018080602001828103825260268152602001806154656026913960400191505060405180910390fd5b33600090815260186020526040812055601954611a85908263ffffffff6138c216565b601955611a98338263ffffffff61391216565b50565b6000611aa56139f7565b34611ae15760405162461bcd60e51b81526004018080602001828103825260288152602001806156996028913960400191505060405180910390fd5b6116268383613a55565b33611af4611d58565b6001600160a01b031614611b395760405162461bcd60e51b8152600401808060200182810382526022815260200180615c7d6022913960400191505060405180910390fd5b611a9881613ba9565b60155481565b611b5181613d2a565b3360009081526011602052604090205460ff168015611b9a57506000818152600c6020526040902054611b8b90339063ffffffff1661162d565b6001600160e01b031660135411155b15611a9857611a9881613de4565b611bb0613388565b601355565b611bbd613e9e565b8015611bed57611be8736b175474e89094c44da98b954eedeac495271d0f848463ffffffff613efd16565b611bf7565b611bf78383613f4f565b505050565b601b54600160a81b900460ff1681565b60135481565b611c1a613fab565b6000601b54600160a01b900460ff166004811115611c3457fe5b1480611c5757506001601b54600160a01b900460ff166004811115611c5557fe5b145b611ca8576040805162461bcd60e51b815260206004820152601a60248201527f4653443a3a6d696e74546f3a20496e76616c6964205068617365000000000000604482015290519081900360640190fd5b611cb2828261400a565b5050565b60176020526000908152604090205463ffffffff1681565b6001600160a01b031660009081526002602052604090205490565b33611cf2611d58565b6001600160a01b03161461188a5760405162461bcd60e51b8152600401808060200182810382526022815260200180615c7d6022913960400191505060405180910390fd5b6001600160a01b03811660009081526008602052604081206112df90614108565b6000546001600160a01b031690565b60126020526000908152604090205460ff1681565b60068054604080516020601f60026000196101006001881615020190951694909404938401819004810282018101909252828152606093909290918301828280156112ad5780601f10611282576101008083540402835291602001916112ad565b60006112df611dea612171565b8361410c565b611df8613e9e565b611a98816141ab565b611e09613388565b601555565b60006112db611e1b6130ca565b8461161d85604051806060016040528060258152602001615e536025913960036000611e456130ca565b6001600160a01b03908116825260208083019390935260409182016000908120918d1681529252902054919063ffffffff61332e16565b60015481565b60006112db611e8f6130ca565b8484612e46565b60006112df611ea3612171565b8360000361410c565b6004601b54600160a01b900460ff166004811115611ec657fe5b14611f18576040805162461bcd60e51b815260206004820152601860248201527f4653443a3a6275726e3a20496e76616c69642050686173650000000000000000604482015290519081900360640190fd5b6000611f22612171565b90506000611f33828560000361410c565b905082811115611f8a576040805162461bcd60e51b815260206004820152601860248201527f4653443a3a6275726e3a204869676820536c6970706167650000000000000000604482015290519081900360640190fd5b611f943382614232565b6000611fab601c548661433a90919063ffffffff16565b601a5460408051638269a86560e01b81528151939450848903936000936001600160a01b031692638269a8659260048082019391829003018186803b158015611ff357600080fd5b505afa158015612007573d6000803e3d6000fd5b505050506040513d604081101561201d57600080fd5b5051905061203a818603662386f26fc1000063ffffffff61433a16565b8211156120785760405162461bcd60e51b8152600401808060200182810382526032815260200180615d096032913960400191505060405180910390fd5b6120823383613f4f565b60006120908387038561410c565b905061209c308261400a565b6120a581614367565b5050505050505050565b6120b7613e9e565b611a98816144e8565b60145481565b60195481565b336120d5611d58565b6001600160a01b03161461211a5760405162461bcd60e51b8152600401808060200182810382526022815260200180615c7d6022913960400191505060405180910390fd5b601b805460ff60a81b198116600160a81b9182900460ff16159091021790556040517f2cf9ce2194e712ba2398463fe7b26d6d400cf184d9fd145bc6be1c0dd834824990600090a1565b61216c613e9e565b600155565b60006119bd601954476138c290919063ffffffff16565b612190613388565b601455565b61219d613e9e565b6040805163095ea7b360e01b8152737a250d5630b4cf539739df2c5dacb4c659f2488d6004820152602481018490529051736b175474e89094c44da98b954eedeac495271d0f9163095ea7b39160448083019260209291908290030181600087803b15801561220b57600080fd5b505af115801561221f573d6000803e3d6000fd5b505050506040513d602081101561223557600080fd5b50506040805160028082526060808301845292602083019080368337019050509050736b175474e89094c44da98b954eedeac495271d0f8160008151811061227957fe5b60200260200101906001600160a01b031690816001600160a01b03168152505073c02aaa39b223fe8d0a0e5c4f27ead9083c756cc2816001815181106122bb57fe5b60200260200101906001600160a01b031690816001600160a01b031681525050737a250d5630b4cf539739df2c5dacb4c659f2488d6001600160a01b03166318cbafe584848430426040518663ffffffff1660e01b81526004018086815260200185815260200180602001846001600160a01b03166001600160a01b03168152602001838152602001828103825285818151815260200191508051906020019060200280838360005b8381101561237c578181015183820152602001612364565b505050509050019650505050505050600060405180830381600087803b1580156123a557600080fd5b505af11580156123b9573d6000803e3d6000fd5b505050506040513d6000823e601f3d908101601f1916820160405260208110156123e257600080fd5b8101908080516040519392919084600160201b82111561240157600080fd5b90830190602082018581111561241657600080fd5b82518660208202830111600160201b8211171561243257600080fd5b82525081516020918201928201910280838360005b8381101561245f578181015183820152602001612447565b5050505090500160405250505050505050565b601a546001600160a01b031681565b3361248a611d58565b6001600160a01b0316146124cf5760405162461bcd60e51b8152600401808060200182810382526022815260200180615c7d6022913960400191505060405180910390fd5b6010546001600160a01b0316156125175760405162461bcd60e51b815260040180806020018281038252602881526020018061582f6028913960400191505060405180910390fd5b601080546001600160a01b039092166001600160a01b0319909216821790556000908152601260205260409020805460ff19166001179055565b7f000000000000000000000000000000000000000000000000000000000000000081565b834211156125ca576040805162461bcd60e51b815260206004820152601d60248201527f45524332305065726d69743a206578706972656420646561646c696e65000000604482015290519081900360640190fd5b6001600160a01b03871660009081526008602052604081207f00000000000000000000000000000000000000000000000000000000000000009089908990899061261390614108565b604080516020808201979097526001600160a01b0395861681830152939094166060840152608083019190915260a082015260c08082018990528251808303909101815260e09091019091528051910120905060006126718261456f565b90506000612681828787876145bb565b9050896001600160a01b0316816001600160a01b0316146126e9576040805162461bcd60e51b815260206004820152601e60248201527f45524332305065726d69743a20696e76616c6964207369676e61747572650000604482015290519081900360640190fd5b6001600160a01b038a16600090815260086020526040902061270a9061472c565b6127158a8a8a6130ce565b50505050505050505050565b600b54600090825b818110156127545761274a61273d82611477565b849063ffffffff61386816565b9250600101612729565b50600e54835b818110156127855761277b61276e82611010565b859063ffffffff61386816565b935060010161275a565b505050919050565b6001600160a01b03918216600090815260036020908152604080832093909416825291909152205490565b60116020526000908152604090205460ff1681565b6127d5613388565b601c55565b336127e3611d58565b6001600160a01b0316146128285760405162461bcd60e51b8152600401808060200182810382526022815260200180615c7d6022913960400191505060405180910390fd5b611a9881614367565b6010546001600160a01b031681565b612848613388565b6001600160a01b0382166000908152601260205260409020805460ff191682151517905561287a82436000190161162d565b6001600160e01b031615611cb257611cb28261304e565b60006119bd33611894565b60186020526000908152604090205481565b60166020908152600092835260408084209091529082529020805460019091015463ffffffff821691600160201b90046001600160e01b03169083565b336128f4611d58565b6001600160a01b0316146129395760405162461bcd60e51b8152600401808060200182810382526022815260200180615c7d6022913960400191505060405180910390fd5b6001600160a01b03811661297e5760405162461bcd60e51b8152600401808060200182810382526028815260200180615b646028913960400191505060405180910390fd5b600080546040516001600160a01b03808516939216917f8be0079c531659141344cd1fd0a4f28419497f9722a3daafe3b4186f6b6457e091a3600080546001600160a01b0319166001600160a01b0392909216919091179055565b60006129e3613e9e565b604080516002808252606080830184529260208301908036833701905050905073c02aaa39b223fe8d0a0e5c4f27ead9083c756cc281600081518110612a2557fe5b60200260200101906001600160a01b031690816001600160a01b031681525050736b175474e89094c44da98b954eedeac495271d0f81600181518110612a6757fe5b60200260200101906001600160a01b031690816001600160a01b0316815250506060737a250d5630b4cf539739df2c5dacb4c659f2488d6001600160a01b0316637ff36ab586868530426040518663ffffffff1660e01b81526004018085815260200180602001846001600160a01b03166001600160a01b03168152602001838152602001828103825285818151815260200191508051906020019060200280838360005b83811015612b24578181015183820152602001612b0c565b50505050905001955050505050506000604051808303818588803b158015612b4b57600080fd5b505af1158015612b5f573d6000803e3d6000fd5b50505050506040513d6000823e601f3d908101601f191682016040526020811015612b8957600080fd5b8101908080516040519392919084600160201b821115612ba857600080fd5b908301906020820185811115612bbd57600080fd5b82518660208202830111600160201b82111715612bd957600080fd5b82525081516020918201928201910280838360005b83811015612c06578181015183820152602001612bee565b50505050905001604052505050905080600182510381518110612c2557fe5b60200260200101519250505092915050565b7f000000000000000000000000000000000000000000000000000000000000000081565b33612c64611d58565b6001600160a01b031614612ca95760405162461bcd60e51b8152600401808060200182810382526022815260200180615c7d6022913960400191505060405180910390fd5b6001600160a01b038116612cee5760405162461bcd60e51b815260040180806020018281038252602e81526020018061589d602e913960400191505060405180910390fd5b601b546001600160a01b031615612d4c576040805162461bcd60e51b815260206004820152601f60248201527f56657374696e673a3a7365744d696e7465723a20416c72656164792073657400604482015290519081900360640190fd5b601b80546001600160a01b0319166001600160a01b039283161790819055166000908152601260205260409020805460ff19166001179055565b600082612d95575060006112df565b82820282848281612da257fe5b04146116265760405162461bcd60e51b8152600401808060200182810382526021815260200180615ab66021913960400191505060405180910390fd5b6000808211612e35576040805162461bcd60e51b815260206004820152601a60248201527f536166654d6174683a206469766973696f6e206279207a65726f000000000000604482015290519081900360640190fd5b818381612e3e57fe5b049392505050565b6001600160a01b038316612e8b5760405162461bcd60e51b8152600401808060200182810382526025815260200180615b8c6025913960400191505060405180910390fd5b6001600160a01b038216612ed05760405162461bcd60e51b81526004018080602001828103825260238152602001806154426023913960400191505060405180910390fd5b612edb838383614735565b612f1e8160405180606001604052806026815260200161575a602691396001600160a01b038616600090815260026020526040902054919063ffffffff61332e16565b6001600160a01b038085166000908152600260205260408082209390935590841681522054612f53908263ffffffff61386816565b6001600160a01b0380841660008181526002602090815260409182902094909455805185815290519193928716927fddf252ad1be2c89b69c2b068fc378daa952ba7f163c4a11628f55a4df523b3ef92918290030190a3505050565b6001600160a01b03811660009081526017602052604081205463ffffffff16908080831561304757612fdf615421565b505050506001600160a01b0382166000908152601660209081526040808320600019850163ffffffff90811685529083529281902081516060810183528154948516808252600160201b9095046001600160e01b031693810184905260019091015491018190525b9193509193565b60008061305a83612faf565b50925050915061306c8383600061479f565b6130776000826148d3565b506001600160a01b03831660009081526011602052604090205460ff1615611bf7576001600160a01b038084166000908152601160205260409020805460ff191690556130c490826148d3565b50505050565b3390565b6001600160a01b0383166131135760405162461bcd60e51b8152600401808060200182810382526024815260200180615c126024913960400191505060405180910390fd5b6001600160a01b0382166131585760405162461bcd60e51b81526004018080602001828103825260228152602001806155a56022913960400191505060405180910390fd5b6001600160a01b03808416600081815260036020908152604080832094871680845294825291829020859055815185815291517f8c5be1e5ebec7d5bd14f71427d1e84f3dd0314c0f7b2291e5b200ac8c7c3b9259281900390910190a3505050565b60008060006131c885612faf565b509250509150836001600160e01b0316600014156131e95791506112df9050565b61321d846040518060800160405280605181526020016159d9605191396001600160e01b038416919063ffffffff61493616565b925061322a85838561479f565b505092915050565b6000816001600160df1b036001600160e01b03851611156132d15760405162461bcd60e51b81526004018080602001828103825283818151815260200191508051906020019080838360005b8381101561329657818101518382015260200161327e565b50505050905090810190601f1680156132c35780820380516001836020036101000a031916815260200191505b509250505060405180910390fd5b509192915050565b6000601354836001600160e01b0316101580156132f857506015548410155b80156133095750620d2f0082420310155b949350505050565b61331c6000836131ba565b50611bf76001600160a01b03826149a0565b600081848411156133805760405162461bcd60e51b815260206004820181815283516024840152835190928392604490910191908501908083836000831561329657818101518382015260200161327e565b505050900390565b336001600160a01b037f00000000000000000000000000000000000000000000000000000000000000001614806133d757506133c2611d58565b6001600160a01b0316336001600160a01b0316145b6118925760405162461bcd60e51b8152600401808060200182810382526025815260200180615bed6025913960400191505060405180910390fd5b600080546040516001600160a01b03909116907f8be0079c531659141344cd1fd0a4f28419497f9722a3daafe3b4186f6b6457e0908390a3600080546001600160a01b0319169055565b6001600160a01b038216600090815260126020526040812054819060ff161561348a57506000905080613797565b600061349585611cce565b90506014548110156134ae575060009150819050613797565b60008060006134bc88612faf565b9350935050925061350a604051806080016040528060588152602001615a5e60589139620151806134f6874286900363ffffffff612d8616565b816134fd57fe5b049063ffffffff614a4416565b955063ffffffff8316613531576135238860008061479f565b506000935061379792505050565b60155484880112156001600160e01b03871615801561356857506001600160a01b03891660009081526011602052604090205460ff165b8015613572575080155b156135db576001600160a01b038916600090815260116020908152604091829020805460ff1916905581516080810190925260478083526135cb9291615c36908301396001600160e01b0385169063ffffffff61323216565b6000039550613797945050505050565b6000613611886040518060800160405280604f815260200161570b604f91396001600160e01b038716919063ffffffff61493616565b905061361e8a868361479f565b6010546001600160a01b038b81169116141561363d5760009650613790565b6001600160a01b038a1660009081526011602052604090205460ff161561370857811561369d576136966040518060800160405280604a81526020016156c1604a91396001600160e01b038a169063ffffffff61323216565b9650613703565b6001600160a01b038a16600090815260116020908152604091829020805460ff1916905581516080810190925260478083526136fd9291615c36908301396136e88c6001430361162d565b6001600160e01b03169063ffffffff61323216565b60000396505b613790565b601354816001600160e01b0316101580156137205750815b80156137315750620d2f0083420310155b15613790576001600160a01b038a16600090815260116020908152604091829020805460ff19166001179055815160808101909252604780835261378d9291615c36908301396001600160e01b0383169063ffffffff61323216565b96505b5050505050505b9250929050565b60007f00000000000000000000000000000000000000000000000000000000000000006137c9614a9d565b14156137f657507f00000000000000000000000000000000000000000000000000000000000000006112b5565b6138617f00000000000000000000000000000000000000000000000000000000000000007f00000000000000000000000000000000000000000000000000000000000000007f0000000000000000000000000000000000000000000000000000000000000000614aa1565b90506112b5565b600082820183811015611626576040805162461bcd60e51b815260206004820152601b60248201527f536166654d6174683a206164646974696f6e206f766572666c6f770000000000604482015290519081900360640190fd5b808203828111156112df576040805162461bcd60e51b815260206004820152601560248201527464732d6d6174682d7375622d756e646572666c6f7760581b604482015290519081900360640190fd5b80471015613967576040805162461bcd60e51b815260206004820152601d60248201527f416464726573733a20696e73756666696369656e742062616c616e6365000000604482015290519081900360640190fd5b6040516000906001600160a01b0384169083908381818185875af1925050503d80600081146139b2576040519150601f19603f3d011682016040523d82523d6000602084013e6139b7565b606091505b5050905080611bf75760405162461bcd60e51b815260040180806020018281038252603a815260200180615780603a913960400191505060405180910390fd5b601b546001600160a01b0316331480613a1a5750601a546001600160a01b031633145b6118925760405162461bcd60e51b815260040180806020018281038252602981526020018061548b6029913960400191505060405180910390fd5b60003481613a6c82613a65612171565b038361410c565b905083811015613ab9576040805162461bcd60e51b81526020600482015260136024820152724653443a3a204869676820536c69707061676560681b604482015290519081900360640190fd5b613ac3858261400a565b681b1ae4d6e2ef5000007f00000000000000000000000000000000000000000000000000000000000000006001600160a01b031631101561330957613b16826709b6e64a8ec6000063ffffffff61433a16565b91506001600160a01b037f00000000000000000000000000000000000000000000000000000000000000001631681b1ae4d6e2ef50000003348390036000828211613b615781613b63565b825b9050613b9e6001600160a01b037f0000000000000000000000000000000000000000000000000000000000000000168263ffffffff61391216565b505050949350505050565b6000613bd46040518060600160405280602d8152602001615802602d9139839063ffffffff614a4416565b600e54600019016000908152600c6020526040902080549192509063ffffffff16431415613c5657613c32826040518060600160405280603a8152602001615e78603a91398354600160201b90046001600160e01b03169190614936565b81546001600160e01b0391909116600160201b0263ffffffff909116178155613ccf565b600e8054600181019091556000908152600c6020908152604091829020805463ffffffff16600160201b6001600160e01b0387160217815582516060810190935260328084529092613cb99290919061590990830139439063ffffffff614af716565b815463ffffffff191663ffffffff919091161790555b613d058260405180606001604052806040815260200161556560409139600d546001600160e01b0316919063ffffffff614b4d16565b600d80546001600160e01b0319166001600160e01b0392909216919091179055505050565b6000613d3582611477565b905080613d735760405162461bcd60e51b8152600401808060200182810382526034815260200180615a2a6034913960400191505060405180910390fd5b60008281526009602090815260408083203380855260019182019093529220805460ff1916909217909155613daa90309083612e46565b60408051828152905133917fa6069443f5743e8f40b5d7ea2dc0fd893ab0800b1407a2057c6011c7d41c516f919081900360200190a25050565b6000613def82611010565b905080613e2d5760405162461bcd60e51b815260040180806020018281038252603e8152602001806158cb603e913960400191505060405180910390fd5b6000828152600c602090815260408083203380855260019182019093529220805460ff1916909217909155613e6490309083612e46565b60408051828152905133917fc03df71da764e206c9cf50384b56a5e89c6d510274e3bb5f28bf777520ea7c39919081900360200190a25050565b601a546001600160a01b03163314611892576040805162461bcd60e51b815260206004820152601760248201527f4653443a3a206f6e6c79204653442063616e2063616c6c000000000000000000604482015290519081900360640190fd5b604080516001600160a01b038416602482015260448082018490528251808303909101815260649091019091526020810180516001600160e01b031663a9059cbb60e01b179052611bf7908490614bae565b6001600160a01b038216600090815260186020526040902054613f78908263ffffffff614c5f16565b6001600160a01b038316600090815260186020526040902055601954613fa4908263ffffffff614c5f16565b6019555050565b601b546001600160a01b03163314611892576040805162461bcd60e51b815260206004820152601e60248201527f4653443a3a206f6e6c7920465344206d696e7465722063616e2063616c6c0000604482015290519081900360640190fd5b6001600160a01b038216614065576040805162461bcd60e51b815260206004820152601f60248201527f45524332303a206d696e7420746f20746865207a65726f206164647265737300604482015290519081900360640190fd5b61407160008383614735565b600454614084908263ffffffff61386816565b6004556001600160a01b0382166000908152600260205260409020546140b0908263ffffffff61386816565b6001600160a01b03831660008181526002602090815260408083209490945583518581529351929391927fddf252ad1be2c89b69c2b068fc378daa952ba7f163c4a11628f55a4df523b3ef9281900390910190a35050565b5490565b6000806000601a60009054906101000a90046001600160a01b03166001600160a01b0316638269a8656040518163ffffffff1660e01b8152600401604080518083038186803b15801561415e57600080fd5b505afa158015614172573d6000803e3d6000fd5b505050506040513d604081101561418857600080fd5b50805160209091015190925090506141a285858484614cae565b95945050505050565b60006141d6604051806060016040528060328152602001615d8d60329139839063ffffffff614a4416565b905061420e81604051806060016040528060328152602001615d8d60329139600a546001600160e01b0316919063ffffffff61493616565b600a80546001600160e01b0319166001600160e01b03929092169190911790555050565b6001600160a01b0382166142775760405162461bcd60e51b8152600401808060200182810382526021815260200180615b436021913960400191505060405180910390fd5b61428382600083614735565b6142c681604051806060016040528060228152602001615543602291396001600160a01b038516600090815260026020526040902054919063ffffffff61332e16565b6001600160a01b0383166000908152600260205260409020556004546142f2908263ffffffff614f3d16565b6004556040805182815290516000916001600160a01b038516917fddf252ad1be2c89b69c2b068fc378daa952ba7f163c4a11628f55a4df523b3ef9181900360200190a35050565b6000670de0b6b3a76400006143606143528585614f9a565b6706f05b59d3b20000614c5f565b81612e3e57fe5b60006143926040518060600160405280602d8152602001615802602d9139839063ffffffff614a4416565b600b5460001901600090815260096020526040902080549192509063ffffffff16431415614414576143f0826040518060600160405280603a8152602001615e78603a91398354600160201b90046001600160e01b03169190614936565b81546001600160e01b0391909116600160201b0263ffffffff90911617815561448d565b600b805460018101909155600090815260096020908152604091829020805463ffffffff16600160201b6001600160e01b03871602178155825160608101909352603280845290926144779290919061590990830139439063ffffffff614af716565b815463ffffffff191663ffffffff919091161790555b6144c382604051806060016040528060368152602001615c9f60369139600a546001600160e01b0316919063ffffffff614b4d16565b600a80546001600160e01b0319166001600160e01b0392909216919091179055505050565b60006145136040518060600160405280603c8152602001615bb1603c9139839063ffffffff614a4416565b905061454b816040518060600160405280603c8152602001615bb1603c9139600d546001600160e01b0316919063ffffffff61493616565b600d80546001600160e01b0319166001600160e01b03929092169190911790555050565b600061457961379e565b82604051602001808061190160f01b81525060020183815260200182815260200192505050604051602081830303815290604052805190602001209050919050565b60007f7fffffffffffffffffffffffffffffff5d576e7357a4501ddfe92f46681b20a082111561461c5760405162461bcd60e51b81526004018080602001828103825260228152602001806157ba6022913960400191505060405180910390fd5b8360ff16601b148061463157508360ff16601c145b61466c5760405162461bcd60e51b815260040180806020018281038252602281526020018061593b6022913960400191505060405180910390fd5b604080516000808252602080830180855289905260ff88168385015260608301879052608083018690529251909260019260a080820193601f1981019281900390910190855afa1580156146c4573d6000803e3d6000fd5b5050604051601f1901519150506001600160a01b0381166141a2576040805162461bcd60e51b815260206004820152601860248201527f45434453413a20696e76616c6964207369676e61747572650000000000000000604482015290519081900360640190fd5b80546001019055565b614740838383614ffd565b601b54600160a81b900460ff1615611bf7576040805162461bcd60e51b815260206004820181905260248201527f4653443a20746f6b656e207472616e73666572207768696c6520706175736564604482015290519081900360640190fd5b60006147ca604051806080016040528060448152602001615aff60449139439063ffffffff614af716565b6001600160a01b038516600090815260166020908152604080832063ffffffff60001989018116855292529091209192508416158015906148145750805463ffffffff8381169116145b1561483957805463ffffffff16600160201b6001600160e01b038516021781556148cc565b6040805160608101825263ffffffff80851682526001600160e01b038087166020808501918252428587019081526001600160a01b038c166000818152601684528881208d881682528452888120975188549551909616600160201b0295871663ffffffff1995861617871695909517875590516001968701558352601790529390208054928801909116919092161790555b5050505050565b60008060006148e185612faf565b509250509150836001600160e01b0316600014156149025791506112df9050565b61321d84604051806080016040528060528152602001615d3b605291396001600160e01b038416919063ffffffff614b4d16565b6000838301826001600160e01b0380871690831610156149975760405162461bcd60e51b815260206004820181815283516024840152835190928392604490910191908501908083836000831561329657818101518382015260200161327e565b50949350505050565b60008060006149ae85612faf565b50925050915083601b0b600014156149c95791506112df9050565b600084601b0b13614a1057614a0b846000036040518060800160405280604f81526020016154b4604f91396001600160e01b038416919063ffffffff614b4d16565b61321d565b61321d846040518060800160405280604e8152602001615609604e91396001600160e01b038416919063ffffffff61493616565b6000816001600160e01b038411156132d15760405162461bcd60e51b815260206004820181815283516024840152835190928392604490910191908501908083836000831561329657818101518382015260200161327e565b4690565b6000838383614aae614a9d565b6040805160208082019690965280820194909452606084019290925260808301523060a0808401919091528151808403909101815260c090920190528051910120949350505050565b60008163ffffffff8411156132d15760405162461bcd60e51b815260206004820181815283516024840152835190928392604490910191908501908083836000831561329657818101518382015260200161327e565b6000828403826001600160e01b0380871690831611156149975760405162461bcd60e51b815260206004820181815283516024840152835190928392604490910191908501908083836000831561329657818101518382015260200161327e565b6060614c03826040518060400160405280602081526020017f5361666545524332303a206c6f772d6c6576656c2063616c6c206661696c6564815250856001600160a01b03166150ad9092919063ffffffff16565b805190915015611bf757808060200190516020811015614c2257600080fd5b5051611bf75760405162461bcd60e51b815260040180806020018281038252602a815260200180615dbf602a913960400191505060405180910390fd5b808201828110156112df576040805162461bcd60e51b815260206004820152601460248201527364732d6d6174682d6164642d6f766572666c6f7760601b604482015290519081900360640190fd5b6001546000908190614cc784606463ffffffff614f9a16565b81614cce57fe5b04905068d8d726b7177a800000811015614cee575068d8d726b7177a8000005b60008487039050600073__$13ce3d7753c1832512eb55191c3214b0b3$__631cd65ae483856040518363ffffffff1660e01b8152600401808381526020018281526020019250505060206040518083038186803b158015614d4e57600080fd5b505af4158015614d62573d6000803e3d6000fd5b505050506040513d6020811015614d7857600080fd5b50519050600080881215614e6e576000614da1614d948a6150bc565b859063ffffffff6138c216565b905084811015614de25760405162461bcd60e51b815260040180806020018281038252603b81526020018061599e603b913960400191505060405180910390fd5b73__$13ce3d7753c1832512eb55191c3214b0b3$__631cd65ae482876040518363ffffffff1660e01b8152600401808381526020018281526020019250505060206040518083038186803b158015614e3957600080fd5b505af4158015614e4d573d6000803e3d6000fd5b505050506040513d6020811015614e6357600080fd5b50519150614f039050565b73__$13ce3d7753c1832512eb55191c3214b0b3$__631cd65ae4614e98858b63ffffffff614c5f16565b866040518363ffffffff1660e01b8152600401808381526020018281526020019250505060206040518083038186803b158015614ed457600080fd5b505af4158015614ee8573d6000803e3d6000fd5b505050506040513d6020811015614efe57600080fd5b505190505b60008812614f2057614f1b818363ffffffff6138c216565b614f30565b614f30828263ffffffff6138c216565b9998505050505050505050565b600082821115614f94576040805162461bcd60e51b815260206004820152601e60248201527f536166654d6174683a207375627472616374696f6e206f766572666c6f770000604482015290519081900360640190fd5b50900390565b6000811580614fb557505080820282828281614fb257fe5b04145b6112df576040805162461bcd60e51b815260206004820152601460248201527364732d6d6174682d6d756c2d6f766572666c6f7760601b604482015290519081900360640190fd5b6150088383836150d2565b600080615018858460000361345c565b91509150600080615029868661345c565b91509150600061506383604051806080016040528060458152602001615de9604591396001600160e01b038816919063ffffffff61493616565b90506000615096836040518060800160405280604a8152602001615eb2604a9139601b88900b919063ffffffff6151e316565b90506150a28282613311565b505050505050505050565b60606133098484600085615259565b60008082126150cb57816112df565b5060000390565b6150dd838383611bf7565b6001600160a01b038316615161576001600160a01b0382166000908152600f602052604090205443116151415760405162461bcd60e51b81526004018080602001828103825260428152602001806156576042913960600191505060405180910390fd5b6001600160a01b0382166000908152600f60205260409020439055611bf7565b6001600160a01b0383166000908152600f602052604090205443116151b75760405162461bcd60e51b81526004018080602001828103825260428152602001806156576042913960600191505060405180910390fd5b6001600160a01b038216611bf75750506001600160a01b03166000908152600f60205260409020439055565b6000838301601b84900b82126152025784601b0b81601b0b131561520c565b84601b0b81601b0b135b83906149975760405162461bcd60e51b815260206004820181815283516024840152835190928392604490910191908501908083836000831561329657818101518382015260200161327e565b60608247101561529a5760405162461bcd60e51b81526004018080602001828103825260268152602001806157dc6026913960400191505060405180910390fd5b6152a3856153b5565b6152f4576040805162461bcd60e51b815260206004820152601d60248201527f416464726573733a2063616c6c20746f206e6f6e2d636f6e7472616374000000604482015290519081900360640190fd5b60006060866001600160a01b031685876040518082805190602001908083835b602083106153335780518252601f199092019160209182019101615314565b6001836020036101000a03801982511681845116808217855250505050505090500191505060006040518083038185875af1925050503d8060008114615395576040519150601f19603f3d011682016040523d82523d6000602084013e61539a565b606091505b50915091506153aa8282866153bb565b979650505050505050565b3b151590565b606083156153ca575081611626565b8251156153da5782518084602001fd5b60405162461bcd60e51b815260206004820181815284516024840152845185939192839260440191908501908083836000831561329657818101518382015260200161327e565b60408051606081018252600080825260208201819052918101919091529056fe45524332303a207472616e7366657220746f20746865207a65726f20616464726573734653443a3a77697468647261773a20496e73756666696369656e74205769746864726177616c4653443a3a206f6e6c7920465344206d696e746572206f72206e6574776f726b2063616e2063616c6c4552433230436f6e76696374696f6e53636f72653a3a5f6170706c79436f6e76696374696f6e44656c74613a20636f6e76696374696f6e2073636f726520616d6f756e7420756e646572666c6f77734552433230436f6e76696374696f6e53636f72653a3a61637175697265436f6e76696374696f6e3a2041626e6f726d616c204e465420636f6e76696374696f6e45524332303a206275726e20616d6f756e7420657863656564732062616c616e6365547269627574654163637275616c3a3a5f616464476f7665726e616e6365547269627574653a2050656e64696e67207472696275746520756e646572666c6f7745524332303a20617070726f766520746f20746865207a65726f20616464726573734552433230436f6e76696374696f6e53636f72653a3a61637175697265436f6e76696374696f6e3a2041626e6f726d616c20746f74616c20636f6e76696374696f6e4552433230436f6e76696374696f6e53636f72653a3a5f6170706c79436f6e76696374696f6e44656c74613a20636f6e76696374696f6e2073636f726520616d6f756e74206f766572666c6f777343757276654c6f636b3a3a5f6265666f7265546f6b656e5472616e736665723a2043616e6e6f74207472616e736665722061667465722061206d696e742f6275726e4653443a3a6d696e743a204465706f73697420616d6f756e742063616e6e6f74206265207a65726f4552433230436f6e76696374696f6e53636f72653a3a5f757064617465436f6e76696374696f6e53636f72653a2041626e6f726d616c20636f6e76696374696f6e20696e6372656173654552433230436f6e76696374696f6e53636f72653a3a5f757064617465436f6e76696374696f6e53636f72653a20636f6e76696374696f6e2073636f726520616d6f756e74206f766572666c6f777345524332303a207472616e7366657220616d6f756e7420657863656564732062616c616e6365416464726573733a20756e61626c6520746f2073656e642076616c75652c20726563697069656e74206d6179206861766520726576657274656445434453413a20696e76616c6964207369676e6174757265202773272076616c7565416464726573733a20696e73756666696369656e742062616c616e636520666f722063616c6c547269627574654163637275616c3a3a5f616464547269627574653a2054726962757465206f766572666c6f774653443a3a7365744661697253696465436f6e76696374696f6e3a20416c726561647920536574214552433230436f6e76696374696f6e53636f72653a3a746f6b656e697a65436f6e76696374696f6e3a20496e76616c696420746f6b656e697a656420636f6e76696374696f6e56657374696e673a3a7365744d696e7465723a2043616e6e6f7420626520746865207a65726f2061646472657373547269627574654163637275616c3a3a5f636c61696d476f7665726e616e6365547269627574653a204e6f20666565732061726520636c61696d61626c65547269627574654163637275616c3a3a5f616464547269627574653a20426c6f636b206e756d626572206f766572666c6f7745434453413a20696e76616c6964207369676e6174757265202776272076616c75654552433230436f6e76696374696f6e53636f72653a3a6765745072696f72436f6e76696374696f6e53636f72653a206e6f74207965742064657465726d696e65644142433a3a5f63616c63756c61746544656c74614f664653443a20496e73756666696369656e74204361706974616c20746f2057697468647261774552433230436f6e76696374696f6e53636f72653a3a5f696e637265617365436f6e76696374696f6e53636f72653a20636f6e76696374696f6e2073636f726520616d6f756e74206f766572666c6f7773547269627574654163637275616c3a3a5f636c61696d547269627574653a204e6f20666565732061726520636c61696d61626c654552433230436f6e76696374696f6e53636f72653a3a5f757064617465436f6e76696374696f6e53636f72653a20436f6e76696374696f6e2073636f7265206861732072656163686564206d6178696d756d206c696d6974536166654d6174683a206d756c7469706c69636174696f6e206f766572666c6f7745524332303a207472616e7366657220616d6f756e74206578636565647320616c6c6f77616e63654552433230436f6e76696374696f6e53636f72653a3a5f7772697465436865636b706f696e743a20626c6f636b206e756d6265722065786365656473203332206269747345524332303a206275726e2066726f6d20746865207a65726f206164647265737346534f776e61626c653a206e6577206f776e657220697320746865207a65726f206164647265737345524332303a207472616e736665722066726f6d20746865207a65726f2061646472657373547269627574654163637275616c3a3a5f7265676973746572476f7665726e616e6365547269627574653a2054726962757465206f766572666c6f774653443a3a206f6e6c792054696d656c6f636b206f72204f776e65722063616e2063616c6c45524332303a20617070726f76652066726f6d20746865207a65726f20616464726573734552433230436f6e76696374696f6e53636f72653a3a5f757064617465436f6e76696374696f6e53636f72653a2041626e6f726d616c20746f74616c20636f6e76696374696f6e46534f776e61626c653a2063616c6c6572206973206e6f7420746865206f776e6572547269627574654163637275616c3a3a5f616464547269627574653a2050656e64696e67207472696275746520756e646572666c6f774653443a3a7068617365416476616e63653a2046534420697320616c7265616479206174206974732066696e616c2070686173654653443a3a6275726e3a2057697468647261772065786365656473203125206f6620746865206361706974616c20706f6f6c4552433230436f6e76696374696f6e53636f72653a3a5f6465637265617365436f6e76696374696f6e53636f72653a20636f6e76696374696f6e2073636f726520616d6f756e7420756e646572666c6f7773547269627574654163637275616c3a3a5f7265676973746572547269627574653a2054726962757465206f766572666c6f775361666545524332303a204552433230206f7065726174696f6e20646964206e6f7420737563636565644552433230436f6e76696374696f6e53636f72653a3a5f6265666f7265546f6b656e5472616e736665723a20546f74616c20436f6e76696374696f6e204f766572666c6f774653443a3a73657446616972536964654e6574776f726b3a20416c7265616479205365742145524332303a2064656372656173656420616c6c6f77616e63652062656c6f77207a65726f547269627574654163637275616c3a3a5f616464547269627574653a204164646974696f6e206f66207472696275746573206f766572666c6f774552433230436f6e76696374696f6e53636f72653a3a5f6265666f7265546f6b656e5472616e736665723a20476f7665726e616e636520436f6e76696374696f6e204f766572666c6f77a264697066735822122002d5207d762589199f44f203b7083d803ae8af45e538347b2756ab293987898264736f6c634300060800335065726d69742861646472657373206f776e65722c61646472657373207370656e6465722c75696e743235362076616c75652c75696e74323536206e6f6e63652c75696e7432353620646561646c696e6529454950373132446f6d61696e28737472696e67206e616d652c737472696e672076657273696f6e2c75696e7432353620636861696e49642c6164647265737320766572696679696e67436f6e747261637429",
  "linkReferences": {
    "contracts/dependencies/FairSideFormula.sol": {
      "FairSideFormula": [
        {
          "length": 20,
          "start": 20734
        },
        {
          "length": 20,
          "start": 20969
        },
        {
          "length": 20,
          "start": 21109
        }
      ]
    }
  },
  "deployedLinkReferences": {
    "contracts/dependencies/FairSideFormula.sol": {
      "FairSideFormula": [
        {
          "length": 20,
          "start": 19705
        },
        {
          "length": 20,
          "start": 19940
        },
        {
          "length": 20,
          "start": 20080
        }
      ]
    }
  }
}