{
  "_format": "hh-sol-artifact-1",
  "contractName": "FSDMinter",
  "sourceName": "contracts/token/FSDMinter.sol",
  "abi": [
    {
      "inputs": [
        {
          "internalType": "contract IFSD",
          "name": "_fsd",
          "type": "address"
        },
        {
          "internalType": "address",
          "name": "_whitelistSigner",
          "type": "address"
        }
      ],
      "stateMutability": "nonpayable",
      "type": "constructor"
    },
    {
      "anonymous": false,
      "inputs": [
        {
          "indexed": true,
          "internalType": "address",
          "name": "previousOwner",
          "type": "address"
        },
        {
          "indexed": true,
          "internalType": "address",
          "name": "newOwner",
          "type": "address"
        }
      ],
      "name": "OwnershipTransferred",
      "type": "event"
    },
    {
      "inputs": [],
      "name": "fsd",
      "outputs": [
        {
          "internalType": "contract IFSD",
          "name": "",
          "type": "address"
        }
      ],
      "stateMutability": "view",
      "type": "function"
    },
    {
      "inputs": [
        {
          "internalType": "uint256",
          "name": "tokenMinimum",
          "type": "uint256"
        }
      ],
      "name": "mint",
      "outputs": [],
      "stateMutability": "payable",
      "type": "function"
    },
    {
      "inputs": [
        {
          "internalType": "bytes",
          "name": "sig",
          "type": "bytes"
        },
        {
          "internalType": "uint256",
          "name": "tokenMinimum",
          "type": "uint256"
        }
      ],
      "name": "mintCWL",
      "outputs": [],
      "stateMutability": "payable",
      "type": "function"
    },
    {
      "inputs": [
        {
          "internalType": "address[]",
          "name": "users",
          "type": "address[]"
        },
        {
          "internalType": "uint256[]",
          "name": "amounts",
          "type": "uint256[]"
        }
      ],
      "name": "mintPremine",
      "outputs": [],
      "stateMutability": "nonpayable",
      "type": "function"
    },
    {
      "inputs": [
        {
          "internalType": "address[]",
          "name": "users",
          "type": "address[]"
        },
        {
          "internalType": "uint256[]",
          "name": "amounts",
          "type": "uint256[]"
        }
      ],
      "name": "mintPremineUS",
      "outputs": [],
      "stateMutability": "nonpayable",
      "type": "function"
    },
    {
      "inputs": [
        {
          "internalType": "address",
          "name": "to",
          "type": "address"
        },
        {
          "internalType": "bytes",
          "name": "sig",
          "type": "bytes"
        },
        {
          "internalType": "uint256",
          "name": "tokenMinimum",
          "type": "uint256"
        }
      ],
      "name": "mintToCWL",
      "outputs": [],
      "stateMutability": "payable",
      "type": "function"
    },
    {
      "inputs": [
        {
          "internalType": "address",
          "name": "to",
          "type": "address"
        },
        {
          "internalType": "uint256",
          "name": "tokenMinimum",
          "type": "uint256"
        }
      ],
      "name": "mintToFinal",
      "outputs": [],
      "stateMutability": "payable",
      "type": "function"
    },
    {
      "inputs": [
        {
          "internalType": "bytes",
          "name": "sig",
          "type": "bytes"
        },
        {
          "internalType": "uint256",
          "name": "tokenMinimum",
          "type": "uint256"
        }
      ],
      "name": "mintVCWL",
      "outputs": [],
      "stateMutability": "payable",
      "type": "function"
    },
    {
      "inputs": [],
      "name": "owner",
      "outputs": [
        {
          "internalType": "address",
          "name": "",
          "type": "address"
        }
      ],
      "stateMutability": "view",
      "type": "function"
    },
    {
      "inputs": [
        {
          "internalType": "address[]",
          "name": "users",
          "type": "address[]"
        },
        {
          "internalType": "bytes[]",
          "name": "sigs",
          "type": "bytes[]"
        },
        {
          "internalType": "uint256[]",
          "name": "amounts",
          "type": "uint256[]"
        }
      ],
      "name": "pullTokensPremine",
      "outputs": [],
      "stateMutability": "nonpayable",
      "type": "function"
    },
    {
      "inputs": [],
      "name": "renounceOwnership",
      "outputs": [],
      "stateMutability": "nonpayable",
      "type": "function"
    },
    {
      "inputs": [
        {
          "internalType": "contract IFSDVestingFactory",
          "name": "_vestingFactory",
          "type": "address"
        }
      ],
      "name": "setVestingFactory",
      "outputs": [],
      "stateMutability": "nonpayable",
      "type": "function"
    },
    {
      "inputs": [
        {
          "internalType": "address",
          "name": "newOwner",
          "type": "address"
        }
      ],
      "name": "transferOwnership",
      "outputs": [],
      "stateMutability": "nonpayable",
      "type": "function"
    },
    {
      "inputs": [
        {
          "internalType": "address",
          "name": "",
          "type": "address"
        }
      ],
      "name": "userVesting",
      "outputs": [
        {
          "internalType": "address",
          "name": "",
          "type": "address"
        }
      ],
      "stateMutability": "view",
      "type": "function"
    },
    {
      "inputs": [],
      "name": "vestingFactory",
      "outputs": [
        {
          "internalType": "contract IFSDVestingFactory",
          "name": "",
          "type": "address"
        }
      ],
      "stateMutability": "view",
      "type": "function"
    },
    {
      "inputs": [
        {
          "internalType": "address",
          "name": "",
          "type": "address"
        }
      ],
      "name": "whitelisted",
      "outputs": [
        {
          "internalType": "bool",
          "name": "",
          "type": "bool"
        }
      ],
      "stateMutability": "view",
      "type": "function"
    }
  ],
  "bytecode": "0x6101606040523480156200001257600080fd5b506040516200263f3803806200263f8339810160408190526200003591620001af565b60408051808201825260038152621194d160ea1b6020808301918252835180850185526006815265076312e302e360d41b91810191909152825190912092518493907f15124d26d1272f8d4d5266a24ca397811f414b8cd05a53b26b745f63af5ae2fc90600090620000a790620001ed565b60405190819003902060c084905260e08390529050620000cf6001600160e01b036200015d16565b60a052620000e88184846001600160e01b036200016116565b608052610100525050505060601b6001600160601b0319166101205260018054336001600160a01b031990911681179091556040516000907f8be0079c531659141344cd1fd0a4f28419497f9722a3daafe3b4186f6b6457e0908290a35060601b6001600160601b031916610140526200029c565b4690565b6000838383620001796001600160e01b036200015d16565b306040516020016200019095949392919062000257565b6040516020818303038152906040528051906020012090509392505050565b60008060408385031215620001c2578182fd5b8251620001cf8162000283565b6020840151909250620001e28162000283565b809150509250929050565b7f454950373132446f6d61696e28737472696e67206e616d652c737472696e672081527f76657273696f6e2c75696e7432353620636861696e49642c6164647265737320602082015271766572696679696e67436f6e74726163742960701b604082015260520190565b9485526020850193909352604084019190915260608301526001600160a01b0316608082015260a00190565b6001600160a01b03811681146200029957600080fd5b50565b60805160a05160c05160e051610100516101205160601c6101405160601c6123126200032d6000398061038c528061048d528061062f52806107c852806108db5280610d005280610d7a5280610f2e528061102652806111a95280611380528061163c52508061171b52508061186e5250806118b052508061188f52508061181552508061184552506123126000f3fe6080604052600436106100f35760003560e01c80638da5cb5b1161008a578063a5de786b11610059578063a5de786b1461022e578063d936547e1461024e578063f2fde38b1461027b578063f60826ee1461029b576100f3565b80638da5cb5b146101e0578063a0712d68146101f5578063a106b22f14610208578063a376d01b1461021b576100f3565b8063715018a6116100c6578063715018a6146101835780637313f27e14610198578063789c5ecf146101b8578063864756bd146101cb576100f3565b8063377220fd146100f85780634564dbd41461011a5780634b128cd51461013a57806359af41b114610170575b600080fd5b34801561010457600080fd5b50610118610113366004611a9f565b6102b0565b005b34801561012657600080fd5b50610118610135366004611bf9565b610359565b34801561014657600080fd5b5061015a610155366004611a9f565b610552565b6040516101679190611d5f565b60405180910390f35b61011861017e366004611ade565b61056d565b34801561018f57600080fd5b506101186105c3565b3480156101a457600080fd5b506101186101b3366004611bf9565b6105fc565b6101186101c6366004611c82565b610771565b3480156101d757600080fd5b5061015a6107c6565b3480156101ec57600080fd5b5061015a6107ea565b610118610203366004611ceb565b6107fa565b610118610216366004611c82565b610828565b610118610229366004611b38565b610879565b34801561023a57600080fd5b50610118610249366004611b63565b6108a8565b34801561025a57600080fd5b5061026e610269366004611a9f565b610e4b565b6040516101679190611df1565b34801561028757600080fd5b50610118610296366004611a9f565b610e60565b3480156102a757600080fd5b5061015a610f11565b336102b96107ea565b6001600160a01b0316146102e85760405162461bcd60e51b81526004016102df9061216d565b60405180910390fd5b6001600160a01b03811661030e5760405162461bcd60e51b81526004016102df906121af565b6002546001600160a01b0316156103375760405162461bcd60e51b81526004016102df90612126565b600280546001600160a01b0319166001600160a01b0392909216919091179055565b336103626107ea565b6001600160a01b0316146103885760405162461bcd60e51b81526004016102df9061216d565b60007f00000000000000000000000000000000000000000000000000000000000000006001600160a01b031663055ad42e6040518163ffffffff1660e01b8152600401602060405180830381600087803b1580156103e557600080fd5b505af11580156103f9573d6000803e3d6000fd5b505050506040513d601f19601f8201168201806040525081019061041d9190611ccc565b9050600081600481111561042d57fe5b14806104445750600181600481111561044257fe5b145b6104605760405162461bcd60e51b81526004016102df90611f1b565b838281146104805760405162461bcd60e51b81526004016102df90612094565b60005b81811015610549577f00000000000000000000000000000000000000000000000000000000000000006001600160a01b0316636a2844388888848181106104c657fe5b90506020020160208101906104db9190611a9f565b8787858181106104e757fe5b905060200201356040518363ffffffff1660e01b815260040161050b929190611dd8565b600060405180830381600087803b15801561052557600080fd5b505af1158015610539573d6000803e3d6000fd5b5050600190920191506104839050565b50505050505050565b6003602052600090815260409020546001600160a01b031681565b600361057881610f20565b6105bc84848080601f01602080910402602001604051908101604052809392919081815260200183838082843760009201829052508a935087925090506001610fea565b5050505050565b336105cc6107ea565b6001600160a01b0316146105f25760405162461bcd60e51b81526004016102df9061216d565b6105fa6110b9565b565b336106056107ea565b6001600160a01b03161461062b5760405162461bcd60e51b81526004016102df9061216d565b60007f00000000000000000000000000000000000000000000000000000000000000006001600160a01b031663055ad42e6040518163ffffffff1660e01b8152600401602060405180830381600087803b15801561068857600080fd5b505af115801561069c573d6000803e3d6000fd5b505050506040513d601f19601f820116820180604052508101906106c09190611ccc565b905060008160048111156106d057fe5b14806106e7575060018160048111156106e557fe5b145b6107035760405162461bcd60e51b81526004016102df90611f1b565b6105bc8186868080602002602001604051908101604052809392919081815260200183836020028082843760009201919091525050604080516020808a0282810182019093528982529093508992508891829185019084908082843760009201919091525061110392505050565b600361077c81610f20565b6107c084848080601f016020809104026020016040519081016040528093929190818152602001838380828437600092018290525033935087925090506001610fea565b50505050565b7f000000000000000000000000000000000000000000000000000000000000000081565b6001546001600160a01b03165b90565b600461080581610f20565b6040805160008082526020820190925261082491503384600080610fea565b5050565b600261083381610f20565b6107c084848080601f0160208091040260200160405190810160405280939291908181526020018383808284376000920191909152503392508691506001905080610fea565b600461088481610f20565b604080516000808252602082019092526108a391508484600080610fea565b505050565b336108b16107ea565b6001600160a01b0316146108d75760405162461bcd60e51b81526004016102df9061216d565b60007f00000000000000000000000000000000000000000000000000000000000000006001600160a01b031663055ad42e6040518163ffffffff1660e01b8152600401602060405180830381600087803b15801561093457600080fd5b505af1158015610948573d6000803e3d6000fd5b505050506040513d601f19601f8201168201806040525081019061096c9190611ccc565b9050600081600481111561097c57fe5b14806109935750600181600481111561099157fe5b145b6109af5760405162461bcd60e51b81526004016102df90612205565b858481146109cf5760405162461bcd60e51b81526004016102df90612004565b8083146109ee5760405162461bcd60e51b81526004016102df90612004565b60005b81811015610e4057868682818110610a0557fe5b9050602002810190610a179190612280565b9050604114610a385760405162461bcd60e51b81526004016102df90611e94565b6000898983818110610a4657fe5b9050602002016020810190610a5b9190611a9f565b90506060888884818110610a6b57fe5b9050602002810190610a7d9190612280565b8080601f01602080910402602001604051908101604052809392919081815260200183838082843760009201829052509394508a9250899150869050818110610ac257fe5b60208581015160408088015160608901516001600160a01b03808c1660009081526003875293842054959096029790970135975091959194501a911680610c8a5760008a6004811115610b1157fe5b1415610bd057600254604051630121c70d60e61b81526001600160a01b0390911690634871c34090610b49908a908990600401611dd8565b602060405180830381600087803b158015610b6357600080fd5b505af1158015610b77573d6000803e3d6000fd5b505050506040513d601f19601f82011682018060405250810190610b9b9190611ac2565b6001600160a01b03888116600090815260036020526040902080546001600160a01b0319169183169190911790559050610c85565b60025460405163654d721d60e01b81526001600160a01b039091169063654d721d90610c02908a908990600401611dd8565b602060405180830381600087803b158015610c1c57600080fd5b505af1158015610c30573d6000803e3d6000fd5b505050506040513d601f19601f82011682018060405250810190610c549190611ac2565b6001600160a01b03888116600090815260036020526040902080546001600160a01b03191691831691909117905590505b610ce9565b604051631d21f49d60e21b81526001600160a01b03821690637487d27490610cb6908890600401612277565b600060405180830381600087803b158015610cd057600080fd5b505af1158015610ce4573d6000803e3d6000fd5b505050505b60405163d505accf60e01b81526001600160a01b037f0000000000000000000000000000000000000000000000000000000000000000169063d505accf90610d46908a9030908a906419debd01c79089908c908c90600401611d97565b600060405180830381600087803b158015610d6057600080fd5b505af1158015610d74573d6000803e3d6000fd5b505050507f00000000000000000000000000000000000000000000000000000000000000006001600160a01b03166323b872dd88838f8f8d818110610db557fe5b905060200201356040518463ffffffff1660e01b8152600401610dda93929190611d73565b602060405180830381600087803b158015610df457600080fd5b505af1158015610e08573d6000803e3d6000fd5b505050506040513d601f19601f82011682018060405250810190610e2c9190611c62565b5050600190960195506109f1945050505050565b505050505050505050565b60006020819052908152604090205460ff1681565b33610e696107ea565b6001600160a01b031614610e8f5760405162461bcd60e51b81526004016102df9061216d565b6001600160a01b038116610eb55760405162461bcd60e51b81526004016102df906120de565b6001546040516001600160a01b038084169216907f8be0079c531659141344cd1fd0a4f28419497f9722a3daafe3b4186f6b6457e090600090a3600180546001600160a01b0319166001600160a01b0392909216919091179055565b6002546001600160a01b031681565b806004811115610f2c57fe5b7f00000000000000000000000000000000000000000000000000000000000000006001600160a01b031663055ad42e6040518163ffffffff1660e01b8152600401602060405180830381600087803b158015610f8757600080fd5b505af1158015610f9b573d6000803e3d6000fd5b505050506040513d601f19601f82011682018060405250810190610fbf9190611ccc565b6004811115610fca57fe5b14610fe75760405162461bcd60e51b81526004016102df9061224a565b50565b8015610ffa57610ffa8585611169565b811561100f5761100a848461118f565b6105bc565b6040516340c10f1960e01b81526001600160a01b037f000000000000000000000000000000000000000000000000000000000000000016906340c10f1990349061105f9088908890600401611dd8565b6020604051808303818588803b15801561107857600080fd5b505af115801561108c573d6000803e3d6000fd5b50505050506040513d601f19601f820116820180604052508101906110b19190611d03565b505050505050565b6001546040516000916001600160a01b0316907f8be0079c531659141344cd1fd0a4f28419497f9722a3daafe3b4186f6b6457e0908390a3600180546001600160a01b0319169055565b8151815181146111255760405162461bcd60e51b81526004016102df90611fcd565b60005b818110156105bc576111618585838151811061114057fe5b602002602001015185848151811061115457fe5b602002602001015161140b565b600101611128565b61117382826116ab565b6108245760405162461bcd60e51b81526004016102df90611f9e565b6040516327b978c360e21b81526000906001600160a01b037f00000000000000000000000000000000000000000000000000000000000000001690639ee5e30c906111de903490600401612277565b60206040518083038186803b1580156111f657600080fd5b505afa15801561120a573d6000803e3d6000fd5b505050506040513d601f19601f8201168201806040525081019061122e9190611d03565b6001600160a01b03808516600090815260036020526040902054919250168061130a5760025460405163017cf7cd60e61b81526001600160a01b0390911690635f3df340906112839087908690600401611dd8565b602060405180830381600087803b15801561129d57600080fd5b505af11580156112b1573d6000803e3d6000fd5b505050506040513d601f19601f820116820180604052508101906112d59190611ac2565b6001600160a01b03858116600090815260036020526040902080546001600160a01b0319169183169190911790559050611369565b604051631d21f49d60e21b81526001600160a01b03821690637487d27490611336908590600401612277565b600060405180830381600087803b15801561135057600080fd5b505af1158015611364573d6000803e3d6000fd5b505050505b6040516340c10f1960e01b81526001600160a01b037f000000000000000000000000000000000000000000000000000000000000000016906340c10f199034906113b99085908890600401611dd8565b6020604051808303818588803b1580156113d257600080fd5b505af11580156113e6573d6000803e3d6000fd5b50505050506040513d601f19601f820116820180604052508101906105bc9190611d03565b6001600160a01b0380831660009081526003602052604090205416806115c657600084600481111561143957fe5b14156114f857600254604051630121c70d60e61b81526001600160a01b0390911690634871c340906114719086908690600401611dd8565b602060405180830381600087803b15801561148b57600080fd5b505af115801561149f573d6000803e3d6000fd5b505050506040513d601f19601f820116820180604052508101906114c39190611ac2565b6001600160a01b03848116600090815260036020526040902080546001600160a01b03191691831691909117905590506115c1565b600184600481111561150657fe5b14156115c15760025460405163654d721d60e01b81526001600160a01b039091169063654d721d9061153e9086908690600401611dd8565b602060405180830381600087803b15801561155857600080fd5b505af115801561156c573d6000803e3d6000fd5b505050506040513d601f19601f820116820180604052508101906115909190611ac2565b6001600160a01b03848116600090815260036020526040902080546001600160a01b03191691831691909117905590505b611625565b604051631d21f49d60e21b81526001600160a01b03821690637487d274906115f2908590600401612277565b600060405180830381600087803b15801561160c57600080fd5b505af1158015611620573d6000803e3d6000fd5b505050505b604051630d45088760e31b81526001600160a01b037f00000000000000000000000000000000000000000000000000000000000000001690636a284438906116739084908690600401611dd8565b600060405180830381600087803b15801561168d57600080fd5b505af11580156116a1573d6000803e3d6000fd5b5050505050505050565b6001600160a01b03811660009081526020819052604081205460ff16156116d457506001611787565b60006117176040516116e590611d36565b6040519081900381206116fc918690602001611dfc565b6040516020818303038152906040528051906020012061178d565b90507f00000000000000000000000000000000000000000000000000000000000000006001600160a01b031661174d82866117c6565b6001600160a01b03161415611785576001600160a01b0383166000908152602081905260409020805460ff1916600190811790915591505b505b92915050565b6000611797611811565b826040516020016117a9929190611d1b565b604051602081830303815290604052805190602001209050919050565b600081516041146117e95760405162461bcd60e51b81526004016102df90611ee4565b60208201516040830151606084015160001a611807868285856118db565b9695505050505050565b60007f000000000000000000000000000000000000000000000000000000000000000061183c6119d1565b141561186957507f00000000000000000000000000000000000000000000000000000000000000006107f7565b6118d47f00000000000000000000000000000000000000000000000000000000000000007f00000000000000000000000000000000000000000000000000000000000000007f00000000000000000000000000000000000000000000000000000000000000006119d5565b90506107f7565b60007f7fffffffffffffffffffffffffffffff5d576e7357a4501ddfe92f46681b20a082111561191d5760405162461bcd60e51b81526004016102df90611f5c565b8360ff16601b148061193257508360ff16601c145b61194e5760405162461bcd60e51b81526004016102df90612052565b6000600186868686604051600081526020016040526040516119739493929190611e3f565b6020604051602081039080840390855afa158015611995573d6000803e3d6000fd5b5050604051601f1901519150506001600160a01b0381166119c85760405162461bcd60e51b81526004016102df90611e5d565b95945050505050565b4690565b60008383836119e26119d1565b306040516020016119f7959493929190611e13565b6040516020818303038152906040528051906020012090509392505050565b60008083601f840112611a27578182fd5b50813567ffffffffffffffff811115611a3e578182fd5b6020830191508360208083028501011115611a5857600080fd5b9250929050565b60008083601f840112611a70578182fd5b50813567ffffffffffffffff811115611a87578182fd5b602083019150836020828501011115611a5857600080fd5b600060208284031215611ab0578081fd5b8135611abb816122c7565b9392505050565b600060208284031215611ad3578081fd5b8151611abb816122c7565b60008060008060608587031215611af3578283fd5b8435611afe816122c7565b9350602085013567ffffffffffffffff811115611b19578384fd5b611b2587828801611a5f565b9598909750949560400135949350505050565b60008060408385031215611b4a578182fd5b8235611b55816122c7565b946020939093013593505050565b60008060008060008060608789031215611b7b578182fd5b863567ffffffffffffffff80821115611b92578384fd5b611b9e8a838b01611a16565b90985096506020890135915080821115611bb6578384fd5b611bc28a838b01611a16565b90965094506040890135915080821115611bda578384fd5b50611be789828a01611a16565b979a9699509497509295939492505050565b60008060008060408587031215611c0e578384fd5b843567ffffffffffffffff80821115611c25578586fd5b611c3188838901611a16565b90965094506020870135915080821115611c49578384fd5b50611c5687828801611a16565b95989497509550505050565b600060208284031215611c73578081fd5b81518015158114611abb578182fd5b600080600060408486031215611c96578283fd5b833567ffffffffffffffff811115611cac578384fd5b611cb886828701611a5f565b909790965060209590950135949350505050565b600060208284031215611cdd578081fd5b815160058110611abb578182fd5b600060208284031215611cfc578081fd5b5035919050565b600060208284031215611d14578081fd5b5051919050565b61190160f01b81526002810192909252602282015260420190565b7f57686974656c6973742861646472657373207573657229000000000000000000815260170190565b6001600160a01b0391909116815260200190565b6001600160a01b039384168152919092166020820152604081019190915260600190565b6001600160a01b0397881681529590961660208601526040850193909352606084019190915260ff16608083015260a082015260c081019190915260e00190565b6001600160a01b03929092168252602082015260400190565b901515815260200190565b9182526001600160a01b0316602082015260400190565b9485526020850193909352604084019190915260608301526001600160a01b0316608082015260a00190565b93845260ff9290921660208401526040830152606082015260800190565b60208082526018908201527f45434453413a20696e76616c6964207369676e61747572650000000000000000604082015260600190565b60208082526030908201527f4653443a3a70756c6c546f6b656e735072656d696e653a20496e76616c69642060408201526f0e6d2cedcc2e8eae4ca40d8cadccee8d60831b606082015260800190565b6020808252601f908201527f45434453413a20696e76616c6964207369676e6174757265206c656e67746800604082015260600190565b60208082526021908201527f4653443a3a6d696e745072656d696e6555533a20496e76616c696420506861736040820152606560f81b606082015260800190565b60208082526022908201527f45434453413a20696e76616c6964207369676e6174757265202773272076616c604082015261756560f01b606082015260800190565b6020808252601590820152741194d10e8e88139bdd081dda1a5d195b1a5cdd1959605a1b604082015260600190565b6020808252601c908201527f4653443a3a20446966666572656e742073697a65642061727261797300000000604082015260600190565b6020808252602e908201527f4653443a3a70756c6c546f6b656e735072656d696e653a20446966666572656e60408201526d742073697a65642061727261797360901b606082015260800190565b60208082526022908201527f45434453413a20696e76616c6964207369676e6174757265202776272076616c604082015261756560f01b606082015260800190565b6020808252602a908201527f4653443a3a6d696e745072656d696e6555533a20446966666572656e742073696040820152697a65642061727261797360b01b606082015260800190565b60208082526028908201527f46534f776e61626c653a206e6577206f776e657220697320746865207a65726f604082015267206164647265737360c01b606082015260800190565b60208082526027908201527f56657374696e673a3a73657456657374696e67466163746f72793a20416c726560408201526618591e481cd95d60ca1b606082015260800190565b60208082526022908201527f46534f776e61626c653a2063616c6c6572206973206e6f7420746865206f776e60408201526132b960f11b606082015260800190565b60208082526036908201527f56657374696e673a3a73657456657374696e67466163746f72793a2043616e6e6040820152756f7420626520746865207a65726f206164647265737360501b606082015260800190565b60208082526025908201527f4653443a3a70756c6c546f6b656e735072656d696e653a20496e76616c696420604082015264506861736560d81b606082015260800190565b6020808252601390820152724653443a3a20496e76616c696420506861736560681b604082015260600190565b90815260200190565b6000808335601e19843603018112612296578283fd5b8084018035925067ffffffffffffffff8311156122b1578384fd5b60200192505036819003821315611a5857600080fd5b6001600160a01b0381168114610fe757600080fdfea26469706673582212202bb0e5471f700b1e55d4d96184bd01b3203c97557c41d29664a87b229a3c6a7364736f6c63430006080033",
  "linkReferences": {},
  "deployedLinkReferences": {}
}