{
  "_format": "hh-sol-artifact-1",
  "contractName": "Zapper",
  "sourceName": "contracts/zap/Zapper.sol",
  "abi": [
    {
      "inputs": [
        {
          "internalType": "contract IFSDMinter",
          "name": "_minter",
          "type": "address"
        }
      ],
      "stateMutability": "nonpayable",
      "type": "constructor"
    },
    {
      "inputs": [
        {
          "internalType": "address",
          "name": "tokenAddr",
          "type": "address"
        },
        {
          "internalType": "uint256",
          "name": "amount",
          "type": "uint256"
        },
        {
          "internalType": "uint256",
          "name": "tokenMinimum",
          "type": "uint256"
        },
        {
          "internalType": "address",
          "name": "dex",
          "type": "address"
        },
        {
          "internalType": "bytes",
          "name": "sig",
          "type": "bytes"
        },
        {
          "internalType": "bytes",
          "name": "data",
          "type": "bytes"
        }
      ],
      "name": "swapFromTokenCWL",
      "outputs": [
        {
          "internalType": "bool",
          "name": "",
          "type": "bool"
        }
      ],
      "stateMutability": "nonpayable",
      "type": "function"
    },
    {
      "inputs": [
        {
          "internalType": "address",
          "name": "tokenAddr",
          "type": "address"
        },
        {
          "internalType": "uint256",
          "name": "amount",
          "type": "uint256"
        },
        {
          "internalType": "uint256",
          "name": "tokenMinimum",
          "type": "uint256"
        },
        {
          "internalType": "address",
          "name": "dex",
          "type": "address"
        },
        {
          "internalType": "bytes",
          "name": "data",
          "type": "bytes"
        }
      ],
      "name": "swapFromTokenFinal",
      "outputs": [
        {
          "internalType": "bool",
          "name": "",
          "type": "bool"
        }
      ],
      "stateMutability": "nonpayable",
      "type": "function"
    },
    {
      "stateMutability": "payable",
      "type": "receive"
    }
  ],
  "bytecode": "0x60a060405234801561001057600080fd5b50604051610aaf380380610aaf8339818101604052602081101561003357600080fd5b5051606081901b6001600160601b0319166080526001600160a01b0316610a4361006c600039806103bd52806105b05250610a436000f3fe60806040526004361061002d5760003560e01c806325a189e714610039578063dba52424146101ab57610034565b3661003457005b600080fd5b34801561004557600080fd5b50610197600480360360c081101561005c57600080fd5b6001600160a01b038235811692602081013592604082013592606083013516919081019060a08101608082013564010000000081111561009b57600080fd5b8201836020820111156100ad57600080fd5b803590602001918460018302840111640100000000831117156100cf57600080fd5b91908080601f016020809104026020016040519081016040528093929190818152602001838380828437600092019190915250929594936020810193503591505064010000000081111561012257600080fd5b82018360208201111561013457600080fd5b8035906020019184600183028401116401000000008311171561015657600080fd5b91908080601f016020809104026020016040519081016040528093929190818152602001838380828437600092019190915250929550610282945050505050565b604080519115158252519081900360200190f35b3480156101b757600080fd5b50610197600480360360a08110156101ce57600080fd5b6001600160a01b038235811692602081013592604082013592606083013516919081019060a08101608082013564010000000081111561020d57600080fd5b82018360208201111561021f57600080fd5b8035906020019184600183028401116401000000008311171561024157600080fd5b91908080601f016020809104026020016040519081016040528093929190818152602001838380828437600092019190915250929550610486945050505050565b6000808251116102c35760405162461bcd60e51b81526004018080602001828103825260228152602001806109c26022913960400191505060405180910390fd5b6102de6001600160a01b03881633308963ffffffff61061f16565b866001600160a01b031663095ea7b385886040518363ffffffff1660e01b815260040180836001600160a01b03166001600160a01b0316815260200182815260200192505050602060405180830381600087803b15801561033e57600080fd5b505af1158015610352573d6000803e3d6000fd5b505050506040513d602081101561036857600080fd5b5061038490506001600160a01b0385168363ffffffff61067f16565b506040516359af41b160e01b81523360048201818152604483018890526060602484019081528651606485015286516001600160a01b037f000000000000000000000000000000000000000000000000000000000000000016946359af41b194479490938a938d9360840190602086019080838360005b838110156104135781810151838201526020016103fb565b50505050905090810190601f1680156104405780820380516001836020036101000a031916815260200191505b509450505050506000604051808303818588803b15801561046057600080fd5b505af1158015610474573d6000803e3d6000fd5b5060019b9a5050505050505050505050565b6000808251116104c75760405162461bcd60e51b81526004018080602001828103825260228152602001806109c26022913960400191505060405180910390fd5b6104e26001600160a01b03871633308863ffffffff61061f16565b856001600160a01b031663095ea7b384876040518363ffffffff1660e01b815260040180836001600160a01b03166001600160a01b0316815260200182815260200192505050602060405180830381600087803b15801561054257600080fd5b505af1158015610556573d6000803e3d6000fd5b505050506040513d602081101561056c57600080fd5b5061058890506001600160a01b0384168363ffffffff61067f16565b506040805163a376d01b60e01b81523360048201526024810186905290516001600160a01b037f0000000000000000000000000000000000000000000000000000000000000000169163a376d01b91479160448082019260009290919082900301818588803b1580156105fa57600080fd5b505af115801561060e573d6000803e3d6000fd5b5060019a9950505050505050505050565b604080516001600160a01b0380861660248301528416604482015260648082018490528251808303909101815260849091019091526020810180516001600160e01b03166323b872dd60e01b1790526106799085906106c8565b50505050565b60606106c183836040518060400160405280601e81526020017f416464726573733a206c6f772d6c6576656c2063616c6c206661696c6564000081525061077e565b9392505050565b606061071d826040518060400160405280602081526020017f5361666545524332303a206c6f772d6c6576656c2063616c6c206661696c6564815250856001600160a01b031661077e9092919063ffffffff16565b8051909150156107795780806020019051602081101561073c57600080fd5b50516107795760405162461bcd60e51b815260040180806020018281038252602a8152602001806109e4602a913960400191505060405180910390fd5b505050565b606061078d8484600085610795565b949350505050565b6060824710156107d65760405162461bcd60e51b815260040180806020018281038252602681526020018061099c6026913960400191505060405180910390fd5b6107df856108f1565b610830576040805162461bcd60e51b815260206004820152601d60248201527f416464726573733a2063616c6c20746f206e6f6e2d636f6e7472616374000000604482015290519081900360640190fd5b60006060866001600160a01b031685876040518082805190602001908083835b6020831061086f5780518252601f199092019160209182019101610850565b6001836020036101000a03801982511681845116808217855250505050505090500191505060006040518083038185875af1925050503d80600081146108d1576040519150601f19603f3d011682016040523d82523d6000602084013e6108d6565b606091505b50915091506108e68282866108f7565b979650505050505050565b3b151590565b606083156109065750816106c1565b8251156109165782518084602001fd5b8160405162461bcd60e51b81526004018080602001828103825283818151815260200191508051906020019080838360005b83811015610960578181015183820152602001610948565b50505050905090810190601f16801561098d5780820380516001836020036101000a031916815260200191505b509250505060405180910390fdfe416464726573733a20696e73756666696369656e742062616c616e636520666f722063616c6c5a61707065723a3a7377617046726f6d546f6b656e3a2057726f6e6720696e7075745361666545524332303a204552433230206f7065726174696f6e20646964206e6f742073756363656564a26469706673582212208a25d19188587f18cf2e4e83851aec9b45b8a19d154c770699da4828e703d6c564736f6c63430006080033",
  "linkReferences": {},
  "deployedLinkReferences": {}
}