{
  "_format": "hh-sol-artifact-1",
  "contractName": "SignatureWhitelist",
  "sourceName": "contracts/dependencies/SignatureWhitelist.sol",
  "abi": [
    {
      "inputs": [
        {
          "internalType": "address",
          "name": "signer",
          "type": "address"
        }
      ],
      "stateMutability": "nonpayable",
      "type": "constructor"
    },
    {
      "inputs": [
        {
          "internalType": "address",
          "name": "",
          "type": "address"
        }
      ],
      "name": "whitelisted",
      "outputs": [
        {
          "internalType": "bool",
          "name": "",
          "type": "bool"
        }
      ],
      "stateMutability": "view",
      "type": "function"
    }
  ],
  "bytecode": "0x61014060405234801561001157600080fd5b506040516102993803806102998339818101604052602081101561003457600080fd5b505160408051808201825260038152621194d160ea1b6020828101918252835180850185526006815265076312e302e360d41b9181019190915282519091209251919290917f15124d26d1272f8d4d5266a24ca397811f414b8cd05a53b26b745f63af5ae2fc90600090806052610247823960405190819003605201902060c085905260e084905291506100d190506001600160e01b0361010916565b60a0526100e88184846001600160e01b0361010d16565b608052610100525050505060601b6001600160601b0319166101205261016c565b4690565b60008383836101236001600160e01b0361010916565b6040805160208082019690965280820194909452606084019290925260808301523060a0808401919091528151808403909101815260c090920190528051910120949350505050565b60805160a05160c05160e051610100516101205160601c60af61019860003950505050505060af6000f3fe6080604052348015600f57600080fd5b506004361060285760003560e01c8063d936547e14602d575b600080fd5b605060048036036020811015604157600080fd5b50356001600160a01b03166064565b604080519115158252519081900360200190f35b60006020819052908152604090205460ff168156fea2646970667358221220121c9292f60d0150f508257235aac35b7b5b6ef6741b13585931b6cdc74e37aa64736f6c63430006080033454950373132446f6d61696e28737472696e67206e616d652c737472696e672076657273696f6e2c75696e7432353620636861696e49642c6164647265737320766572696679696e67436f6e747261637429",
  "linkReferences": {},
  "deployedLinkReferences": {}
}